:020000040000FA
:1000000000400020A5530100E1530100E35301002B
:1000100000000000000000000000000000000000E0
:10002000000000000000000000000000E553010097
:100030000000000000000000E7530100E953010048
:10004000EB530100E9A4000041550100EB5301000E
:10005000EB53010000000000E5930100EB530100A9
:10006000FD920000EB5301002D960100EB530100BF
:10007000EB530100EB530100EB530100EB53010084
:10008000EB53010075590100EB530100EB530100E4
:10009000EB530100459101001992010045940000C5
:1000A00055940000EB530100000000000000000028
:1000B0000000000000000000000000000000000040
:1000C00010B5064C2378002B07D1054B002B02D02E
:1000D000044800E000BF0123237010BD2801002068
:1000E00000000000D4C20300084B10B5002B03D061
:1000F0000749084800E000BF07480368002B00D10B
:1001000010BD064B002BFBD09847F9E7000000001C
:100110002C010020D4C203002801002000000000B0
:10012000164B002B00D1144B9D46402292029A1A86
:10013000924600218B460F461348144A121A2CF09F
:100140006AF80F4B002B00D098470E4B002B00D0C5
:1001500098470020002104000D000D48002802D01F
:100160000C4800E000BF21F041FF2000290029F0E9
:10017000C3FD21F017FCC04600000800004000202D
:10018000000000000000000028010020D82F0020FF
:1001900000000000000000007FB54B680E005C10FE
:1001A0002100684625F099F8029D002122002800D0
:1001B0002CF031F801213068014004D12B002200DD
:1001C00026F0DFFE08E043102000042C00D90420B4
:1001D0002A00002123F03CFE6946024806F01CFE7E
:1001E00004B070BD14DC0200F0B50C00002585B031
:1001F000110020001E00009502232A0004F05CFA82
:100200000120AC423FD0844228D1306820423AD10C
:1002100003230340AB4203D11C4A0168914232D010
:100220001B4A0240062A06D0002B0BD10268194B4C
:1002300092699A4206D103A907F0D4FA00230399E0
:100240001A0018E0032302001A40022A16D1FF22E6
:10025000D205801898430AF09FFF14E003A9306884
:1002600007F0C0FA04007068039F06F037FB2B000C
:100270000200390020000DF0BFFF04E006F02EFB65
:1002800001234000184305B0F0BDC046A4C60200DB
:10029000070080FFC97D0000F0B58DB0099214AA57
:1002A000127804000B9215AA12780F000892DA0750
:1002B00000D496E0180006F011FB00230590079388
:1002C000002803DA434205932D230793129B00264F
:1002D000023B1E2B16D8534B129A2020995C19F022
:1002E000A3FB089BC5B2B34204D0681C032119F0DC
:1002F0009BFB06001398002801D02CF090F80335E2
:10030000AE1936183B68B34204D2300026F0D9FF4C
:1003100020603E6023689F19069300237D1E2B708A
:10032000059B002B04D00B9B0A950A3B0B931DE009
:100330003023023F3B7030E06F1E3B70089B002B68
:1003400025D0059B002B28D0069BBB4225D20A9BBB
:10035000DB1B032B09D16B4620229B181B78AF1E99
:100360003B70069BBB4218D20A973D000598129934
:1003700019F0CAFC0F000598129919F0DFFB3B0039
:1003800005903033092FD7DD0B9BDB19D4E7069B93
:10039000BB4202D2059B002BE7D1139B002B0ED052
:1003A00018002CF03CF8069B381A834207D2002331
:1003B000139AD25C002A2ED0C2540133F8E7079B6F
:1003C000002B06D0069BBB4203D26B461B7F013F2E
:1003D0003B70236838009E19F61B099B013E1E6086
:1003E0001EE09A0710D1104A196891420CD1089A60
:1003F000390003920B9A0292139A0192129A009278
:10040000099A26F095FD0BE0002322681370099AE3
:100410002068136004E0079B0700002BD5D1D8E7C4
:100420000DB0F0BDB4350300A4C602001300144A99
:1004300010B50400934201D1012203E0114A934216
:1004400002D10322200018E00020072C17D10E4A09
:100450001A40062A0ED09A0711D11A680B4CA242F4
:1004600008D00B4CA24205D00A4CA24202D00A4C42
:10047000A24204D10A000720190004F037FE10BD83
:100480002CC90200E8C80200070080FF5CE10200FE
:1004900014DC0200B4DF02001C04030010B50400E9
:1004A000080023F06BFB0300002C04D0012C07D1C3
:1004B0004000204305E00348002B02DC024800E036
:1004C000002010BDE8C802002CC9020070B54568C4
:1004D000C6688468102026F0F4FE034B4560C660B1
:1004E0000360846070BDC04640C7020070B50D0057
:1004F0004A688B680849040026F001FDEA68012A71
:1005000004D10649200026F029FC03E0044920001C
:1005100026F0F5FC70BDC046D5350300F45203004B
:10052000E235030030B5040087B00D000020042A36
:100530002FD1200023F022FBAB071DD1164B2A68D8
:100540009A4219D103AA290006F01AF8102026F0C1
:10055000B8FE124B039A0360E36861685A4352186D
:100560004260049A11005943019262688A188260BD
:10057000059A5343C3600CE0002301002A00206861
:1005800006F084FAE36858436368C018012340000A
:10059000184307B030BDC046D822030004C702008C
:1005A000F0B593B0060006A80F00140014F002FD89
:1005B000051E23D13368310001263A0003A80193B8
:1005C00002F0D2FAA3082A003340019903A80CF0E4
:1005D00037FF050003200DF06FFB280024F075FAAB
:1005E000012040420DF068FB14F0FAFC344203D0C5
:1005F000310013480DF094FB012518E00120404222
:100600000DF05AFB01210C4202D00D480DF088FB81
:10061000079806F079F80B4901F0B0FE051E04D1E9
:100620000799094806F0AEF801E080256D00012128
:100630000C4202D002480DF073FB280013B0F0BD4D
:100640001336030048190300A8E602001FB5202155
:100650006846802424F02AFE6400254827F015FF10
:10066000684624F058FE234827F00FFF0DF040FBAA
:100670000128F2D002280AD11F4827F006FF684659
:1006800024F03EFE01221D4B00201A702DE00328AD
:1006900003D1684624F03FFEE8E7042804D0C1B245
:1006A000684624F090FEE1E7154827F0EEFE019A37
:1006B000002A08D1104827F0E8FE684624F020FE02
:1006C0008020400011E0962000230299400006F0AF
:1006D000D1FA002803D10B4822F086F9C0E70122A5
:1006E0001100FFF75DFF2042BAD004B010BDC04634
:1006F000E835030015600300258E03000601002085
:10070000033603000636030070B586B0202102A828
:10071000802424F0CBFD6400444827F0B6FE444812
:1007200027F0B3FE02A824F0F6FD424902A827F004
:1007300083FE012809D1404827F0A7FE02A824F033
:10074000DFFD00203D4B18706EE0022803D13A48CF
:1007500027F09BFEE0E703281AD0042808D136488A
:1007600027F093FE02A824F0CBFD802040005BE040
:10077000052825D1324827F088FE02A824F0CBFDB9
:100780000DF0B6FA6B46C1B2DD1D2970032901D107
:100790002948C5E7042904D1274827F076FE01251A
:1007A00027E002A824F00FFE2B780D2B03D125485B
:1007B00027F06BFEE4E7012128000DF0B1FADFE736
:1007C00002A824F0BBFD0028ACD002A824F0E8FD6C
:1007D00004F026F800280BD00A2102A824F0F3FD2B
:1007E000194902A827F028FE0328D1D00428ECD10B
:1007F000002502A824F09BFD060002A824F09EFD1F
:100800000200962000233100400006F033FA002851
:1008100003D10E4822F09AF984E706222900FFF757
:10082000BFFE204200D17DE706B070BD1536030043
:100830005A36030080360300258E0300060100208F
:1008400085360300B5360300BC360300436403005D
:10085000F0B51B4B8BB004AC20C901380093019458
:10086000062303F05BFFE068164E1727B04202D064
:1008700023F049FC0700152320690393B04202D0FE
:1008800023F041FC039060691622B04202D023F0AD
:100890003AFC0200012304355B42009303993B00BC
:1008A000280014F04BFF0023A2686168280014F0B0
:1008B000CBFE2800049914F0FFFE30000BB0F0BD11
:1008C0007CC70200A4EA020070B586B006000122CF
:1008D000080003A906F0BEF9039D2C00049A631BCF
:1008E00001929A4205D92178301D15F011F8013492
:1008F000F4E7014806B070BDA4EA0200F0B51400A8
:1009000089B001220600080002A906F0A3F9200020
:100910000024022205A9029F06F09CF9059D039B75
:1009200001939C4206D2395D301D14F0F1FF285529
:100930000134F4E7014809B0F0BDC046A4EA020062
:10094000F0B5050087B048680C000F6805F0C6FFD9
:10095000010002A824F0C1FC0026032D03D1A068E9
:1009600005F0BCFF06000024039B01939C4209D2C2
:10097000049B381D31001D19019314F0C9FF013487
:100980002870F1E702A9024806F046FA07B0F0BD68
:1009900014DC0200F7B5CC1CA400070020000E00F8
:1009A000019226F08EFC22000500054B4760866010
:1009B00003600C3A01990C302BF00FFC2800FEBDAF
:1009C00090C8020070B5137804000A3BD8B20F2813
:1009D00008D90A001248134913F0EAF9A368002560
:1009E00018601AE0002052781B021343E26890421C
:1009F00008D0256981004959994201D105000CE0D0
:100A00000130F4E722880025042A06D11A0006499D
:100A1000034813F0CDF9A3681860280070BDC046E4
:100A2000901D03004D37030062370300F0B585B019
:100A300004000D00100003A91E0023F01AFE071E7B
:100A400008D12A000C490D4813F0B2F9A3681860C8
:100A500038000FE0039805F06DFF0300B34309D0A1
:100A6000030000962A000649044813F0A1F9A36880
:100A70001860002005B0F0BD79370300901D030019
:100A800091370300F7B51E0013780D000A3BD9B269
:100A900004001C480F2904D850781B02184327F083
:100AA00039FD03781849009300234A1C01911778F7
:100AB00000998F4218D141785778B94214D1817882
:100AC00097788F4210D1002F0BD1019A9B00D05CF8
:100AD000B04215D933002A000C490D4813F068F9CB
:100AE0000BE0C778002FF0D001330432152BDED194
:100AF0002A000849064813F05BF9A3681860002033
:100B0000FEBDC04614360300E2380300BD370300C3
:100B1000901D0300D6370300F0B5177885B00500A7
:100B20000E00992F47D101A9100023F0C6FD019BAB
:100B3000984240D003781A000A3A0F2A08D80200D7
:100B40000F2331002800FFF79DFF0124844030E08F
:100B5000AE2B30D123F0ACFD040023F0A4FD0290B5
:100B60000378B22B27D1A33B220031002800FFF7E6
:100B700089FF012403A98440029823F09EFD039B72
:100B80000290984215D0390002A823F0A5FD012754
:100B9000029A039B9A420CD00F2331002800FFF7E2
:100BA00071FF3B00834002981C4323F07CFD0290C0
:100BB000EEE7200007E032000449054813F0F8F89A
:100BC000AB681860002005B0F0BDC046EE370300EA
:100BD000901D0300F0B50E0087B0040004A930009A
:100BE0001F00019227F09BFC019B0500002B11D1F7
:100BF000322E02D1BF210902E7E1482E08D0019B25
:100C00002A00BD49BD4813F0D3F8A3681860DFE19E
:100C1000BB49DAE1019B012B00D089E0412E09D1CB
:100C200001003A682000FFF7CDFE0100606928F05E
:100C3000D9F90AE0422E12D101003A682000FFF7EC
:100C4000C1FE0100606928F024FA002800D0BFE14D
:100C5000AC49AA48A46828F070FE2060B8E1432E91
:100C600009D101000F233A682000FFF70BFF8E2106
:100C7000C000C901A8E10378622B33D1049B032B88
:100C800007D0052B2ED1C3785F2B2BD103796E2B88
:100C900028D101269C4A6978531C76422B32187859
:100CA000884206D1A87884465878844501D1581ED8
:100CB000067803339A42F2D1731CA0D03A68290017
:100CC0002000FFF77FFE049B020000276069052BD0
:100CD00003D12B79773B5F425F413B00310028F025
:100CE0009DF9B2E7462E01D188496EE1472E01D128
:100CF00087496AE1442E0BD129003A682000FFF7AA
:100D00000BFFFF231B02B421184200D077E70DE050
:100D1000452E00D073E73A6829002000FFF7FCFE5B
:100D2000FF231B02184200D069E7BC2109024BE1F6
:100D3000019B022B00D0D6E07B681B780A3B0F2B6F
:100D400049D8332E12D13A6801000F232000FFF753
:100D500099FE7A68060029000F232000FFF792FE13
:100D600031000200606928F028F931E10023029384
:100D7000342E1BD18026F6013A6829000723200073
:100D8000FFF780FE7A680190290007232000FFF713
:100D900079FE019A03003100606928F006F917E135
:100DA000029B013302930F2B00D128E7029B032201
:100DB0009E00584B711C591828002BF037FB002857
:100DC000EED1EB78002BEBD1524BF65C8023360151
:100DD000DB011E43D0E7332E01D1802602E0352E01
:100DE00013D1A02607233A6829002000FFF74AFE06
:100DF000FF23019029007A682000FFF717FE019B6E
:100E0000B601190206433143DFE0362E01D1C02678
:100E1000E8E7372E01D1E026E4E700233E4A9900B7
:100E20005018408886425AD18B5A200002933A6863
:100E300007232900FFF726FE7E6803903378982B5E
:100E400028D1300023F074FC002823D1300023F097
:100E50002FFC03789A2B1DD105A923F02EFC0599B0
:100E6000060023F014FC022814D1300023F01BFCF0
:100E700007233200070029002000FFF703FE029B32
:100E80000600DB040ED51F233A0029002000FFF7DF
:100E9000CDFD19E02A002149184812F089FFA36806
:100EA0001860ACE6029BDB0B07D03E233A0029001A
:100EB0002000FFF7BBFD400806E07C233A00290034
:100EC0002000FFF7B3FD80080299039BF600194349
:100ED0000E43F8218001C9000840310074E001335D
:100EE000062B9CD18BE6019B032B00D087E6382E86
:100EF00016D1002618E0C04609380300901D0300F3
:100F000030BF0000693803002337030072B60000C9
:100F100062B60000E7360300BC3003003E38030031
:100F2000392E1CD1802636013A680723290020007B
:100F3000FFF7A8FD7A680190072329002000FFF73A
:100F4000A1FD1F230290BA6829002000FFF76EFD63
:100F5000019F029B374381013943DE0053E73A2E5C
:100F600002D180267601DFE7362E01D1C02603E0CC
:100F7000372E00D043E6D02607233A682900200008
:100F8000FFF780FD072301907A6829002000FFF712
:100F900079FDBA687601137802900A3B0F2B05D8C9
:100FA000072329002000FFF76DFD07E08023DB0009
:100FB0001E43290007232000FFF738FD029B800114
:100FC000D900019B194331430143606927F0B6FF03
:100FD00007B0F0BDF7B506000D0000240192019B9B
:100FE0009D4227D0631C0093052B02D1B46812499F
:100FF00006E028780A38C3B20F2B07D9B4680F4926
:101000000F4828F09AFC2060002014E06B78000262
:10101000184327F07FFA023507002BF000FA022868
:10102000ECD13B78722BE9D17B7830349C42E5D10E
:10103000009CD4E72000FEBD7D380300B0380300DB
:10104000901D03003E2803D0402809D03C280ED133
:101050004239C9B22F290AD8084B585C012308E04D
:10106000712904D8064B585C064B5B5601E00123FE
:101070000020002A00D013607047C0461A3A0300CF
:1010800036390300A839030010B5512836D00FD8DF
:10109000492827D006D842281CD048281FD000282D
:1010A0004BD117E04F2840D042D84C281AD044E00A
:1010B000682811D007D864282AD0662825D062284D
:1010C0003BD188563AE06C2832D071280FD069287D
:1010D00033D12DE0885C31E05200505E2EE05200AA
:1010E000505A2BE09200505825F08EFF29E0D20094
:1010F0008A181068516825F05DFF22E0D2008A1836
:101100001068516825F071FF1BE09200505805E00F
:10111000D2008A18106851681BF03AFC03239843E8
:10112000013B1843074BC0180BE09200505808E0F1
:101130009200505825F04DFF03E0002001234000AD
:10114000184310BD00008080F7B51700156801AA8C
:1011500004000E00FFF776FF402C05D1019B043CF4
:101160005A1EAD185B421D405A213E3C624262410C
:10117000B14289412B183B60D2B22B00494222F088
:101180003EFE04000D004F2E3AD0532E07D12BF017
:1011900046F900220100200005F074FE30E0662EC2
:1011A00006D1032302209C43164B0443E01827E09A
:1011B000642E08D11BF0ECFB032302249843114B4F
:1011C0002043C0181CE05A2E0FD980220023D205DC
:1011D00012196B41002B04D1002A02DB25F0F9FE25
:1011E0000EE0290025F0E6FE0AE0002905D1064BB5
:1011F000984202D825F008FF02E0290025F0F5FE0C
:10120000FEBDC04600008080FFFFFF3FF0B587B005
:10121000140003AA07000E0001931D68FFF712FFD8
:101220000090402F05D1039B043F5A1EAD185B422E
:101230001D40009B019AEB1813603E3F642E09D0BD
:10124000662E02D04F2E22D140E0200005F0AAFBEE
:1012500004003BE0200005F0A5FB1BF045FB0490DB
:10126000059179427941C9B28B0006AAD318083B8F
:101270002A001B68042022F0EBFD3B005A1E93411C
:1012800006AA9B00D318083B04351C681EE0A30780
:101290000CD1154B22689A4208D1794279412B0032
:1012A000C9B2009A200025F06CFE1AE0200005F07B
:1012B00015FB009B0400042B08D95A2E06D90028E0
:1012C00004DA1A1F281DFF212AF0A5FF794279416F
:1012D0000098C9B2042800D9042023002A0022F073
:1012E000B7FD07B0F0BDC046A4C6020070B505004A
:1012F0000E0014001800642D0CD0662D04D04F2D64
:1013000011D19400A35127E094000E1905F04AFB77
:10131000306021E0D4000E1905F044FB1BF0E4FA24
:101320003060716018E020232B43712B0CD1032116
:10133000014009D1094B02689A4205D1E300F31834
:10134000082225F01EFE07E005F0C8FA220003007F
:101350003100280022F090FD70BDC046A4C60200F6
:1013600010B50B790349002B00D1034925F0F6FC99
:1013700010BDC046166503000E65030037B50C00AE
:10138000110000221D0000920123200003F094F9B7
:10139000054B002C06D0286805F0E0FB034B002825
:1013A00000D1014B18003EBD2CC90200E8C8020064
:1013B00010B5043010F044F9004810BDA4EA020052
:1013C00010B5043028F030F8004810BDA4EA02003F
:1013D000F0B50600080087B01400F1880200002371
:1013E000306805F053FB0500002C40D0042C14D1CC
:1013F00003204543B168033C49194A78520022430F
:1014000003920A78A240224304928B7803A9A34056
:101410002343059307F0E2FD2AE003AA03212000FD
:1014200005F020FB039B186805F058FA039B0400A5
:10143000586805F053FA039B0700986805F04EFAC8
:10144000FF2C03D8FF2F01D8FF2805D909490A48E6
:1014500028F073FA13F0C9FDE2B2C0B2341D009057
:10146000FBB2A9B2200027F0F5FF044800E02000FD
:1014700007B0F0BD4A3A030028180300A4EA0200AE
:1014800073B51C00002300930233080011001A00FA
:1014900003F012F9206822F036FE0500606805F0BE
:1014A0001DFA041E05DC0949094828F046FA13F024
:1014B0009CFD0C2025F005FF0600064BE9B208C094
:1014C000A2B210F093F8300076BDC046593A03003E
:1014D0002818030070C9020010B588B001AA694637
:1014E000040012F00BFD009B022B2AD902AA322124
:1014F00004A807F037F8019B13495A6802A825F0A1
:10150000FEFC200005F000F9104BC2689A4210D191
:1015100023680F495A6802A825F0F1FCE368002B04
:1015200007D05A68002A04D00022996802A805F062
:1015300005F904A823F034FF0CF03AFC04A823F0CA
:10154000DFFE08B010BDC046723A0300993C0100AE
:101550007B3A030070B5050090B0002803D11F4806
:1015600021F0F4FA38E004A813F024FD041E19D188
:101570002E68290001A8012201F0F6FA23002200BA
:10158000310001A80BF05CFF040003200CF094FB79
:10159000200023F09AFA012040420CF08DFB13F05A
:1015A0001FFD19E0012040420CF086FB05990C4814
:1015B00005F0E8F8059805F0A7F80A49040000F0DE
:1015C000DDFE002808D10849200000F0D7FE0028E1
:1015D00002D10598FFF780FF10B070BD7F3A03007D
:1015E000A8E6020048190300E017030037B52A4BAC
:1015F00001AA1A600EF036FAE120C0000EF046FA99
:10160000264B2748C1180EF035FC03F0CDFA0CF03C
:1016100031FB0CF0F7F811F063F90023214CA367BC
:10162000214B1A781D00012A1FD1F8239B021A783A
:101630004D2A07D15A78502A04D159881B4822F0E4
:1016400087FC12E0002307211A00194813F0E8FA7A
:10165000002802D022F086FC07E0A62001221549CE
:10166000400004F097F923F059FA2B78002B10D1A1
:10167000FEF7ECFF0028F8D00F4826F006FF0822FE
:1016800000210E482AF0C7FD0023636723F019FAF2
:1016900037BDFFF739F8EDE720270020DC250000F3
:1016A00044010020882E00200601002004E00300F1
:1016B000AC3A0300F0DF0200B43A0300F42E00203D
:1016C00007B50EF06BFC054B01A81968091A8908CB
:1016D0000EF016FC0EF076FC07BDC0462027002059
:1016E0007822044B04481A80743A5A801A715A714D
:1016F0007047C046F8000020A4EA020013B5074C6A
:10170000208825F066FC0090608825F062FC694620
:101710000190022007F062FC16BDC046F8000020D0
:10172000030010B50648002B02D0086800F06EFADE
:10173000002117F057F80022024B03481A7010BD21
:10174000302B0020F62D0020A4EA02001FB50A4B22
:1017500002AC00930194022302F0E0FF029B002BF5
:1017600001D0064A53806368002B01D0034A1380DE
:10177000034804B010BDC046B8CA0200F8000020FB
:10178000A4EA020010B5074B07491A78002A08D0CE
:101790000A6B002AF9D000211970044B186817F061
:1017A00021F810BDF62D0020882E002024270020CF
:1017B000F0B51B4B87B002AE01960093042302F0F4
:1017C000ADFFB0687468029F00F020FA8021050028
:1017D000367B17F007F83900124818F025F9010098
:1017E000280017F067F8002C17DB00230E490F4A7A
:1017F000096813700C190E490C600E490B700E49E4
:101800000B800E490B800E494B670E4B1D60022367
:101810001370002E01D0FFF7B5FF0B4807B0F0BDE5
:1018200058CB020040420F00FC2C0020F62D002077
:1018300028270020F72D0020E22D0020E02D002099
:10184000882E002024270020A4EA020030B5224B75
:1018500089B004AC00930194042302F05FFF0422DA
:101860001E4B04981A715A711D4B0340062B06D06B
:10187000830729D102681B4B92699A4224D1012324
:1018800003940293606800F0C1F900221649174BD7
:101890000D6817491A700D60257B16490D701649A1
:1018A000029D0D8015490A800399154A012D00D12A
:1018B00009685167134A106001221A70237A002BBD
:1018C00007D0FFF75FFF04E003AA02A905F0A8F81C
:1018D000D8E70D4809B030BD04CB0200F800002065
:1018E000070080FFC97D0000FC2C0020F62D0020A1
:1018F00028270020F72D0020E22D0020E02D0020D9
:10190000882E002024270020A4EA0200F0B56D4CA8
:1019100087B02378002B00D1D2E06B4D6B4E2A6844
:1019200033682F00934200D2CAE02378022B0AD1F9
:10193000674B0021186816F055FF33680A332B6097
:1019400001232370BCE05F4B1B78012B00D0B7E074
:10195000604B1988604B1A888A4208D35F4A127814
:10196000002A02D000221A8001E02270A8E05C4A1E
:10197000012901D1506F03E01B88526F9B009858DA
:10198000584B534C98420DD10021206816F02AFF85
:10199000554B5648198818F0D1F80123494A386048
:1019A00013708DE005A905F01DFF059B050002934E
:1019B000236880211800019316F014FF1F232E784E
:1019C000494F1E40731E39884848DCB218F0B6F8FB
:1019D000798818F0B3F8029B0390012B10D96B782B
:1019E000232B09D0622B0BD1002C04D0023EF4B281
:1019F000012C08D000E0062402230122002606E084
:101A000001230022FAE701260223220076420299EE
:101A1000994207D9E85C3A2804D00F2101330140EC
:101A20003971DBB2304F39798C460299994217D916
:101A3000E95C3A2914D1591C0298C9B288420FD9DD
:101A40000F20695C023301400298DBB27971984241
:101A500006D90F20EB5C18400A23594340187871CF
:101A6000092C14D86346043B9E1973B26600002A01
:101A700001D01F4A00E01F4A915B002B05DA5B4250
:101A80009940019816F016FF05E01941F9E7002189
:101A9000019816F0A7FE6B461A7B134B5B795343F4
:101AA0000A3B092B00DC0A23084A1268D318064AAD
:101AB0001360094A1388013313800222014B1A7004
:101AC00007B0F0BDF62D002028270020FC2C0020B8
:101AD00024270020E22D0020E02D0020F72D0020FB
:101AE000882E0020A4EA0200F800002060EA00002E
:101AF000E2300300D430030010B5406816F0B8FEA1
:101B0000024B002800D1024B180010BDE8C80200AB
:101B10002CC9020010B50400080004F0DFFE01002B
:101B2000431005D00549064827F007FF13F05DFA7A
:101B3000606816F0F7FD034810BDC046C23A0300C6
:101B400028180300A4EA0200032310B50B40040088
:101B50000800022B03D1114B0B40062B02D104F0DD
:101B6000BDFE09E004F01EFF1AF0BEFE00220C4B81
:101B700019F024F91AF040FE0A4B0100994205D9E8
:101B800009490A4827F0D9FE13F02FFA0D2063689F
:101B9000185600F071FD064810BDC046070080FFD2
:101BA0000000E03FFF030000D73A030028180300BD
:101BB000A4EA020010B50349034827F0BEFE13F063
:101BC00014FAC046F83A03002818030010B50800BC
:101BD00004F084FEFA239B00584300F015FD002812
:101BE00001D0FFF7E7FF014810BDC046A4EA02009C
:101BF00010B5080004F072FE00F006FD002801D0C8
:101C0000FFF7D8FF004810BDA4EA020010B5040099
:101C100004F07AFD084B98420BD0084B984208D04C
:101C2000074B984205D00749074827F086FE13F076
:101C3000DCF9606810BDC04624CD02007CCC0200F7
:101C4000D0CC0200073B0300181D0300F8B50400C8
:101C50000D00A368002B0AD0344AE968914206D0EF
:101C6000EB58002B03D00422E3681A605DE0A86BF8
:101C7000002822D063680022D900062304301943CB
:101C800011F02CFC021E18D0237C002B04D04268DB
:101C9000E368216800200DE02068002807D0234B6E
:101CA000E968994203D0224B9D4200D00069290087
:101CB000E368526803F0CAF837E02368002B03D1C9
:101CC0006E6B002E14D130E0227C002AF8D1174A26
:101CD000E9689142F4D0164A9542F1D01869E26859
:101CE000616803F0F5F8E3681B68002BE8D01CE09E
:101CF00075680836002D18D000276B1E0C4A9F42CD
:101D00000DD2BB00F158914201D10137F5E7200017
:101D1000FFF79CFFE3681B68002BF6D005E0054B3E
:101D2000ED18AD00AD59954293D1F8BDED1F0000FF
:101D300068EA0200FFFFFF3FF0B5146889B01700A2
:101D4000002C1ED143685E6B002E1AD0736803AD61
:101D500001938368083603936960AC60EA602C7471
:101D6000019B9C4209D0A300F1582800FFF76EFFA9
:101D70003B68002B05D10134F2E703492800FFF747
:101D800065FF09B0F0BDC04668EA020010B54A68B8
:101D9000014925F0B4F810BD173B030070B58AB0B7
:101DA00004000E0015000021082268462AF033FACC
:101DB0001422002105A82AF02EFA202307936B464F
:101DC000059408931C23002D02D0042D07D11A235B
:101DD000216805A80693FFF739FF022106E01B23BF
:101DE000216805A80693FFF731FF03210098042816
:101DF00005D12A003100206904F0FAFE0DE0002828
:101E00000BD002AB002202940396049502F0E2FF8D
:101E100003000348042D00D118000AB070BDC0466D
:101E2000A4EA0200F0B5204B89B08200D4580D001E
:101E300008220021070001A82AF0EDF9142303AEBF
:101E4000B36001ABF3600023296830007460039530
:101E50003374FFF7FBFE019C042C05D1296938007F
:101E600002F04EFF04001CE0002C0CD020002900E2
:101E700022F032FE0400022F13D104F05BFD012496
:101E8000400004430DE0022F0BD1262329683000C7
:101E90007360FFF7DBFE019B002B02D101246D0074
:101EA0002C43200009B0F0BD80CF0200F0B5160031
:101EB000724272418BB01F320C0001920021082245
:101EC000070003A82AF0A7F9019B05AD0693082394
:101ED000079303AB08930023216828002B74059413
:101EE000FFF7B4FE039B002B08D1002E06D11F3351
:101EF000216828006B60AE60FFF7A8FE03980428F5
:101F000016D1206904F000FC144BC2689A420CD12F
:101F1000002E07D02368586826F0FCFA010038002C
:101F200024F01CFF8022324300E03200216906E0E9
:101F3000002808D0210022F0CFFD00220100380047
:101F400004F0FCFB08E0200022F0A6FF23000200C2
:101F50000349380024F0D3FF0BB0F0BD993C0100D9
:101F6000243B030070B504000D000B4924F0F6FE7D
:101F700069680022200004F0E1FB0849200024F0F9
:101F8000EDFEA9680022200004F0D8FB04492000DF
:101F900024F0E4FE70BDC046363B03003F3B030027
:101FA00015600300F7B50025436808300F000600F0
:101FB0002C000193019BAB4212D0AB00F358094AAD
:101FC00093420BD0084AD968914202D03B60013459
:101FD00004E03900586BFFF7E5FF24180135E9E705
:101FE0002000FEBD68EA0200ED1F0000F0B58FB0D2
:101FF00005000F00406B05A901920293FFF7D2FF85
:10200000061DB600300025F05CF90400002120C058
:1020100027F06FFB32002000103A103000212AF028
:10202000FAF8012F05D1029B1B680393042B00D102
:1020300086E007AE0822002130002AF0ECF80922E1
:10204000002309A84260290003328260C66003743D
:102050000993FFF7FBFD0798042807D10598029B19
:10206000C668019A3900B047206123E0002821D0DA
:10207000019A3A4306D106AB0121069502F0AAFE69
:10208000040017E0019B5C00E4190134A400200067
:1020900025F017F9221F0390029920C02AF09DF81D
:1020A000791C039B019A306802F094FE04000398A7
:1020B00025F02EF9200004F027FB854240D10023B3
:1020C0000822290009A8089307930B9309940A9200
:1020D000FFF7BCFD079B002B32D00198384305D198
:1020E00007AA010022F000FD05001CE0019B5D0035
:1020F000ED190235AD00280025F0E3F82A000600AE
:10210000079B083A03600393089B029943600830D9
:102110002AF063F832000199380022F0E5FC05004E
:10212000300025F0F5F8084B9D4209D0280022F038
:10213000B3FE06490200064811F03AFE12F055FFC0
:1021400020000FB0F0BDC046A4EA0200423B0300ED
:10215000181D030010B5C468002C06D1426804495C
:10216000044811F025FE12F040FFA04710BDC04604
:102170006A3B0300181D0300F8B504000D001600AB
:102180001F0021F0C6FF002809D1200022F084FEA4
:102190000B4902000B4811F00BFE12F026FF042839
:1021A00004D13B0032002900206905E0210007F03E
:1021B00099FA3B003200290002F00CFEF8BDC0463F
:1021C000873B0300181D0300F0B5154B89B01600BE
:1021D0008200D5580C000C220021070068462AF026
:1021E0001AF8182303A84560836000256B46216810
:1021F000C36005740394FFF729FD0098042805D1F6
:1022000032002169380002F071FF07E0002805D094
:102210006A4629000120029622F066FC09B0F0BD52
:1022200038CE0200F0B50D0085B001A907001600F8
:10223000280002AA23F0D4FD0023019902988B42C2
:102240000CD09A008258D468002C05D152682349DA
:10225000234811F0ADFD26E00133F0E73C2025F0E6
:1022600042F8204B040003601F4B476083601F4B04
:102270004563C3601E4B866303611E4B03A9436124
:102280001D4B83611D4BC3611D4B03621D4B43629C
:102290001D4BC3622800FFF785FE012805D91B49A5
:1022A0000F4827F04AFB12F0A0FEA36B0022181D76
:1022B0004E2111F013F9051E0DD0032243681A4078
:1022C00009D11B685B68F22B05D1031D0121104861
:1022D00021F07AFF6860200005B0F0BDA33B030049
:1022E000181D0300FCCD0200AD1E0000ED1F000014
:1022F00079210000251E0000C92100003D41020097
:102300009D1D00009342020049420200CC3B0300A5
:1023100038CF020037B50D001C00002311000093D8
:1023200001220333280002F0C7F9012D09D0032D43
:102330000BD1206804F0C8FDA2686168FFF772FF46
:1023400009E0206804F0E0F905E00349034827F0BC
:10235000F4FA12F04AFE3EBDFA3B0300181D0300DA
:1023600070B505000C200C0024F0ABFF024B45605B
:102370000360846070BDC046C0CE0200F8B50F0097
:10238000B8421ED0032505401DD1134B02689A4266
:102390001BD1466B002E1AD074680836002C18D05A
:1023A000631E9D4208D2AB003900F058FFF7E6FFEC
:1023B00000280FD10135F3E7084BE418A400A05919
:1023C000DEE7012006E0002004E0280002E0300003
:1023D00000E02000F8BDC046FCCD0200FFFFFF3F3B
:1023E000F0B585B00500019108008B0713D10B688B
:1023F000154A934204D10123029301AB039306E0F3
:10240000124A934207D103AA02A923F0E9FC029ED3
:10241000039F002410E00E490E4827F08EFA12F0B8
:10242000E4FDA300F9580C4B994209D02800FFF7AE
:10243000A5FF002804D10134B442F2D1074800E0DE
:10244000074805B0F0BDC046FCCD0200B4DF020075
:10245000163C0300181D030068EA02002CC90200A4
:10246000E8C8020010B5830703D1064B02689A4200
:1024700005D00549054827F060FA12F0B6FDFFF7D0
:10248000AFFF10BDFCCD02004F3C0300181D030040
:10249000F0B50D00002785B0110003901E00280044
:1024A0000F4B0222009702F007F9A81C800024F0CD
:1024B00008FF039B040003606B1E3D000393436011
:1024C00033688360039B9D4207D20135AF00F0590A
:1024D00002F07AFDE719B860F4E7200005B0F0BD1E
:1024E000FFFF0000C3790248002B00D1014870476C
:1024F000E8C802002CC9020010B512F03BFA0148EE
:1025000010BDC046A4EA020010B5086812F032FA05
:10251000004810BDA4EA020073B50D00022823D1C3
:10252000012601A9686805F05DF976423400019B37
:10253000C31883421BD00178722901D0772905D1B5
:10254000621C0ED172394C424C4108E0622901D024
:10255000742906D1721C04D174394E424E410130A7
:10256000E7E70E490E4813E001267642340001A940
:10257000286805F037F97342734162426241DBB269
:10258000D2B2019912F04CFB002805D1054906484A
:1025900027F0D3F912F029FD76BDC046723C030046
:1025A000281803007F3C0300D8190300A0200B4A21
:1025B0000B49D36F30B5C0058B4201D1094C01E006
:1025C000A124E4001D68055118895B68D3671B8945
:1025D000181A002801DC0B89C01830BD882E002095
:1025E000140000200C05000010B5044A044B0549F6
:1025F000DA670220782206F0D7FE10BD1400002012
:10260000882E0020AD250000F8B5144BC218144BDD
:102610009A421FD8134B051118681E00002801D1DB
:102620001D8119E021F0A9FEA0220F4B3168D205CF
:10263000D15037897468B44207D020893900684383
:1026400017F07CFA20816468F5E72581FFF7CCFF5D
:10265000002001E001204042F8BDC04618FCFFFF09
:10266000583E0F00140000200C050000014B188993
:102670000001704714000020334BF7B599425ED833
:102680000122324D82402E006B68B34205D01C6897
:10269000224204D11D005B68F7E7002312E0D24319
:1026A00014401C600124A02784400192284AFF05A1
:1026B000BC503468019A224032601A68002AECD17A
:1026C0005A686A60002291423BD0204A490014892E
:1026D00001316143C91200D101310D1B6F426F41BD
:1026E000C91B40B2611A8CB20100A0250326C1317A
:1026F000FF318900ED054E51012585401600106817
:102700005168284310600889914204D0A04202D247
:102710000E004968F7E7A04203D10B681D430D6026
:102720000BE0002B04D119000C200DF0FBFC030082
:1027300072681D605A601C817360002201E00122F2
:1027400052421000FEBDC046FF03000014000020EE
:102750000C05000070B50C0005000B6805495A68AF
:1027600024F0CDFB21682800403122000BF022FA32
:1027700070BDC0468C4F0300136870B5002B11D19B
:102780000568EE6BB34213D09C002C19246CA14257
:1027900001D00133F6E7591C0AD002339B001B58C5
:1027A000136005E00349044827F0C7F812F01DFC48
:1027B00070BDC0468E3C03004C1B0300F0B585B0D5
:1027C0000C00032504F080FB25400700002D03D1F9
:1027D0001E4B22689A4205D01D491E4827F0ADF8CD
:1027E00012F003FC03AA02A9200026F047FD029E76
:1027F000039B300010308000019324F062FD040040
:102800003C22290029F007FD134B67602360134B1E
:10281000E663A360124BE360124B6361124BA3614A
:10282000124BE361124B2362124B6362124B6363E0
:10283000AE4208D0019BAF00D85904F045FBE71920
:1028400038640135F4E7200005B0F0BD1C04030036
:10285000A23C0300181D0300FCCD02005527000018
:102860007D2800005D8F00001D900000792700008A
:1028700015910000B98F000010D10200F0B51D00C5
:1028800085B0C36B00AFFB607A608B18FA680600F6
:102890000C009A4204D02A492A4811F089FA34E0FF
:1028A000FB688B4244D09A00130069460E33DB0864
:1028B000DB00CB1A9D4618000021BB6029F0ABFC61
:1028C0000023A2009A4204D0E858B968C8500433E3
:1028D000F8E7F9687B688C4663447B60AD1803E0D9
:1028E0006A6802341A6008357B689C421FD22868E7
:1028F00004F0EAFA00210200F36B3B603B68994266
:1029000005D111490F4811F053FA12F06EFB8B00FC
:10291000F018006C824201D00131EFE70131F0D0B4
:10292000B968CB1819680029DAD00849EAE7BD6808
:102930002900F86806F052FBBD46066005B0F0BD00
:10294000B03C0300181D0300E93C03000A3D0300EE
:1029500010B504000C2024F0B4FC034B4460036069
:1029600001235B42836010BD28D10200002313B510
:10297000044A046A09050093890C8A58A16B21F066
:1029800096FD13BD64D10200F0B587B000931B78AB
:1029900004000F0002927C2B06D18268525C002A50
:1029A00002D09A2A00D0DAE01A006B3A022A29D81B
:1029B000A568E8190378032B00D0ACE004A9666889
:1029C00021F042FEAB19984200D19EE00378032B20
:1029D00000D0A0E005A921F037FE009B1B786B2BEF
:1029E00003D1049B059A13430AE06C2B03D1049B8B
:1029F000059A534004E06D2BE4D1059B049A1340E3
:102A00000493DFE76E2B04D0022219009143702952
:102A100064D1A368D81901930378032B7BD1636831
:102A200004A9039321F010FE0600019B039A9B1852
:102A30009E426AD0B378B01C7578032B6BD105A980
:102A400021F002FE0600372D0ED1059A1F2A62DC06
:102A50004449049B114199425DDBC02109061141A3
:102A60008B4258DB934009E0392D09D1059B1F2B80
:102A700001DD1F230593049B059A1341049328E06D
:102A80002F2D03D1049B059A9B18F7E7302D03D116
:102A9000049B059A9B1AF1E7312D09D105990498F9
:102AA00007F04AFA002836D1059B049A5343E5E71C
:102AB000332D30D00599352D05D100292BD0049820
:102AC00024F0DBF804E0002925D0049824F0E5F890
:102AD0000490049B5A005340A7D51CE0752B1AD1D3
:102AE000A368D8198378032B15D14578023021F0DB
:102AF000BAFD2F2D08D0302D05D14042430004905F
:102B0000584002D507E0C043049067600499200054
:102B100021F0FDFC23E000226368029DDB1B019392
:102B2000561CED0901D03200FAE7019B0135DB09A3
:102B3000FCD1023252193900200022F059FC040065
:102B4000009B029A1B7831001A330370013021F088
:102B500030FC701C2018019A290021F02AFC07B0D3
:102B6000F0BDC046FFFFFF3FF0B597B00890C02012
:102B7000002540230AAC80000F001600257063601A
:102B8000A56024F0ABFB2561E0606561A561E561AE
:102B90002762E562A84202D1BF49C048CBE1331E9B
:102BA00003D00423022E00D0033B0026BC499A0028
:102BB000009652582000B96B330021F078FC1020A9
:102BC00024F07FFB1021040022F070FB0AADAB68FB
:102BD000002B00D18CE12A78002A00D088E1013B4B
:102BE0000C32AB605343EA68AD49D318DA785D68BC
:102BF0009200525802921A689B681202120A0393BA
:102C0000029B05925B7806930F23069A1340049368
:102C1000002D01D1636803933023069A1340102BD3
:102C200002D0202B42D0FCE0002D03D0002E01D199
:102C30000026CBE78021029B6A009A184901049B79
:102C4000AB4231D95388180B0003884215D13800A4
:102C5000403000781B0502321B0D984220D1210024
:102C60000AA821F063FC0028E2D13B0040331B7826
:102C7000062B00D054E18B4955E1049A6B1C9A4213
:102C800006D9039A059900920AA8029A21F00FFC2E
:102C9000029B6D005D1969880AA8FFF767FEC7E708
:102CA0000135CCE7012DE0D801268FE7002E0BD0AF
:102CB000029A6B009B5A1B0B032BF3D101212000BE
:102CC00022F05CFB00230370029B6E009E191DE046
:102CD0008021738849011A0B12038A4229D13A00D4
:102CE00040321278DBB29A4220D1082A07D1B96C5F
:102CF000F86C0BF0A7F90100200021F0CEFB002DAD
:102D000008D0380026F073FB01350236049BAB4235
:102D1000DED810E0029B5B787F2BF2D90E9B20005F
:102D2000591C06930E9121F0F2FBEAE7002DBBD06F
:102D30009BE76B1CA5E7002380201E004001049A3E
:102D400093420DD202995A008A185288110B090336
:102D5000814203D1D2B2072A00D901260133EEE71E
:102D6000A368039A981800230693A2686368D3188F
:102D7000984206D2069B01210133069321F03CFBC9
:102D8000F3E7029B1B781F2B01D02E2B00D10126CD
:102D9000029B597840230B4018004342434149B2FB
:102DA0005B421E40002900DA01260025039B0495A2
:102DB000D0180795069B9D420FD0049A03780132E4
:102DC0000492002B04D0079B013307930023049344
:102DD000012121F011FB0135ECE7002E02D1079B08
:102DE000012B04D00499200022F036FB79E0A26880
:102DF000039B944663441D00069B9E4200D117E747
:102E00002B78002B06D1A3680122E91A200022F0BA
:102E100031FB04E02800012121F0EEFA0500013623
:102E2000EAE7002E20D10123069A1A40099205E014
:102E3000002A2BD0380026F0DAFA0135099A0299D7
:102E40002A405300CB1880215B88490107931B0B54
:102E50001B038B4228D13B00079940331B7809059F
:102E6000090D8B42E4D00135049B022B03D10023D2
:102E7000012D27D118E7012D00D115E701232A00E4
:102E80001A401ED0049A032A1CD0EEE621000AA89C
:102E900021F04CFBD1E7C046423D0300A8180300D7
:102EA00064D102006A3D0300039A059900920AA8C2
:102EB0006B1C029A21F0FBFA07990AA8FFF756FD4E
:102EC00084E61300069A691ED20705D5029A9288F5
:102ED000120B012A00D16908012902D1002B00D16F
:102EE000A6E6029B059A03992000FFF74DFD9FE699
:102EF0002B78002B00D04FE63B0040331E78002E8D
:102F000000D0B2E66368002B00D1AEE62B6920004A
:102F1000591C21F0FCFAA3686B62EB69AB620FE00D
:102F2000022B02D11449154805E00B3B1448154902
:102F3000012B00D9144926F000FD0023060013934D
:102F40000D9824F0E5F9002E0BD00023BA6B3968F8
:102F5000300010F09BFF380026F0D8F9300012F056
:102F600044F8380026F0D2F9089A13AB13CB13C2F9
:102F7000089817B0F0BDC0467C3D03000C1C030050
:102F8000901D0300B03D0300D73D030000220F4B0E
:102F90000F491A6003001233FF3341185A701A7038
:102FA00004338B42FAD101000300002209310833B7
:102FB000FF311A709A705A70DA7004338B42F8D16C
:102FC000C3237F229B00C2547047C0462C27002099
:102FD000110300000023F7B507001C00A200BA1877
:102FE000FF32517C7F2952D0927C651C9B18DBB24A
:102FF000EF2B2AD9EBB20193C1239B00FE187D234E
:1030000035000093009B019A934209DB281D29009B
:10301000042229F0E2F8009B043D013B0093F1E714
:10302000002395007D19FF356B74AB74EB742B7521
:103030007D250234E4B2A5421DDB301D310004229F
:1030400029F0CBF8013D043EF5E77D291CD8104A54
:10305000525C01210A4217D0C1237D269B00ECB2AD
:10306000FD18A64207DB281D2900042229F0B5F827
:10307000013E043DF5E77E23A200BA18FF325374E7
:1030800000239374D37413750134E4B2A6E7F7BD3B
:10309000293F030070B5012240240F49531EDBB2C3
:1030A0009B00C318FF335D7C7F2D14D04D5D2542FE
:1030B00002D10132D2B2F1E75D7D7F2DF9D04D5DB5
:1030C0007F2DF6D9DD7D002DF3D06EB2002EF0DB22
:1030D0000135DD74EDE770BD883E03000300F7B5F0
:1030E00000214B4A1333FF338218197004339A427C
:1030F000FBD1FC2300249C462200844453B2002BC5
:1031000001DA444A78E063461F69BC4205D37F2355
:10311000443292001354012078E06346DE68355D46
:10312000602D01D9203DEDB2611CC9B28F4220D083
:10313000735C602B01D9203BDBB2232D1CD1303BCB
:10314000092B01D9344A57E00234E1B28F4204D846
:10315000FF2BF7D843700C00D0E7745C2500303D9E
:10316000092DF5D80A256B430131303BE318C9B26C
:10317000ECE7232DE6D000230026F7B20197274F76
:10318000F75DAF4212D1264FF75D2A2F0ED09F4236
:103190000CD1694693000979C318FF3359744178FB
:1031A000013202341975D2B2E1B2D4E70136512EA0
:1031B000E3D100231A4C1F5DDEB22A2F0CD1174F2A
:1031C000FF5CAF4208D19300C318FF335E744478AC
:1031D00001321C75D2B2BEE70133512BEBD1114C39
:1031E000493BE65CAE4204D0002B04D0013BDBB28D
:1031F000F7E7002B04D10C4A0C4B00201A6005E0C5
:1032000014004334A4000419A370A4E7FEBDC04613
:1032100012030000773F0300893F0300E63D0300EF
:10322000373E030056400300973F03002000002074
:1032300010B51130084A0949FF3003787F2B09D0B7
:1032400002240457002C01DCCB5C00E0D35C43700B
:103250000430F2E710BDC046D93E0300064003002B
:10326000F0B5002489B00090009AA300D31802930F
:10327000FF335D7C7F2D00D1CAE0022065494A5DA5
:10328000024201D10134C1E0012002424CD1221896
:10329000D2B203922A18D2B204925F4A7D27521901
:1032A00052780592DA7C1B7D0692C12292009446E8
:1032B0000793009B63441E000193039B9F4207DB1F
:1032C000301D3100042228F088FF013F043EF4E75E
:1032D000009A9B00D3186A46127CFF335A746A46E0
:1032E000127DA61C9A746A46127EF6B2DA746A4699
:1032F000127F1A75AB1CDBB20393474B5D19AB7899
:103300007D250493029BFF33DA7C1F7D0292B54238
:103310006DDB019B0422181D190028F05EFF019B44
:10332000013D043B0193F2E722000132D2B21300C7
:10333000009844339B001B5C002BF6D0621C7F2B53
:1033400007D0C95C090702D4243B012B01D8D4B2B1
:103350008AE7D3B203936B1CDBB204932E4B7D2719
:103360005B195B780593029BFF33DA7C1B7D069229
:10337000C122920094460793009B63441E00019370
:10338000039B9F4207DB301D3100042228F025FFFC
:10339000013F043EF4E7009A9B00D3186A46127C72
:1033A000FF335A746A46127DA61C9A746A46127ECE
:1033B000F6B2DA746A46127F1A75AB1CDBB203935D
:1033C000154B5D19AB787D250493029BFF33DA7CA6
:1033D0001F7D0292B5420ADB019B0422181D1900D1
:1033E00028F0FBFE019B013D043B0193F2E7009BAB
:1033F000B6009E196B461B7BFF3673746B461B7CB5
:103400000334B3746B461B7A3775F374E4B22BE75D
:1034100009B0F0BD883E030006400300F0B5002669
:1034200087B00190019AB300D3180293FF335A7CFE
:10343000002A00D130E17F2A00D15BE11020AE49A3
:10344000741C895C014227D0DA7C7D250492C1225C
:103450001B7D8906C90F0593019B14319200E7B2C9
:1034600003919C18BD4207DB201D2100042228F097
:10347000B4FE013D043CF5E7019BBF00DF196B463C
:103480001B7BFF377B740023BB746B461B7CFB7478
:103490006B461B7D3B75B1E04E2A01D1182602E038
:1034A0004F2A23D11B26DA7C7D2702920D225A74E3
:1034B000C1221B7D92000393019BE4B29D18A74299
:1034C00007DB281D2900042228F087FE013F043D68
:1034D000F5E7019AA300D3180022FF339A746A46D5
:1034E000127A5E74DA746A46127BB4E0502A01D113
:1034F0001C26D8E77F20814334D0D97C002931D0E5
:10350000E4B22100019844318900095C002929D1E5
:10351000B11CC9B20391890041180D00FF35687CC8
:103520007F281FD0744F385C7F27B8431AD0E97CBE
:10353000002917D0C122019B92009E18023F039BD5
:10354000BB4207DC301D3100042228F046FE013F5B
:10355000043EF4E71F236B740023AB74EB742B75EC
:1035600026005FE7741C172A13D1597B721ED2B252
:10357000452901D11B3902E0392902D10D3959738E
:103580008EE05D4A525C7F218A4300D1B0E0122276
:10359000ADE0182A07D15A7B57498A5C7F2A00D8A8
:1035A000A6E01322A3E0202A05D15A7B3C2A00D0B2
:1035B0009EE026229BE0482A09D15A7D7F2A03D02B
:1035C0004D498A5C92060FD44B225A740CE03C2A77
:1035D0000AD15A7D7F2A00D18AE047498A5C920647
:1035E00000D585E03F2282E05A7C4349895CC907C7
:1035F00004D5597B20294BD10C3A78E0029B741CEE
:10360000FF335A7C352A06D15A7B3C498A5C5207E3
:103610006ED510226BE02A2A1FD1C1227D26DF7CC5
:103620001B7D92000293019BE4B29D18A64207DB2A
:10363000281D2900042228F0D0FD013E043DF5E7B5
:10364000019AA300D3182B22FF335A7400229A74D4
:103650006A46DF74127A1A7582E72C2A18D1C122C1
:103660007D26DF7C1B7D92000293019BE4B29D18B6
:10367000A64207DB281D2900042228F0AEFD013EEA
:10368000043DF5E7019AA300D318FF332D22DCE7B0
:10369000452A04D0392A02D00136F4B260E732005C
:1036A0001100019843318900134B095C741C595C6B
:1036B0007F291DD901320199D2B292008A18FF32B6
:1036C000517C002909D05B5C7F2B11D9D37C002B66
:1036D0000ED1029B1E22FF3309E0527D7F2A07D0C4
:1036E0009B5C7F22934303D0029B613AFF335A7461
:1036F000E4B235E707B0F0BD883E0300293F030080
:10370000F7B500220427634E00901300009944335C
:103710009B005B5C7F2B0DD00121F35C0B4202D13F
:103720000132D2B2F1E713005B4C013BDBB2002B5C
:1037300003D100E00023022640E019000098443144
:103740008900095C7F2902D0615C7F29EDD952494B
:103750008C46009899004118FF314C7C7F2C0CD08E
:103760002020355D054203D06046045D3C4204D014
:103770008C7C6508013464198C740133DBB293428C
:10378000E7D1CDE7444F7F207C5C250085433CD0CA
:10379000591C0098C9B28C0004194120FF34657C83
:1037A000019484467F2D01D0785D84464024785D65
:1037B000204217D1123D012D08D90B0000999A0023
:1037C0008A18FF32517C7F29DCD161E00233DBB201
:1037D000443300989B001B5CFB5C2342EDD0937C40
:1037E000013B08E063465B0707D46346DB07E4D58B
:1037F000937CDC081B1B9374DFE7019B9B7B5A1CAB
:103800009B08D318019A9373D7E70820214D695C70
:10381000014210D00133009AD9B28B00D318FF3384
:103820005A7C7F2AC9D0BA5C3242C6D006229A742A
:10383000013A9A73C1E734421DD01C000134E4B24E
:103840002100009844318900095C0029F6D0013339
:103850007F291BD0104D695C314217D00099A4001C
:103860000C19FF34A17C49080131A174917C4908ED
:10387000013191740AE01020014206D0517B795C3D
:10388000314202D0917C023991740133D9B294E76C
:10389000F7BDC046293F0300883E030070B5040011
:1038A000FFF774FB2000FFF719FC23000022FC3314
:1038B0000100DA601A61904244D02600224D113690
:1038C0002B68FF36934203D0310020480BF092FB67
:1038D0002000FFF7A3FD2000FFF7DCFB2000FFF72F
:1038E000A7FC2000FFF70CFF2000FFF7B9FCC42263
:1038F00033009200A1181A78502A06D97F2A07D0DF
:10390000134A144B00211A601CE004338B42F2D19D
:103910002B68002B02D010481FF018F92000FFF789
:1039200059FB2B68002B03D031000C480BF062FBD5
:10393000200020F015FF074B0949186828F065FDA5
:1039400041424141080070BD40270020AE3F0300C6
:10395000BD3F030020000020E33F0300F33F0300CE
:10396000033603000023820708D1026804490133AB
:103970008A4203D0034BD31A5A425341180070476E
:10398000B0D5020078D4020070B506000D00012405
:10399000B44206D2A300E958286820F00FFF013492
:1039A000F6E7014870BDC046A4EA020010B5040065
:1039B000102023F086FC044B84600360034B4360BB
:1039C0000023C36010BDC046FCE802009D48020011
:1039D00070B50500102023F074FC0400074B6968E3
:1039E00008C025F0BAFEAB68E968A3606B68E068C0
:1039F0009A0028F0F2FB200070BDC046B0D502004E
:103A00000023F7B504000D0001938B0705D10B6867
:103A1000214FDF1B7A427A410192AB68002B08D11B
:103A2000019B002B03D01D49200023F097F91C496E
:103A30002EE0019B002B03D01A49200023F08EF9C1
:103A40001949200023F08AF9002601236A6896426A
:103A500016D2B2001700EA68D259002A0ED0042A02
:103A60000CD0002B03D11149200023F077F9EB682B
:103A70000122D959200002F061FE00230136E5E75A
:103A80000B49200023F06AF9019B002B03D0094960
:103A9000200023F063F9F7BD78D402005F400300F3
:103AA000664003006C400300774003003F3B030087
:103AB00007380300F452030010B5FFF753FF002846
:103AC00005D10349034810F073F911F08EFA10BDC7
:103AD00079400300181D030070B50D000400FFF7C6
:103AE000EBFF280001F070FA0500280001F0BCFA95
:103AF000011E08D0231D0022180025F038FE0028E2
:103B0000F3D0024800E0024870BDC0462CC9020054
:103B1000E8C8020010B583070BD10368084A934236
:103B20000DD0084A934204D10749084825F005FF03
:103B300003E00749074810F03BF911F056FA10BDB1
:103B4000B0D5020078D402008F4003004C1B030064
:103B500079400300181D030070B50D000400FFF745
:103B6000D9FF280001F030FA0500280001F07CFAA6
:103B7000011E05D0231D0322180025F0F8FDF4E7EF
:103B8000004870BDA4EA020070B50D000400FFF704
:103B9000C1FF2900201D012225F0E9FD004870BD6C
:103BA000A4EA020070B50D000400FFF7B3FF29007E
:103BB000201D022225F0DBFD004870BDA4EA0200B2
:103BC00010B50400FFF7A6FF201D25F05CFE01489C
:103BD00010BDC046A4EA020010B5012220F028FE64
:103BE000004810BDA4EA020070B504000D00FFF704
:103BF00091FF201D0222290025F0B9FD002804D1E3
:103C0000034825F08DFE11F0F0F9024870BDC04662
:103C1000081E0300A4EA020010B50400FFF77AFFB3
:103C2000201D25F012FE002805D10349034825F088
:103C300084FE11F0DAF910BDB1400300081E030044
:103C4000F8B50E0001280AD0002802D002280AD0B8
:103C500028E08B681448002B25D1144823E08B689A
:103C60005B0018431FE0032500200D4085421AD158
:103C70000F4B0C6828009C4215D14F68AF420DD005
:103C8000F268AB009958002906D0042904D002201C
:103C900001F036F8401024180135EFE701206400E8
:103CA000204300E00020F8BDE8C802002CC9020053
:103CB00078D40200F7B507001020019123F001FB32
:103CC00005000A4B060008C53900280025F045FD0F
:103CD0000024BC4208D00199A3000122C958280041
:103CE00025F045FD0134F4E73000FEBDB0D50200FB
:103CF000F7B505000E00171E05D0FFF70BFF1A4C95
:103D0000B54209D12EE0FFF7D7FEB54204D1280015
:103D100020F066FD040025E000210800FFF7CAFF3F
:103D20000400300001F050F90190019801F09CF975
:103D3000061E0BD0281D0022310025F018FD00289A
:103D4000F3D031002000FFF71FFFEEE7002F09D06E
:103D5000E86823F0DDFA63686B60A368AB60E36832
:103D6000014CEB602000FEBDA4EA0200F0B585B076
:103D700004000390029101920027FFF7F3FDB8427F
:103D800007D13A0003AB0121204820F0ACFD04002C
:103D90000137029D00262800FFF7E4FDB04207D15D
:103DA000320002AB0121194820F09DFD05000136CB
:103DB000019B002B05D0A368AA68934201D1002380
:103DC00011E02000FFF7F2FD0190019820F066FD60
:103DD000011E07D02B1D0022180025F0C8FC00286A
:103DE000F3D1ECE701230193002F02D02000FFF76D
:103DF000E7FE002E02D02800FFF7E2FE019B0448F8
:103E0000002B00D1034805B0F0BDC046B0D502007C
:103E1000E8C802002CC9020037B50C00150000915B
:103E200001921F284ED815F0E1FD10151A4D4D4D89
:103E30001F4D4D4D4D4D4D10151A4D4D4D1F4D4DB6
:103E40004D4D4D24282D393E4D431100200020F0CA
:103E5000D1FC38E01100200020F0DAFC33E0110042
:103E6000200020F035FD2EE06946022020F011FDF3
:103E700029E001222900200001E001222800FFF7AB
:103E800075FF20E00800FFF717FE2800FFF76AFD26
:103E9000002815D0A368AA68934211D129002000F8
:103EA00020F052FD0FE01100200020F045FD0AE057
:103EB000081D0022290025F05AFC031E024802D1E9
:103EC000024800E000203EBDE8C802002CC9020004
:103ED000F0B50E00002485B0110007000393220006
:103EE0000C4B3000009400F0E7FBB01C800023F086
:103EF000E8F9050007604660B44208D0039BA700BC
:103F0000D85901F061F8EF19B8600134F4E72800DE
:103F100005B0F0BDFFFF0000052370B50400094A9D
:103F2000094D1068434309481B199B0018582B681A
:103F30001460C0180F231940090128600BF036FAED
:103F400070BDC046302700202C27002028D6020054
:103F5000A839030000B5080006292ED815F046FD43
:103F6000040A10151B2027009A18E223DB00D21840
:103F7000107826E0C4329200D05C8006800E20E0EB
:103F8000C4329200D05AC00403E0C4329200D05828
:103F90000003400E15E0C43292009A1890780AE0AF
:103FA000C43292009A18D0780007000F09E0C4329A
:103FB00092009A18D078000903E00020014A024BD1
:103FC0001A6000BD9947030020000020A83910B5F1
:103FD00004000800062946D815F008FD040A131E3F
:103FE00029333B00E221A218C900521813703DE0AA
:103FF0003F20C4329200115D034081430B431355AF
:1040000034E07F21C43292000B409901105B184BC1
:1040100003400B43135329E07F21C43292000B402D
:10402000105914495B0301400B4313511EE00F214B
:10403000C4329200A21890781B0101400B43937088
:1040400014E00F20C4329200A218D17803408143BB
:1040500006E00F21C4329200A218D0781B01014063
:104060000B43D37002E0044A044B1A6010BDC046F3
:104070003FE0FFFFFF1FF0FFA447030020000020E8
:10408000F0B5D2B285B00F000393072113000B40A7
:10409000013BDBB2042B02D92C4D2D4C25608A4309
:1040A00019020191002A08D12A4BC55C2D09ED4364
:1040B000EBB23D7800932C0022E0D4432649E4B2D1
:1040C000CF5C0825254B019A1B199B5C7F225E0063
:1040D000F6B2934304D005210220FFF71DFF05E04F
:1040E00039000120FFF718FF002FF4D0013DEDB299
:1040F0003300002DEAD10134E4B2002CE1D121E0FB
:104100000826164B019A1B199B5C5A00D2B20292E8
:104110007F22934302D01A21032001E006210420CC
:10412000013EF6B2FFF7F8FE029B002EEDD1009B98
:104130000134E4B25B1B1B19DBB2002BE0D1009B06
:10414000ED1A3D70039805B0F0BDC046B0470300BE
:104150002000002019070000B84B0300C7400300EF
:104160000022F0B505000F24FF208BB008AB654E90
:104170000191DA710300C4339B00EB189A7811099E
:10418000715C224009010A439A70DA781107090F1D
:10419000775CA24327403A431109715C2240090130
:1041A0000A43DA700138E5D2E223DB00EE5CB308A3
:1041B000F31ADBB20693544B1B68002B0BD0E222A0
:1041C000C4218120D20089000001019BAA1869182E
:1041D00028180AF057FF002448232700049303946B
:1041E000029481222B1912019B181B781800059349
:1041F000072398430BD008A92300059A073128000C
:10420000FFF73EFF019B0230C4B2023B37E03F4B59
:10421000029A9C469B5C19002300C4339B00EB1858
:104220009A7812090A433A498A5C039907926246CE
:10423000DB78525C1907090F0A4335491B098A5C70
:104240003449C95D0B4307998A183149C95C012378
:104250008918FF2A00DC031CC918882309061B06DD
:10426000C918090F0020FFF757FE049B013BDBB282
:104270000493002B0AD1019B0134E4B2013BDBB271
:104280000193019B002B3BD02B780493013EF6B2A7
:10429000002E0CD1E22200272B19D2009B181E7889
:1042A0000397B308F31ADBB20693029799E7069BCC
:1042B000013BDBB20693002B02D1059B002B16D1EC
:1042C0002200C4329200535D02999B069B0ECB18CC
:1042D000DBB20293535B0399DB045B0ECB18DBB2BA
:1042E000039353591B035B0EFB18DFB279E708A950
:1042F0002300059A07312800FFF7C2FE0400C9E732
:104300000BB0F0BD1349030040270020F44B03001D
:104310001348030074490300064B1B5C002B05D0B7
:10432000054B185C4843C011C0B201E0034B185C58
:104330007047C046144B0300BD4B0300C745030044
:10434000064B1B5C002B05D0054B185C4843C01185
:10435000C0B201E0034B185C7047C046144B030029
:10436000B7460300684B0300F0B5037A8DB0040034
:104370007F2B00D157E10300070000250933FF33ED
:104380000837099301953E787F2E03D100230593CA
:1043900001939DE0012E03D12B00019A310004E02E
:1043A000022E05D12B00FF21019A200020F0F2FA05
:1043B0009E4ABB78A178D3185B7830000193FB78D4
:1043C0000293FFF7A9FF3F23E178034030000393F6
:1043D000FFF7B6FF7F22964B9B5D1A40954B0492E8
:1043E0009A5D0F231A400592934A925D1A400692F5
:1043F000924A925D1A4007923F22914B9B5D08932F
:104400007B78EB18DBB20A93039B134003937F2363
:10441000184083019C462A003F21C4329200135D5C
:104420008B4303990B431355115B864B0B4061463D
:104430000B431353049B10595903834B18400B0033
:1044400003430F2005991E0C064009011351314307
:10445000A2181B0E069E91708343079933430901EE
:1044600018400843D070694620208122091863193A
:10447000097812019A181170E222D2009B18029951
:10448000019A013552181A700A9BEDB29D42C2D1B1
:10449000099B04379F4200D075E777E76B49CE5CF4
:1044A0008D5C6B49AE421CD18D5CCB5C0493039B4D
:1044B000597A019B5918CBB20193049BEB18DBB2DC
:1044C0000793023B1B0614D5059B0133DBB2059312
:1044D000059B9B00E31803931A7A1B7B7F2BDDD18E
:1044E0007FE05C48AE4201D9C55CDEE78D5C835C51
:1044F000DCE7A826019B5D1BEBB20693A82E18D122
:10450000039B31005F7A5A7B7F085208BB180293E5
:10451000019B20009A18D2B2DF1BFFF719FDFFB2F2
:1045200005003A0031002000FFF712FD2D1AEDB210
:1045300011E0049B019A31009A18D2B22000FFF7D3
:1045400007FD069A050031002000FFF701FD079BDB
:104550002D1AEDB202937F222B006DB29343089384
:10456000EB17E8185840029915F0CEFB2800CBB2A3
:104570000299099315F0E2FA0025C3B20A93069F47
:10458000029BDB19DBB20B933A0031002000FFF7EE
:10459000DFFC0A9B01370B9A1818FFB2C3B297428F
:1045A0001AD0099AAD18029AEDB2AA420ED8AD1AE5
:1045B00020216A4652181278EDB252B2002A03DB6B
:1045C000002B03D0013300E0013BDBB23A003100A5
:1045D0002000FFF7FBFCD7E70136F6B2AF2E8DD1F6
:1045E00072E7059B02339B00E3185978019B591829
:1045F0006368C9B2002B03D02000FFF7B1FD12E0C1
:10460000E2228025D200A0186D001A00C432920068
:10461000125D06789206D20EB21A01330270013092
:10462000AB42F2D1E8E70DB0F0BDC046EE46030064
:1046300017460300744A0300C3470300674603009C
:10464000244903003FE0FFFFFF1FF0FFF94603008E
:1046500049470300C44A03009F230021024A5B002C
:104660000248D1527047C046882E0020A4EA0200BA
:104670009F230121024A5B000248D1527047C04685
:10468000882E0020A4EA02009F23044A5B00D35A2C
:104690000348002B00D103487047C046882E0020F5
:1046A000E8C802002CC9020010B5FDF709F801485E
:1046B00010BDC046A4EA020010B51C0002AB1B7876
:1046C000002906D0002B04D10F49104825F035F9F8
:1046D00008E0A24208D1824214D003000C490B48E2
:1046E0000FF066FB10F081FC824205D9121A0949CD
:1046F00006480FF05DFBF5E7844203D20300220079
:104700000549ECE710BDC046F44C0300181D03003A
:10471000B03C03001D4D03004F4D0300F0B50025D4
:10472000170087B00C9C0D9E039004910593029591
:104730000195059B9D423BD0039B9D4209D2636836
:104740009B0539D4019B049A01330193AB00D058E7
:1047500019E023680022D9000623380019430EF01F
:10476000BDFE00280BD16368DB0505D52268194919
:1047700019480FF01DFB23E0A368336014E0029B8F
:10478000406801330293FF2263681340012B03D179
:1047900002F0E4F9307007E0022B02D102F09EF83B
:1047A00001E0032B00D1306001350C340436C0E742
:1047B000019B039A934205D20849074825F0BDF8AA
:1047C00010F013FC3B68029ADB0805499A42F4D3C7
:1047D00007B0F0BD7E4D0300181D0300954D03008A
:1047E000B64D03000F221140030010B50800032945
:1047F0000ED815F0FBF80204090D18000BE006486E
:10480000002B08D1054806E0180022F0E2FB02E088
:10481000180022F0F9FB10BDE8C802002CC9020004
:10482000F8B503780400002B00D196E0402B01D1AD
:10483000012026E04A4920F027F90028F8D149490B
:10484000200020F021F90028F2D14749200020F073
:104850001BF90028ECD14549200020F015F900286B
:10486000E6D14349200020F00FF90028E0D141496A
:10487000200020F009F90028DAD13F49200020F07B
:1048800003F9002319001D001E002278002A52D0CF
:10489000272A10D1002B01D0032B08D16278272AB8
:1048A00005D1A278272A02D10234243A17E0012246
:1048B000012B3ED813E0222A13D11A000427BA4351
:1048C0000AD16278222A05D1A278222A02D10234A2
:1048D0003A0004E0002B01D0022B2AD10222D31A85
:1048E00027E05C2A09D16778272F01D0222F04D135
:1048F0001A00571EBA41A4181BE0002B19D15B2ADD
:1049000012D006D8282A0DD0293A57425741F61B13
:104910000FE07B2A0AD07D2A0AD05D3A57425741E0
:10492000ED1B06E0013604E0013502E0013100E054
:1049300001390134A9E70132002E0FDC002D0DDC16
:1049400000290BDC033B934208D9013C23785C2B04
:1049500004D0002801D00A2B00D100221000F8BD9D
:10496000D4940300D44D0300DA4D0300DE4D030060
:104970009D680300B1C103006C3C0300F0B5050065
:104980008BB04618049207930296029B5C1EA542C8
:1049900011D8207801F0DEF8002801D00294F4E765
:1049A000207801F0E3F80028F8D123785F2BF5D0C8
:1049B0002E2BF3D000E00295744B1D68029CB4428C
:1049C0000BD3029BE31A0193B44201D2002711E0FA
:1049D000002426002700039448E023782E2BF0D0F3
:1049E0000134ECE7FB000393EB68FA0098580028C9
:1049F00004D10137AB689F42F4D315E00428F8D006
:104A000009A902F0EFFE019B099A01009342F0D13F
:104A10001A00029827F00AFD0028EAD1EB68039AF1
:104A20009B185868002801D10020ADE003231842EC
:104A30000AD10368564A934203D123F02FFD0500A3
:104A40000BE0544A934201D001F05EFE856B002DCD
:104A5000EAD0514B2A689A42E6D1631C0293ADE733
:104A6000EA68E3009858002804D10134AB689C42FE
:104A7000F6D329E00428F8D009A902F0B3FE099B77
:104A800005900693069A019B9342EED801001A0006
:104A9000029827F0CBFC0028E7D1019B002F0BD018
:104AA0009E420DD3069A93420AD8059AF95CD25CCD
:104AB000914204D10133F3E7069E059F00E01E00FA
:104AC000039B01330393D0E7039B002BACD0012B56
:104AD00006D0019B9E4203D80023402603930FE09B
:104AE000019B079AFB181360019BF01A4CE0039B93
:104AF000EA68DB009858002807D1039B0133039331
:104B0000039BAA689342F2D338E00428F5D009A9A0
:104B100002F068FE099F019B0590BB42EDD80100A1
:104B20001A00029827F082FC0028E6D133000F22F9
:104B30000F33DC171440E41824112401A41B012CAA
:104B400000DC10343319DF19402F10D80027BC4285
:104B500005DD1249049822F001F90137F7E70599BC
:104B6000049822F0FBF8099BF6183619C5E7059A58
:104B70000B49049822F0C3F9099EBEE7094904983D
:104B800022F0ECF8012040420BB0F0BD882E00204E
:104B900048EF0200FCCD0200E41103002590030061
:104BA000E24D0300268E030070B509F00DFA0B4CA0
:104BB00000262300A0331E60266309F07BF9084D10
:104BC000012128000EF088FB28005E226E2124F0CF
:104BD0007BFD65602560666470BDC046882E002040
:104BE000BC2E002070B50624134EC3001C4373680E
:104BF000002205002100181D0EF070FC021E18D1C5
:104C0000706C002807D0043021000EF067FC0028EB
:104C100001D040680EE00022210008480EF05EFC42
:104C2000021E06D12A00064906480FF0C1F810F00E
:104C3000DCF9506870BDC046882E00206022030059
:104C4000E64D0300141A03000A4B10B5040018685F
:104C50005B6898420AD00621E30019430430002221
:104C60000EF03CFC002801D0406802E02000FFF775
:104C7000B9FF10BD882E0020074B10B5586C0028D6
:104C800001D1064807E00430002226210EF026FC60
:104C90000028F6D0406810BD882E0020A82203000E
:104CA0000A00062110B5034BC0000143186824F028
:104CB0000BFD10BD882E0020062110B5034BC0004F
:104CC0000143186824F00AFD10BDC046882E00205C
:104CD0000A00062110B5034BC0000143586824F0B8
:104CE000F3FC10BD882E0020062110B5034BC00038
:104CF0000143586824F0F2FC10BDC046882E002005
:104D000070B505000C00062806D1080001F026FF4A
:104D100000284CD028484DE00123194217D04810F4
:104D2000042D06D0052D0FD0002D42D10028F1D042
:104D30003DE0C0221206904204D18020C00522F03E
:104D400048F937E0404200E0C043400013E0022849
:104D500013D11A4B0B40062B08D08B070DD10A68D4
:104D6000174B92699A4208D1486802E0C80823F0BC
:104D7000C7FB0123400018431CE0200001F0C4FCE5
:104D80004369002B0DD10F4BAD002000ED5820F0F2
:104D900083F82A0003000C490C480FF009F810F0C2
:104DA00024F9210028009847002803D1EBE70848A0
:104DB00000E0080070BDC0462CC90200070080FF5B
:104DC000C97D000080CF0200FF4D0300181D0300C5
:104DD000E8C80200F7B50400019116001F0001F0B9
:104DE00093FC0569002D09D1200020F055F80649F3
:104DF000020006480EF0DCFF10F0F7F83B0032002E
:104E000001992000A847FEBD873B0300181D030041
:104E1000F8B504000D0017001E0000290BD018681B
:104E200001F072FC6368984205D00649064824F0F8
:104E300084FD10F0DAF833003A002900A068FFF78B
:104E4000C9FFF8BD1D4E0300181D0300F8B506008C
:104E50000F0014001D00930714D11368174A9342E2
:104E600002D163682B6028E0154A934207D10028DD
:104E700002D001F049FC0700636888C51DE0114AB3
:104E8000934201D12C6018E05B681A00F23A012AC3
:104E900001D9F02BF6D1002E0ED1200001F034FC08
:104EA000094B984208D10C2022F00BFA074B4760BF
:104EB00003608460286000E050C5F8BD38CF020070
:104EC000FCCE0200FCCD0200F8FC020054D7020028
:104ED000F8B500231360536006000C00150001F0C4
:104EE00013FC0700102C05D1836A002B02D00F4B56
:104EF00048C519E0FB69002B04D02A0021003000CE
:104F0000984711E0B86B00280ED00621E400214339
:104F100004301A000EF0E2FA002805D042682B0097
:104F200039003000FFF792FFF8BDC046842203002D
:104F300070B5160004000D00FFF7CAFF3368002BA0
:104F400015D10B4EA30707D10A4B22689A4203D111
:104F50002B006268084905E020001FF09DFF2B0030
:104F60000200064930000EF023FF10F03EF870BD3D
:104F70004C1B0300FCCD0200354E03005C4E0300C9
:104F800073B504000D00160001F0BEFBC369002BD1
:104F900009D004220196009229006A462000984711
:104FA000009B002B0AD020001FF076FF2B00020090
:104FB000034904480EF0FCFE10F017F873BDC0461C
:104FC0005C4E03004C1B030013B5040001F09CFB76
:104FD000436A002B0BD16A461A212000FFF778FFA5
:104FE000009B002B08D068460CF05CFC0EE0200013
:104FF000984700280AD1EEE720001FF04DFF044932
:10500000020004480EF0D4FE0FF0EFFF16BDC046BC
:105010007E4E0300181D030037B5040001F074FB39
:10502000856A002D02D02000A84717E06A461021AB
:105030002000FFF74DFF009B002B05D06A4629009A
:1050400028001FF051FD09E020001FF025FF044952
:10505000020004480EF0ACFE0FF0C7FF3EBDC04694
:105060009A4E0300181D030030B505008FB00AF0FA
:105070001FFD280001F048FB846A002C02D02800A4
:10508000A0472AE06A4610212800FFF721FF009B75
:10509000002B18D002A80FF08DFF002808D16A4617
:1050A00001001FF021FD04000FF09AFF200014E022
:1050B000039B0B491868FDF761F903002000002BE2
:1050C0000BD1039807E028001FF0E6FE0549020017
:1050D00005480EF06DFE0FF088FF0FB030BDC046E2
:1050E000D41A03009A4E0300181D0300F0B585B0D2
:1050F00002900E001700202803D1914212D0B5482B
:105100009FE1029B1B2B01D01E2B0DD139003000DB
:1051100001F092FB029B002802D01B2BEFD101E093
:105120001B2BECD0AC488CE1029B212B28D110002A
:105130000EF086FE002806D03900300024F007FC6F
:105140000028EFD1DBE703243C4000D057E1A34B1C
:105150003A689A4200D052E17B689C42CFD2A300C9
:10516000FB189D6828000EF06BFE002800D145E179
:105170002900300024F0EBFB0028D3D10134EBE709
:105180000123194200D1EBE04D101A4200D1DFE0BB
:10519000029B54101D2B00D931E1180014F03AFC89
:1051A0001E0020002300260038003F00410043007D
:1051B0004E0056006B007400A4001E002000230067
:1051C000260038003F00410043004E0056006B00AF
:1051D0007400BD00C1002F01C500C900254300E0D7
:1051E00065402E00A9E02C402600A6E0002C02DA43
:1051F0007B497C4818E11F2C70DC7B4B23419D428E
:105200006CDCC0231B0623419D4267DBA540E8E719
:10521000002CEDDB1F2C00DD1F242541E1E72E19BA
:105220008BE02E1B89E02100280004F085FE002879
:1052300054D101206C436400204302E1002C00D1D2
:10524000F0E02100280021F028FD1BE0002C00D117
:10525000E8E0280015F02CFD051C200015F028FDC5
:10526000011C281C15F086F80323022598435F4B88
:105270002843C018E5E0002C00D1D3E0210028002D
:1052800021F0FBFC060058E0002C02DB0395012610
:1052900018E0280015F00CFD032302269843534B19
:1052A0000643F6188BE001231C420ED1012C44D09A
:1052B00003996410080004F03FFE00280ED1039B00
:1052C0005B430393002CEED137E00399300004F0E8
:1052D00033FE002802D1039B5E43E7E7E91728006D
:1052E00021F068FE06006AE0002C00D19AE000215F
:1052F000022003F073FE21000600280021F0CDFCFF
:10530000012740003843B0602100280021F0B5FC9F
:10531000B8403843F060300093E0A54200DBEEE691
:1053200000E7A54200DCEAE6FCE6A54200DDE6E691
:10533000F8E6A54200DAE2E6F4E6320073005A40ED
:1053400002D4012018437CE0300021F042FE78E0D6
:1053500003231340022B03D1254B1340062B66D1A8
:10536000029B1F2B2BD1380001F0CEF98369050079
:10537000002B07D16B6A002B17D03800FFF724FEF3
:1053800004000CE03200390002989847002858D1F8
:10539000F0E7310001F050FA002800D0C2E620000A
:1053A000FFF762FE0028F4D1A9E638001FF074FD73
:1053B0001049020010480EF0FBFC0FF016FE300002
:1053C00001F0A2F98369002B19D03A00310002984C
:1053D000984734E02CC90200E8C80200B4DF02009C
:1053E000B94E030028180300FFFFFF3F0000808034
:1053F000070080FF7E4E0300181D03002F00029B54
:1054000030009A00104BD4581FF046FD05003800BC
:105410001FF042FD2B00009022000C490C480EF0BA
:10542000C7FCCAE70B490C4824F087FAC5E72800F7
:1054300015F03EFC3A00011C02980DF073F90028AB
:10544000DDD005B0F0BDC04638CE0200CE4E030020
:10545000181D0300F34E0300841C0300F0B513680D
:105460008DB00693002803D1131D0393040003E0BD
:105470001300546808330393FF220B00090A1340FA
:10548000114001934B000593059A019B04919B18D1
:10549000039A9B00D558D3185F68381E09D00020A6
:1054A000BB0706D17F4B3A689A4202D1380024F0FC
:1054B00008F9049B1E18002D16D1019B76000133BC
:1054C000F3189800009321F0FCFE25000600002C44
:1054D00001D001250460019BA8009A0030180399AF
:1054E00026F07BFE019B30E0AB0731D12B686E4A82
:1054F000934202D06D4A93422AD128000AAA09A9F0
:1055000001F08EFA099B019A01339B1876009B19D2
:105510009800009321F0D5FE25000600002C01D054
:1055200001250460019BA8009A000399301826F019
:1055300054FE019B0A995819099B80009A00301863
:1055400026F04BFE019B099A9B185B19029338E0E9
:10555000019B7600181D33189800009321F0B1FECE
:1055600002940600002C02D0012304600293029BE7
:1055700003999800019B30189A0026F02EFE019A9C
:10558000029B9446280063440293FFF71DFD029B93
:1055900007909C000798FFF767FD051E11D0009B40
:1055A000029A934207D8D900300021F0A0FE0600ED
:1055B000009B5B000093029B35510133029304343E
:1055C000E8E7029B9800049B3018DA00019B9900E1
:1055D000039B591826F001FE029A059B94466344EA
:1055E0001C00002F4FD003253D401AD12D4B3A68A7
:1055F0009A4216D1380024F07AF841688D4242D0A0
:105600008368EA009F58002F09D0042F07D0A30019
:10561000F7508768F318BA18526802345A60013597
:10562000ECE70AAAC5213800FFF782FC00210AAA8C
:1056300008001FF059FAFFF7C7FCA5000190019878
:10564000FFF712FD071E1ED0009A631C9A420BD86A
:1056500053000093032B01D804230093009B3000D8
:10566000990021F044FE060009AA0221380001F049
:10567000F9F9099B02341B687351099B5A68731925
:105680005A600835DBE7029B0299E21A52083300A0
:105690000698FFF79FFB0400300021F039FE200040
:1056A0000DB0F0BDE4110300B4DF02001C040300E0
:1056B00073B50C00150083071DD10368214A93427E
:1056C00007D0214A934216D101AA694623F0D6FD9C
:1056D00003E001AA694620F083FB009B9C4225D889
:1056E00027D3019BA4001C19043B043C9C4227D0F7
:1056F000226804C5F9E7FFF767FC00230600009362
:10570000009B3000A3420CD2FFF7AEFC00280DD066
:10571000009A0E49A31A5B189B000132585100925F
:10572000EEE7FFF7A1FC00280AD002E0009A084942
:1057300001E02200074908480EF03AFB0FF055FC43
:1057400073BDC046B4DF02001C040300FFFFFF3F2F
:10575000044F0300274F0300281803000B0AF0B57D
:1057600014000E00FF221D0085B016400193154065
:1057700083073CD107683E4B9F4203D03D4B9F427D
:1057800035D104E003AA02A920F02AFB09E00B0AA4
:105790000B43134201D1206068E003AA02A923F061
:1057A0006DFD029B72199A4259D89A0094460020C6
:1057B00003998200A84206D06746BF1A043FCF591A
:1057C0000130A750F5E79B1BB5004919181AA4181A
:1057D00023F03DFD039B20605D190023013601335A
:1057E0009E4243D09A0051426958A150F7E7FFF713
:1057F000EBFB002307000293029B9E420CD938006A
:10580000FFF732FC00282AD0029AB31A5B199B00DA
:10581000013218510292EFE70021080023F017FD32
:1058200006003800FFF720FC011E03D030000BF00B
:10583000EBF8F6E7B1688D4211D8AB00E3181E60B3
:1058400088009C4206D0F268C71AA218D259043BBD
:105850001A60F6E7491B300023F015FD06E0029AB6
:10586000054906480EF0A4FA0FF0BFFB05B0F0BDE5
:10587000B4DF02001C040300044F030028180300D7
:10588000F0B587B01D0006000C00019200F03CFF4F
:105890002E4B984206D12B00019A2100300003F0D4
:1058A0004FFE51E0876A2A4B002F07D09C4221D13E
:1058B0003000B8472860002816D145E09C4219D135
:1058C00003AA10213000FFF703FB039B002B0DD12F
:1058D00003AACD213000FFF72BFB059403AA00217A
:1058E00001201FF001F9286001202DE003AA3900F2
:1058F0003800F6E7002CEBD1019B2000002B23D0D1
:10590000180000F001FF1349FCF738FD00280FD004
:1059100003AACC213000FFF7DBFA039B002B07D052
:1059200003AA210020001FF0DFF8286020000BE010
:1059300003AACE213000FFF7CBFA039B01AA002B6C
:10594000CDD10220019B2B6007B0F0BDA4E0020086
:10595000A4EA0200CC1D030010B504000EF070FA9A
:10596000002806D0002320001A001900FFF732FAA1
:105970000AE0200023F0E5FF03002000002B03D104
:105980000249034823F0D9FF10BDC0464F4F030022
:10599000181D03007FB50623C0001843054B019076
:1059A0000491052001A90293039305920AF076FE63
:1059B00007B000BDA4EA02001423F0B58DB000AF1B
:1059C000FA1805000C00FFF783FABB69002B06D01C
:1059D00022002C492C480EF0EBF90FF006FB7869F9
:1059E00000284BD1280023F075FB0028F0D01423A9
:1059F0002800FA180D21FFF76BFA10237869F918BF
:105A000001F0F0FEB860200022F07FFD6A463E699A
:105A1000B968731C7B60C318FB600E33DB08DB00C6
:105A2000D31A9D463200684626F0D7FB6D462E23DA
:105A3000AB557B682000EB18BB6022F06BFD0600C5
:105A4000200022F062FD31000200B86826F0C5FB9C
:105A5000F968684608F0F6FA0623C00018430B4BB5
:105A600010223B627B620A4BBA18BB620123FB62C5
:105A70000B33F861D11805200AF010FEBD460DB0B9
:105A8000F0BDC046794F0300D01B0300A4EA02001A
:105A9000E8C80200F0B5174C0F00616895B003919B
:105AA0002168060008A80491626023600FF082FA62
:105AB000051E06D0039B09986360049B23600FF0CA
:105AC00094FA33683A00310005A80193FDF74CF8C9
:105AD0002B002A00019905A807F0B2FC1EF0F5FF83
