:020000040000FA
:1000000000400020315C01006D5C01006F5C01006C
:1000100000000000000000000000000000000000E0
:10002000000000000000000000000000715C010002
:100030000000000000000000735C0100755C01001E
:10004000775C010019870000A5600100775C010062
:10005000775C010000000000B5980100775C0100AA
:1000600075070000775C0100BD9A0100775C010014
:10007000775C0100775C0100775C0100775C010030
:10008000775C010001660100775C0100775C01008C
:10009000775C0100F9960100D5960100BD080000CB
:1000A000CD080000775C01000000000000000000A7
:1000B0000000000000000000000000000000000040
:1000C00010B5064C2378002B07D1054B002B02D02E
:1000D000044800E000BF0123237010BD1001002080
:1000E00000000000ECC9030008B5084B002B03D04A
:1000F0000748084900E000BF07480368002B00D10B
:1001000008BD064B002BFBD09847F9E70000000024
:10011000ECC90300140100201001002000000000C1
:10012000164B002B00D1144B9D46402292029A1A86
:10013000924600218B460F461348144A121A2CF09F
:10014000E4FA0F4B002B00D098470E4B002B00D049
:1001500098470020002104000D000D48002802D01F
:100160000C4800E000BF22F0A7F92000290029F088
:1001700033FF21F001FFC0460000080000400020CE
:10018000000000000000000010010020F42F0020FB
:10019000000000000000000038B5051C0C200C1CFD
:1001A00025F01CFC024B45600360846038BDC046EE
:1001B000B0CE0200F0B50E1C496885B0041C151CB9
:1001C000002901D0002A04D1201C311C23F0C2FFD9
:1001D00058E00F3213095918009323F02BFF0F2218
:1001E000A368B16870682A4000D11032009D264F84
:1001F0002D18EF197F00DB190393234B0190C318CF
:100200005B00CB189C46039B0293002301991027A7
:10021000002913D061460988BF1A0B43191CF94005
:100220000F1C02991B040F80019901390191029959
:1002300002390291022149428C44E7E7BF1AFB4090
:1002400003994000081A104903808C46009B0199CD
:100250005F00C71B023763445A00381C2CF055FA64
:10026000002D06D06B00023BFB5A002B01D1013D53
:10027000F6E70121656033780B401A1C23788B4325
:100280001343237005B0F0BDFFFFFF7FF0B54B684F
:10029000151C526887B0061C0C1C934201D22C1C02
:1002A0000D1C0123227861681A4201D12A7813407B
:1002B0005918301C23F0BEFEB36829789C46A36809
:1002C0000F1C0193636820780093AB68474002934A
:1002D0006B68059301231A1C1F408B430493009BFA
:1002E0008243591E6346101C03934B1C27D0019B6D
:1002F0001F4A1B889B181818009A059B9B1A5B18AD
:100300008B4207D8029B1A4A1B889B18029A02321A
:10031000029200E0164B049A0139D3181A1C42408D
:1003200092B2D719039A1B0C0493131C0233039344
:10033000019B17800233000C3F0C0193D5E7009B13
:1003400059006144002F02D001230B800231604626
:1003500023F05BFE0121706022782B7853400B4024
:100360001A1C33788B431343337007B0F0BDC0467B
:10037000FFFF0000F0B55C6891B0002C02D1446032
:100380004C6049E1051C0B9353680E1C591C0692E6
:10039000019323F04FFE069B00215B68A8685A1C5E
:1003A000520001932CF0B1F900236B60069B301CC6
:1003B0005B68591C019323F03DFE301C069923F025
:1003C000C9FEB368776802930B9B9B6803930B9BF2
:1003D0005B680593AB680893059B9F420ED310D8CA
:1003E0000298391C039A23F06BFE002804D10123E4
:1003F000089A7060138002E0002802DA00236B6024
:10040000FFE00021059B854A9A18039B52009B1828
:1004100004931B88019119B2002905DB01995B0047
:1004200001319BB289B2F5E7931C0C930C9A039BA4
:100430009B1800229C46039B63450BD219880198A8
:100440000C1C844022431A801022121A11410233DC
:100450008AB2F1E700227C00029BA01C1A531B18F1
:1004600001370993029B77600792099A93420FD252
:100470001988019A081C9040021C0798104310220A
:10048000188001980233121A11418AB20792ECE7E0
:10049000049B1B880F93029B1C19059BFF1A5F4B43
:1004A0006F60FF18089B7F00DB1909937368059A3A
:1004B0000A93934260D9A31E20880E931B880004E0
:1004C00018430F9919F04AFB0C9B0022E31A191CE0
:1004D000039F07900D93A1421AD207983B8843438C
:1004E00008888446834202D2C01A90420AD86046E5
:1004F0001B1A9A1853420B80130C92B2501E824161
:10050000D21802E0821A0A80002202310237E2E7A2
:1005100023889A4208D3D31A5A42190C9BB22280DC
:100520005A1E93415A180BE09A1A2280002207E0C3
:100530002388C018079B2080013B000C121A0793E8
:10054000002A0ED00020039F0D99A142F0D20B8803
:100550009C463B880237634418180880000C02311F
:10056000F3E76A46099B928B023B5A8009930A9BE8
:100570000E9C013B736099E70023049A03998A4219
:100580000FD3049A01981288111C01410B4304995E
:100590000B8010231B1A9A4093B2049A023A0492D9
:1005A000EBE71E4A0A9B9446029A63445B00D31809
:1005B000002202998B4214D31988019C081C204107
:1005C00002431A801022121B9140023B8AB2F0E7CC
:1005D000124A08999A185200525A002A0ED1013B29
:1005E0006B606B68002BF3D108E00C4A02999A18F3
:1005F0005200525A002A04D1013B73607368002BE9
:10060000F3D101210B9B1A78069B1B785A400A42B2
:1006100002D02B780B432B7011B0F0BDFFFFFF7F92
:10062000436830B55A0000238468A218944207D268
:10063000084D023AAB420AD815881B042B43F5E754
:100640000278D20700D55B420B60012000E0002059
:1006500030BDC046FF7F0000F8B58D1E00241E2D62
:1006600016D81F1C40680B4B0001595C151C19F073
:1006700075FA061CA74204D00130032119F06EFA66
:10068000041C281E01D02CF045F903363419241817
:10069000201CF8BD0C3C03008022044B52001A6061
:1006A0000123034A1360034A1360704700E100E02E
:1006B0000C8C0040008000408022054B5200DA671D
:1006C000044BFF3A5A600022034B1A607047C04641
:1006D00004E100E0008000400C8C004038B50125AA
:1006E0001D4B1E4C18601E4BE550C046FFF7E4FF43
:1006F0001C4A1D4BE560E250002302211B4AC22028
:10070000A3500432A15049180832A1508021C122BF
:1007100009039200A150053AFF21FF3AA35040245B
:10072000134B80001A588A43224380241A500C30FD
:100730001A5824061202120A22431A5004301A5878
:100740008A433F390A431A50802212041A608022D9
:1007500052041A6038BDC0462C01002000800040C1
:10076000FC0F0000701700004C050000040500009D
:1007700000E100E038B5224C224D636C002B0AD01A
:1007800000236364204B1B689847A822D200AB5813
:100790000001C018A850A36C1A4D002B0AD00022EB
:1007A000174B9A64184B5B689847184A0001AB587E
:1007B000C018A850E36C134D002B0BD00022104B37
:1007C000DA64114B9B689847A922D200AB5800010C
:1007D000C018A850236D0B49002B0FD00022084BE6
:1007E0000B481A650B4A8B581B188B500A4A136822
:1007F000063313608022094B12045A6038BDC0468C
:10080000FC800040008000400400002044050000FF
:10081000701700004C050000142D0020FCE100E0E2
:10082000F7B50191032824D8134B8000C758C22381
:100830000125124C9B00E75003191D64A825ED000B
:100840005E59B4460E4EA659921B6244D117090F49
:100850008C4662441211013200920A49019A4250B8
:10086000C121009A89001201B618675000205E511C
:1008700001E001204042FEBD28CF02000080004080
:100880004C0500000400002003280BD8074B800013
:10089000C158C223064A9B00D150064A064BC2509B
:1008A000002001E0012040427047C04628CF0200EE
:1008B00000800040534C02000400002008B5024BA9
:1008C0001B68984708BDC0462C01002010B50024C5
:1008D000054AA358002B02D00021A15098470434A8
:1008E000102CF5D110BDC04630010020074A890008
:1008F0008B58002B06D188508021054A490451604D
:10090000181C01E0012040427047C0463001002021
:10091000FCE100E0F0B5051C8BB008680C1C0DF084
:10092000F3FA049004A824F097F90027049B03909D
:100930000693069B1978002912D0081C03F052FF79
:100940000126002807D006A824F098F9069B1B78FA
:10095000732B00D0061C069BBF1901330693E8E7F2
:10096000381C07F005F80122009007A9606812F012
:100970008DFB079B089A05939B1801920293022D09
:100980000AD9A06812F0C2F9002802DA089BC01840
:1009900026D4059B1818059000240DE0291C0CF0A6
:1009A00029FE059B009A5D19A31C9B000595013447
:1009B0009850049B01330493BC4230D2049B1878B6
:1009C00000282CD003F00EFF0125002803D004A836
:1009D00024F054F9051C0598029A43199A4205D24D
:1009E0001049114825F097FB14F017FF049B1B7862
:1009F000732BD3D0009BA6009E190195019B043652
:100A0000002B0AD0049B0398197805AA13F0E8FF7D
:100A1000019B7060013B0193F0E76419C9E70098FE
:100A20000BB0F0BD2D3C030020F40200F0B589B0FE
:100A3000039101921E1C0DF067FA049004A824F0A3
:100A40000BF900250290B5424ED2049B187800287D
:100A50004AD003F0C7FE0124002803D004A824F0E4
:100A60000DF9041C039B019A1B199A4205D21F49D8
:100A70001F4825F050FB14F0D0FE049B1B78732B0D
:100A800004D02D190E9BAF00DF191CE00E9B6F1CCC
:100A9000AD00E85805A9012212F0F8FA069B251EC0
:100AA0009D4200D91D1C2A1C059903982BF010FEAD
:100AB000039B621B581900212BF027FE039B3D1C52
:100AC0001C1903940CE0002C0AD0049B029819789E
:100AD000A3005B42FA5803AB13F0EAFF013CF2E7D4
:100AE000049B01330493AEE709B0F0BD2D3C030035
:100AF00020F40200F0B50E1C89B0039001CE0F1C4B
:100B000024F0D2F84410211C04A828F058FD069DBA
:100B1000221C281C00212BF0F8FD039B00962A19AB
:100B2000013B3868291CFFF781FF04A902480CF03B
:100B300013FD09B0F0BDC0465C12030030B50C1CBB
:100B400089B0051C0222486805A912F09FFAA06826
:100B500012F0DCF8002809DA069B0393C01805D5CB
:100B600009490A4825F0D7FA14F057FE059B069A62
:100B70001918201C0C309A180090EB1E2068FFF703
:100B800055FF034809B030BD2D3C030020F402009E
:100B900054280300064B0139C9B21970411880313D
:100BA0000B78044A1370044AD25C044B1A707047E5
:100BB000F62D0020F72D00206C3C0300F82D0020BE
:100BC000064B0131C9B21970411880310B78044AC3
:100BD0001370044AD25C044B1A707047F62D002043
:100BE000F72D00206C3C0300F82D0020074B9842A5
:100BF00004D9074B18184118064B03E0064B181888
:100C0000064B4118C91808787047C046A4920000E6
:100C1000F23C03005B6DFFFFB13E03000083FFFF6A
:100C2000031C20228033F0B51A70B94B1F3A1A709A
:100C30000023041CB74989B00B70581CE55C7F2366
:100C4000C2B22B406F2B01D95F2302E05F2B01D989
:100C50004F232B40A21880321370C3B27F2BECD1EC
:100C60000B70231C1B22FF331A70E432171C531C19
:100C7000DBB203936B46A6491B7BA74D0B70039B0E
:100C80002E1CE31880331B782B705B2B06D19B2224
:100C90007B1CDBB20B702A70E2542DE02E2B11D19D
:100CA0000232D2B20A70A2188032127899480270C9
:100CB0009A48825CD20705D47A1CD7B22B70E355D0
:100CC000039AD4E7934A1370944AD05C820727D4DE
:100CD000002813D120220B782A70E31880331A7071
:100CE0007B1CDFB20F70782F01D8E255E8E79B2319
:100CF000E3556B461B7B3370012035E27F22904326
:100D0000854A107003D1864A864B1A602CE2413B1B
:100D1000854ADBB28549D25CCB5C1202134300E00A
:100D2000834B0593059B0093009B002101339BB2ED
:100D3000181C0093FFF75AFF0306F5D5009B059397
:100D40000123029300980299FFF750FF029B0133A1
:100D5000DBB22828F5D1029D0135EBB20098191CB1
:100D60000193FFF743FF019D2928F5D10135EBB22F
:100D7000191C00980693FFF739FF7F23069D184042
:100D80003D28F3D16A46644B127B1870604B039E7A
:100D90001A70029B04965D1C5E4BEDB21D70A31988
:100DA00080331B780098291C0793FFF71FFF079BD0
:100DB0009842B7D10135019A731CEDB2DBB295426E
:100DC00002D01E1C0493EAE7514B039D1E706A4635
:100DD000029B0098013BDBB20293127A4D4B0299C1
:100DE0001A70FFF703FF4C4E030600D5A4E07F22E4
:100DF000474B1870494B1B5C9343337009D0444BED
:100E0000013DEDB21D70631980331B788342DED043
:100E100088E73070202812D0232819D02E281FD020
:100E2000262825D0402841D05E2849D02B2852D0F2
:100E30003A285FD03F4A3B4B00201A6094E1201CC7
:100E4000291CFFF7A7FE7F223378934340D069E740
:100E5000201C291CFFF79EFE33785B0638D461E71F
:100E6000201C291CFFF796FE33781B0730D459E766
:100E7000201C291CFFF78EFE10223378134033709C
:100E800026D1234B1B78E11880310978317048292D
:100E900000D047E7013B1E49DBB20B70E3188033FB
:100EA0001B789343432B00D03CE711E0201C291C06
:100EB000FFF770FE042332781340337008D131E716
:100EC000201C291CFFF766FE33789B0600D429E717
:100ED0000F4B1D787BE70E4B013DEDB21D70651980
:100EE00080352B78452BF3D010229343492B00D02B
:100EF00018E7EDE7291C201CFFF74CFE2023064ACB
:100F000011780B40137000D161E7014B1D78F1E7B8
:100F1000F62D0020F72D0020F82D00206C3C03005A
:100F2000583C0300100000203E3C0300D83C030066
:100F3000A5920000623C0300049D019B8B4E01338F
:100F4000DBB201936B461B79069A3370019B934287
:100F500000D1F1E0191C0098FFF748FE7F22844B76
:100F6000844E1870844B1B5C9343337009D0804BC4
:100F70000135EDB21D70631980331B788342DCD0DC
:100F8000D0E6307020286ED0232875D02E287BD054
:100F9000262800D180E0402800D19BE05E2800D1C7
:100FA000A2E02B2800D1AAE03A2800D1B6E02528FB
:100FB00000D03FE76B1C6E4ADBB21370E31880333E
:100FC0001B786C490B70452B37D1A81CC0B2231875
:100FD00080331B78654E3370674EF65CF60900D19E
:100FE0008AE010700B70522B00D185E0532B00D19A
:100FF00082E0442B00D17FE04C2B08D10335EDB2C9
:101000001570651980352B78592B75D08AE6462BDB
:1010100000D087E6EB1CDBB21370E31880331B783B
:101020000B70552B00D07DE60435EDB215706519B7
:1010300080352B784C2B5FD074E6492B00D071E6BD
:10104000AB1CDBB21370E31880331B780B704E2B94
:1010500000D067E60335EDB21570651980352B7841
:10106000472B49D05EE6201C291CFFF7A9FD7F22F3
:101070003378934340D055E6201C291CFFF7A0FD90
:1010800033785B0638D44DE6201C291CFFF798FD09
:1010900033781B0730D445E6201C291CFFF790FD50
:1010A000102233781340337026D1314B1B78E1186E
:1010B000803109783170482900D033E601332C495A
:1010C000DBB20B70E31880331B789343432B00D0C3
:1010D00028E611E0201C291CFFF772FD042332785A
:1010E0001340337008D11DE6201C291CFFF768FD52
:1010F00033789B0600D415E61D4B1D781DE71C4B6D
:101100000135EDB21D70651980352B78452BF3D074
:1011100010229343492B00D004E6EDE7291C201C44
:10112000FFF74EFD2023134A11780B40137000D1B6
:1011300003E70F4B1D78F1E7019D0098291CFFF78D
:1011400055FD7F2303403D2B02D07A1CD7B2E355D7
:101150006A1CD2B2010605D5064A35701370049B8D
:101160000393ADE5151CE8E709B0F0BDF72D0020AD
:10117000F62D0020F82D00206C3C0300F0B58BB05C
:10118000079310AB80CB041C01911B78062A11D861
:10119000012A05D93F230B700B1C0133019301E099
:1011A000002A02D0002301990B7001239342AD4124
:1011B00068423BE2002809DA019B01990133009360
:1011C0002D230B7080231B06C41807E001990091A2
:1011D000002B03D00131009101990B70FF21C9054B
:1011E000081C019B20400993231C88421FD1202307
:1011F000079A00991A40131C64024E22CD1C002C41
:1012000009D100985A404921427046225940534022
:101210000170837007E000991A430A7041214B4026
:1012200000994B708A7000232B70019BD0E1002F36
:1012300000DA0627551E0099019A521AAD1820228D
:10124000079911430291672903D1002F12D1012779
:1012500010E0002B1DD1029B662B0DD17B1CAB42F5
:1012600000DBAF1E6623039300237D1C04930593CC
:101270001E1CE9E0002B0CD17B1DAB4200DBAF1F35
:10128000029B652B00D0CDE003933A3B00250493ED
:10129000CCE0B64A934271D8201CB54918F04EFEF6
:1012A000431E984100262023303005900493039676
:1012B000B04B211CF05818F037FE00280AD0049AD1
:1012C000039B944663440393AB4B201CF15819F0E5
:1012D0004BFA041C049B04365B100493182EE7D1D0
:1012E0002D230493A14B039EA34213D3201CA0499A
:1012F00018F024FE002804D0002E09D12B230493DB
:1013000006E0201C9D4919F02FFA0136041C01E06B
:10131000FE24A405029B662B03D0672B24D1042E48
:1013200022DC6A46009B127D1A70029B672B01D15A
:10133000731EFF187B1CAB4200DBAF1E002F00D1D9
:1013400055E12E23009A3D1C5370131C0233013EBD
:101350000093002E6DD0002D04D03022013D1A7074
:101360000133F4E7049565E06B1FBB4200DD48E103
:10137000029A672A63D0AF1F131C62E00026202365
:10138000039604937C4B211CF05818F0C3FD0028F1
:101390000AD0049A039B944663440393754B201C24
:1013A000F15819F0E1F9041C049B04365B10049316
:1013B000182EE7D1201C7149039E18F0BFFD0028AC
:1013C00005D0201C6E4919F0CFF90136041C029B90
:1013D000662B0AD1AE420BDAF3190133AB421ADBAA
:1013E000AD1BAF1E17D56F1E15E0029B652B05D1F7
:1013F0006B1FBB4200DDEDE0AF1FEBE0029B672BF4
:1014000000D00CE13B1DAB4200DB6F1FBE4200DB96
:10141000E7E0F343FF180023BD1904930135059657
:101420006633DCE00025029B0495039305952E1C92
:101430000AE0049601235B4205936733CFE01F1C4B
:10144000029B002503930595FB43DB171F40039B7D
:10145000652B01D17D1C06E0039B672B03D13D1E4C
:1014600001D101252F1C00230693069BAB4225DAF0
:10147000201C19F029FC009B009A01330893031CDF
:1014800030331370059B069A934207D1002F05D085
:10149000009B009A023308932E23537019F034FCFA
:1014A000011C201C19F092FA344919F05DF9069BD1
:1014B000041C01330693089B0093D6E7029B009D12
:1014C000662B02D1012E62DCA1E0201C2D4918F010
:1014D00035FD00283FD0009B013B1A782E2AFBD017
:1014E000111C3039092902D9013301930AE0392A44
:1014F00003D0013201931A7004E030221A70019A6D
:101500009342E9D1019B1B78302B1CD1019A527870
:101510002E2A0BD10399662908D001994B70049BA0
:101520000A702D2B01D1013E00E00136009D0135EE
:101530002B1C019A934204D95A1E11781970131C5E
:10154000F7E731231370094B9C4204D8039B663B99
:101550005A425341FF1A029B672B18D1002F16DD08
:101560006B1E1A78302A0FD11D1CF9E7FFFF7F3F51
:10157000F8FF7F3FC8CF0200B0CF0200000020413B
:10158000CDCCCC3D0000A0402E2A00D11D1C049BD8
:10159000002B1AD02023079A0A211A40131C452237
:1015A00013432B706B461B7C301C6B7018F066FB72
:1015B0000A2118F049FC3031A970301C0A2118F0BA
:1015C00043FC2C1D3031E970251C00232B70099B36
:1015D000E81A2BE02B230025049305953A33039357
:1015E00032E7672303933C3B002504932BE7009BE2
:1015F00004970133009301235B4205936733039300
:1016000003E0029B03930023059300251FE7201CA2
:10161000074918F093FC002800D05CE7B7E7029B6D
:10162000002503932B230595049310E70BB0F0BD21
:101630000000A040F0B585B000AF7A601D1C7B684B
:10164000C26BCB18061C0C1CFB60934204D02B49C8
:101650002B4805F017FC3BE0FB68994245D09A0007
:10166000131C69460E33DB08DB00CB1A9D46181CA1
:101670000021BB602BF049F80023A200934204D064
:10168000E858B968C8500433F8E7F9687A688C46B6
:1016900062447A60ED1803E06A6802341A60083523
:1016A0007B689C4220D228680BF0AEFF0021021C10
:1016B000F36B3B603B68994206D08B00F018006CDE
:1016C000904207D1013107D10D480E4905F0DAFBF0
:1016D00014F0A3F80131EDE7B968CB1819680029B7
:1016E000DAD007480849F1E7BD68F868291C06F018
:1016F0003FF9BD46066005B0F0BDC0469D4E0300F3
:1017000010F90200D64E0300F74E030038B50C1C4A
:10171000051C0B6805495A6827F0B2FB2168281C94
:101720004031221C0DF0D6FD38BDC0468375030044
:10173000F0B585B00C1C03250BF066FF2540071C97
:10174000002D03D11E4B22689A4205D01D491E4828
:1017500024F0E1FC14F061F8201C02A903AA26F091
:1017600026FE029E039B301C10308000019324F063
:1017700035F9041C291C3C222AF0C7FF134B676073
:101780002360134BE663A360124BE360124B63616B
:10179000124BA361124BE361124B2362124B636243
:1017A000124B6363B54208D0019BAF00D8590BF0D0
:1017B0002BFFE71938640135F4E7201C05B0F0BDB4
:1017C0000C0B0300264F030010F90200D819030088
:1017D0000D17000035160000F1780000B579000003
:1017E000F1170000AD7A00004D790000E0CF020053
:1017F000136870B5002B11D10568EE6BB34213D09E
:101800009C002C19246C8C4201D00133F6E7591C42
:101810000AD002339B001B58136005E003490448BB
:1018200024F079FC13F0F9FF70BDC046344F03007B
:1018300044F70200FF2310B50324DB05CB18A343B4
:10184000021C181CA24213D0042A09D00021002A2D
:101850000ED118F04FFB0749002809D0064907E0D0
:101860008022022012069B18A343044A03439918BE
:10187000081C10BD44F3020088F3020000008080C1
:10188000FF23DB0510B5041CC818032386B098435A
:1018900004330093002302A9019310226733FFF75A
:1018A0006DFC02A9201C27F01FFA02A82E212BF0A4
:1018B00019F800280FD102A865212BF013F8002891
:1018C00009D102A86E212BF00DF8002803D1201CAD
:1018D000024927F009FA06B010BDC046AC6F0300FC
:1018E00030B51D1C002385B00C1C0093081C111C76
:1018F0001A1C013310F05AFF002C21D02868124B1B
:101900000340062B06D0032318420DD10F4A01686D
:10191000914209D103A90CF00DFB00230399009318
:101920001A1C05F009FC0CE00340022B09D011F051
:1019300051FA03239843013B1843054BC01800E0BC
:10194000044805B030BDC046070080FF60170300A3
:10195000000080800200808070B5051C86B0101CDD
:10196000019111F037FA041C0390681F182800D960
:10197000B0E018F0D5F80D10161B2C37686DAFAF1E
:10198000AFAFAF0D10161B2C3768898E93989D0052
:101990000198211C54E00198211C19F017F80190BE
:1019A0008FE00198211C18F0DFFEF8E7201C0021D1
:1019B00018F0A0FA002805D04849494824F0ABFBAC
:1019C00013F02BFF01A803A923F0A8F979E0201C4C
:1019D000002118F08FFA0028EED10198211C18F090
:1019E000D1FCDCE7201C002118F084FA0028E3D1A8
:1019F000211C01981CF0ECF90021051C019018F045
:101A000079FA002807D0039A0023002A01DA8023FC
:101A10001B06019355E00021281C18F071FA431EA3
:101A200098410124039E404204400021301C18F0DC
:101A300067FA431E9841E4B2844242D0281C311C0C
:101A400018F024FBABE70198211C1CF0A1FAA6E7D3
:101A5000201C002118F04EFA0028ADD101A803A9DE
:101A600023F05CF903220220019B1E4993430343A8
:101A70005B180493039B934303435B1804A90593EA
:101A800005F076FF031C26E00198211C18F038FAB7
:101A900012E00198211C18F047FA0DE00198211C72
:101AA00018F028FA08E00198211C18F033FA03E036
:101AB0000198211C18F042FA0B4B00280BD10B4B5C
:101AC00009E00323019A02209A43131C054A0343A9
:101AD0009B1800E00023181C06B070BD484F03009F
:101AE0007CF802000000808044F3020088F30200CA
:101AF000F0B593B0061C06A80F1C141C13F072FE60
:101B0000051E23D13368311C012603A83A1C01931A
:101B100009F0D2FCA3082A1C3340019903A808F05D
:101B2000C5FA051C03200AF02BFD281C24F097FAA7
:101B3000012040420AF024FD13F06AFE344203D033
:101B40001348311C0AF050FD012518E001204042E5
:101B50000AF016FD01210C4202D00D480AF044FDA6
:101B6000079810F0E9FF0B490FF016FC051E04D191
:101B70000948079911F01EF801E080256D00012148
:101B80000C4202D002480AF02FFD281C13B0F0BD11
:101B9000844F030040F50200D01903001FB5202137
:101BA000684627F0F5FC254826F096FC684627F0A5
:101BB00024FD234826F090FC0AF0FEFC0128F2D018
:101BC00002280AD11F4826F087FC684627F00AFD44
:101BD00001221D4B00201A702DE0032803D1684616
:101BE00027F00BFDE8E7042804D0C1B2684627F0CF
:101BF0005CFDE1E7154826F06FFC019A002A08D148
:101C0000104826F069FC684627F0ECFC8020400074
:101C100011E096200299400000230AF0C9FF002835
:101C200003D10B4821F00CF9C0E701210A1CFFF792
:101C30005FFFC305BAD505B000BDC046594F0300CC
:101C4000F6510300B7720300E2000020744F030056
:101C5000774F030030B587B002A8202127F098FC09
:101C6000444826F039FC444826F036FC02A827F008
:101C7000C4FC02A8414926F0F3F8012809D14048E4
:101C800026F02AFC02A827F0ADFC00203D4B18707E
:101C90006EE0022803D13A4826F01EFCE0E7032854
:101CA0001AD0042808D1364826F016FC02A827F0DE
:101CB00099FC802040005BE0052825D1324826F0C1
:101CC0000BFC02A827F099FC0AF076FC6B46C1B227
:101CD000DC1D2170032901D12948C5E7042904D15D
:101CE000274826F0F9FB012427E002A827F0DDFCB5
:101CF00023780D2B03D1254826F0EEFBE4E7201CCA
:101D000001210AF071FCDFE702A827F089FC002816
:101D1000ACD002A827F0B6FC11F0C8F900280BD00F
:101D200002A80A2127F0C1FC02A8194926F098F858
:101D30000328D1D00428ECD1002402A827F069FCA4
:101D4000051C02A827F06CFC021C9620291C4000F0
:101D500000230AF02DFF002803D10E4821F042F99C
:101D600084E7211C0622FFF7C3FEC30500D47DE7EC
:101D700007B030BD864F0300CB4F0300F14F030087
:101D8000B7720300E2000020F64F03002650030064
:101D90002D50030006580300002805D0012809D162
:101DA0008B685B00184306E08B680348002B02D168
:101DB000024800E00020704744F3020088F302006C
:101DC0007FB5041C0122081C01A911F05FF9002253
:101DD0002179402012F082FD061C0298311C17F078
:101DE000BDFE6268051C130A834208D2A368C118AD
:101DF0007143E06823F008FE2379E06003E01B1ADA
:101E00001B02D2B21343321CA06863607043E368C4
:101E10006A43181801992AF05BFCA36802485D190F
:101E2000A56004B070BDC04654280300F7B5FF2577
:101E30004668041C0191AE431DD10179321C40203B
:101E400012F04CFD6368071C1D408023A1681B0134
:101E50001D43083141436560E06823F0D5FD6368A8
:101E6000E0601A0AA368013A01337A435F43311CE8
:101E7000C0192AF04AFC2079019BE168A26812F09F
:101E800087FEA36803480133A3606368013BFF3BFF
:101E90006360FEBD5428030010B5041C102023F01D
:101EA000AFFD024B4460036010BDC0465CD0020031
:101EB00070B50A79041C0D1C002A09D1194926F0B5
:101EC00013FF201CE968AA6801230BF0D9FA23E06C
:101ED000154926F0D5FFAB68002B1DD0201C1349F7
:101EE00026F002FF0026AB689E4211D2002E03D0DE
:101EF000201C0F4926F0F8FE321CE968287912F000
:101F00000FFD0122011C201C10F030FE0136EAE713
:101F1000201C084926F0E8FE201C074926F0E4FEB4
:101F200070BDC04658500300645003006F5003005A
:101F300073500300E0C80300EBBE0300F8B5071CB4
:101F40000D1C4020391C002212F0C8FC061E05D1D1
:101F50000C490D4824F0DFF813F05FFC102023F04B
:101F60003DFD0A4B041C002F00D0094B281C2360A8
:101F7000FBB2A5607043636023F030FDE060201C7D
:101F8000F8BDC0467650030020F40200D4D0020011
:101F900098D00200F0B5061C8BB00D1C141C122842
:101FA0003AD034D8052800D087E0081C012204A9C3
:101FB00022F027FF201C07A9012211F067F8069BD9
:101FC000002203936B464020197B12F087FC061C0D
:101FD0000898311C17F0C2FD069B071C03936B4643
:101FE000A968187B7918FFF7A9FF059B041C1A1C28
:101FF0000499C06803932AF06BFB321CE3680598D0
:102000007A43181807992AF063FB231C56E01B2813
:1020100039D01F2806D050E0081C111CFFF7D0FE55
:102020002B1C4BE0101C07A9012227F0D9FB03222F
:10203000002814D0234B154240D1234A29689142ED
:102040003CD104A9281C012222F0DBFE01230498C4
:1020500000930599079A089B26F070FB28E0E30798
:102060000ED4144203D1194B22689A4208D003229D
:10207000144B2240022A21D1154A1440062C1DD0AF
:10208000144804F069FE081C012204A922F0B9FEDC
:10209000201C07A9012227F0A3FB0A4B00280DD022
:1020A000089B301C00930499059A079B26F095FA2B
:1020B000094B002802D1034B00E00023181C0BB091
:1020C000F0BDC04688F30200D4D00200E828030027
:1020D000070080FF854F030044F30200F0B5051CA4
:1020E00087B00E1C002808D08B0724D10B68264A25
:1020F000934202D0254A93421DD1301C03A90122EC
:1021000027F06EFB002816D00022291C402012F078
:10211000E5FB061C0498311C17F020FD071C281C49
:10212000391CFFF70BFF321C041C7A430399C0686B
:102130002AF0CEFA24E0301C10F004FF071E00D075
:102140004710391C281CFFF7F9FE041C301C04F052
:1021500055F800260090009804F09EF8031E0FD05A
:10216000002F04D1201C191CFFF760FEF3E7721C3E
:102170000192281C321CE16812F00AFD019EEAE778
:10218000201C07B0F0BDC0465C120300D4D0020092
:1021900070B586B0002A44D00324161C051C0A1C06
:1021A0000C402CD1204B0968994228D1111C806821
:1021B00003AA0AF09DFA002802D11C4804F0CCFDC5
:1021C000221C042E2DD12979402012F087FB049B7C
:1021D000061C28790093039B0193019A009B991A8E
:1021E000FFF7ACFE041C0399049AEB68521A714382
:1021F00072435918C0682AF06BFA221C11E0A968D2
:102200002868002310F05AFEE968021C2879042E81
:1022100003D112F085FB021C03E0331C12F0B8FC62
:10222000034A101C06B070BD002203008350030057
:102230005428030037B51D1C00230C1C0093081CF8
:10224000111C1A1C013310F0B1FA002C04D1201C0F
:10225000211CFFF773FE1BE02968CB0705D48B0711
:1022600013D10C4B0A689A420FD1081C10F04EFD96
:10227000051C0020291CFFF761FE041C0021C0681A
:102280002A1C2AF042FA201C02E00020FFF726FF59
:102290003EBDC046E82803008023044A5B051B6955
:1022A000107858438023DB02181A7047FB2D00205A
:1022B0008023044A5B051B69107858438023DB02A6
:1022C000181A7047FA2D002038B5084DC4012B6844
:1022D0000021181927F0BFFD2868054B00197F3031
:1022E00000781B788342F0D238BDC0464001002000
:1022F000FC2D002010B5C379041C002B08D0064B20
:1023000000791B68C00118180130A17927F0A3FDDE
:102310000023237210BDC0464001002008B50349C8
:10232000034823F0F8FE13F078FAC046B4500300D7
:1023300020F40200021C124B10B518685379DB011F
:10234000C3181C1C7F342178FF2908D11179C901D9
:1023500041184978FF2910D0907988420DD09179A1
:102360005B1801315878CBB27E2B01D0937106E017
:10237000002393712378537101E00120404210BD86
:102380004001002038B5F8239B021A784D2A01D06D
:102390008023DB02802580206D052C69C002644209
:1023A00023402C6929691C1B001B17F0D7FB2A4B03
:1023B0002A4A18702B69E518AD185B421D40284960
:1023C000284B294A5B1A9B18802252059D4202D253
:1023D0001369ED18F3E78020C0021169401B17F064
:1023E000BDFB0122214B641B1870E411204BE4B2A9
:1023F0001C70204B1A6000221F4B5A6059681D4AFE
:102400000029FBD0A123DB00D358DBB2A342F2D2D8
:102410001A4901330B7001235360FFF73DFF037826
:10242000051C174CFD2B09D180235B051869154B42
:10243000C009C018C001281820600BE0FFF738FF62
:102440000378803DFD2B04D0FFF732FFFD2127F0FC
:1024500002FD256038BDC046FA2D0020FF87FFFF32
:10246000000000201001002020CA0300FB2D0020E6
:10247000FC2D002000D00040FCD00040F92D0020B1
:1024800040010020FFFFFF01F0B585B0264E274A2E
:102490003478274D201C1378296801330296039263
:1024A000C201525CFF2A3DD00130C0B2984200D137
:1024B0000120A042F4D1802300275B051B69DB09C2
:1024C0000193E3010093009A2B689E183278301C28
:1024D00053425341FF1827F0D4FC002809D00023B1
:1024E000019A934218D0DA01B25C002A01D101337B
:1024F000F6E7039B01341B78E4B201339C4200D120
:102500000124029B1B78A342DBD1072F02D922F0C2
:10251000B5FCBBE7FF2005E02868009BC01827F04A
:10252000A6FC201C05B0F0BDF92D0020FC2D0020DC
:1025300040010020F7B5071C0D1C01240E4B1B7831
:1025400001930E4B1E68019B9C4211D8E10171184A
:102550000B78FE2B09D18B78AB4206D10331381CA6
:102560002A1C2AF0A6F8002804D00134E4B2EAE7D5
:10257000FF2000E0201CFEBDFC2D002040010020BB
:1025800008B5054A03791268DB01D318D81C99787D
:1025900000220BF017F808BD40010020F0B585B00F
:1025A00002900D1C161C0393782949D8FFF7C2FF2F
:1025B000041C002E26D0FF2801D0FFF785FEFFF770
:1025C00063FF041EFF2C05D11F49204823F0A3FD03
:1025D00013F023F91E4FC0013B680190FE2118182B
:1025E00027F039FC3B68019AE9B29818023027F0CD
:1025F00032FC3868019B0299C01803302A1C12F083
:1026000023FD02E0331CFF281BD00C2023F0E6F949
:10261000039B002B01D00F4B00E00F4B03600C4BD2
:1026200004711B684471E4011C19A378C67102335C
:102630008371012303726B461B7B4372031C00E012
:102640000023181C05B0F0BDD1500300D0F50200E6
:10265000400100202CD8020074D8020007B501A95F
:102660000BF068FC0199FFF765FFFF2805D10549CC
:10267000054823F050FD13F0D0F8FFF725FE03487E
:102680000EBDC046E7500300D0F5020054280300F9
:10269000F7B50192027A061C0091002A01D1FFF7DA
:1026A0003DFEC579002D06D1214A17680279D20175
:1026B000D25D002A23D1092201201A60404236E06F
:1026C0003279D201BA185278FF2A24D0D21A944211
:1026D00000D9141C019A521B944200D9141C002CDE
:1026E00024D0009AC91850190131221C29F0F0FF9A
:1026F000B379E318DBB27E2B0FD0B3712D1971794A
:102700007E24C90179180A1C7F32B3791278E41A41
:10271000FF2ADFD1D4E70024DCE70023B37173790B
:10272000DB01FB187F331B787371E7E7281CFEBDC4
:1027300040010020F0B585B00393037A041C019199
:102740000292002B01D1FFF7E9FDC379002B07D0DE
:102750002B4A03791268DB019B5C029F002B1CD182
:10276000092341E060793368C0011818291C7F30C3
:1027700027F071FB3368ED015819617927F06BFB85
:1027800063793268DB01D3187F331B786371009A59
:10279000019B944663440193BF1A002F29D07E22E7
:1027A000A3790097D21A974200D90092144E60790B
:1027B0003268C0011018C018009A0130019912F057
:1027C00043FCA379009AD318DBB27E2B13D10023EC
:1027D000A371FFF759FE051EFF2DC3D12079FFF726
:1027E00073FD002323721C230120039A40421360CF
:1027F00003E0029801E0A371C9E705B0F0BDC0464F
:1028000040010020002038B5011C25F0B8FD01244E
:10281000051C0C4B1B78A34212D30B4AE301126830
:10282000D3181A78FE2A08D19978D81C00220AF009
:10283000C9FE011C281C09F075F80134E4B2E8E770
:10284000281C38BDFC2D00204001002013B501A933
:102850000BF070FB0199FFF76DFEFF2805D10F49C2
:102860000F4823F058FC12F0D8FF0E4B1C68C30130
:10287000E31859789B780233DAB20023C00120189C
:102880007F300078FF2803D09B1A7E330022F5E7C3
:10289000881AC01826F0AFF916BDC046E7500300ED
:1028A000D0F502004001002008B5024A024B23F097
:1028B0002DFE08BD35230000F52200000122002076
:1028C000074B08495A600860A821DA60064AC90027
:1028D0005A5006495A5004315A5005495A507047C7
:1028E000009000400C9C0040FCFF000044050000EC
:1028F0004C050000034B04481B78002B00D1034813
:102900007047C046FE2D002044F3020088F3020009
:10291000F7B5A827A9253148314B01681A688446C4
:102920008A18511819602F4B00911C7801931211CD
:1029300009112D4BFF000420ED002C4E002C15D06A
:10294000002A03DA821AD8515A5102E0043258514F
:10295000DA5181229200002904DA2548511A1A50CE
:1029600099510CE09A518122920005E00432D8512D
:102970009A51812292005A5189181D4A9950012278
:102980001C4CDA602378002B22D03F201A4A019D8C
:1029900011681A4B0131DB6F2E7808401B5C151C47
:1029A000002E01D0803B5B001C225343009A083369
:1029B0009B1A62469B1013601F232860194007D1A1
:1029C0000F4B1A78002A03D00E481970FDF78EFFBE
:1029D00001222378042053402370FEBD50010020C3
:1029E00054010020E4000020009000404405000055
:1029F0004C050000FD2D002044010020A02E0020E9
:102A0000E3000020AF4F020030B585B00122041C66
:102A1000081C01A910F03AFB029A202A00D92022B2
:102A200000230199934204D0CD5CE0180571013375
:102A3000F8E7014805B030BD5428030038B5041C40
:102A4000081C151C10F062F91F2802D90E480F4906
:102A500003E0002D05D10E480E4923F05CFB12F077
:102A6000DCFE2418042D04D10123207940001843F2
:102A700009E0281C10F04AF9FF2802D9024806494B
:102A8000EBE72071054838BD20F40200F650030042
:102A900010F902000A5103002F51030054280300CB
:102AA0000123A022834010B5134CD2051351031CFF
:102AB000C133124CFF339B009C50114B8900C91845
:102AC000A223DB00CC580F4A00022240C024CA5087
:102AD000CA58A4021443F822520110402043C8509F
:102AE0000320CA58084C10432243CA50C046C0466F
:102AF000C046C85010BDC0460C05000003030000CE
:102B000000600040FFE0ECFF031F0000A02270B552
:102B10001E25A321104BD2009C58C900AC439C50E9
:102B20000E4C0F4E5C500F490F4C8000195104346D
:102B30001E510E4C1951A5210D4CC9005C5009497C
:102B40000C4C40180C49585004315C500B495850FB
:102B500099582943995070BD00F0014040910040C0
:102B600044910040006000401C0500002405000066
:102B7000489100404C9100402C05000034050000B5
:102B800070B564260D1C041CFF360CF049FA281C95
:102B9000311C0CF069FA201C311C0CF065FA052080
:102BA0000F4BA0211C600F4B0F4A1D6020560124C3
:102BB000231C8340C9058B500523261CEB569E40E1
:102BC0008E500021FFF76CFF0520211C2856FFF7CF
:102BD00067FF201CFFF79AFF044B1C7070BDC046B6
:102BE000480100204C0100200C050000E4000020FA
:102BF000642110B5041CFF310CF036FA094B052096
:102C00001C6001232056A0218340074AC9058B5030
:102C10000021FFF745FF0020FFF778FF0022034B5C
:102C20001A7010BD480100200C050000E4000020CF
:102C3000F8B50025FFF742FE224B281C0433DD6760
:102C4000FDF722FEA0221E201F4B20491D70204BA5
:102C5000D2001D601F4B204C1D608B581F4E8343BC
:102C60008B50A223DB00E2581D4F3240E250E25865
:102C70001C493A43E250E5501B4B012218680523DA
:102C8000C3569A40131CA022D205535025F0CEFE05
:102C9000164B1B78AB4214D0154B1249E258164024
:102CA000E650E2581743E750E550124B01221868EE
:102CB0000523C3569A40131CA022D205535025F079
:102CC000B5FEF8BDA02E0020FE2D002000F0014032
:102CD000540100205001002000600040FFE0ECFFA4
:102CE000001F03000C05000048010020E400002044
:102CF000140500004C010020F0B53C4E8DB0331D92
:102D0000DB6F041C002B02D1FFF792FF6BE0002861
:102D100001D001F015F8684612F064FD00280BD1CF
:102D2000331DD86F03F092FA051C12F071FD002CD0
:102D300025D001F00FF822E0002C01D001F00AF8B4
:102D4000019B2B4918680EF027FB0025041EAC429E
:102D500015D1019F381C0FF0EFFE264B98420BD186
:102D6000211C012004F004FE1F21051CF860221C18
:102D700021480AF027FCA8600025019B3363012746
:102D80001E4B1C68F36F641101343C4064011C1934
:102D9000002D07D10436201C291C2022F56729F0BC
:102DA000B4FC1EE0281C0FF0C7FE154B984208D05B
:102DB0000022331D13481449DA6723F0ACF930635D
:102DC00011E06B682360AB686360EB68A3602B69FC
:102DD000E3606B692361AB696361EB69A3612B6A93
:102DE000E3610A4B1F700DB0F0BDC046A02E00205D
:102DF000CCF60200A0F4020042510300440100207E
:102E000048D1020010F9020062510300E3000020E3
:102E100008B5FFF70DFF014808BDC0465428030060
:102E2000F0B589B00493754B03901B780E1C151CEC
:102E3000002B01D0FFF7FCFE714B1A78002A08D155
:102E4000704C4020211DCA6701321A7022F0C6FD65
:102E5000E067802701226C4BBF006C4CDF676C4B36
:102E6000E250FFF72BFD00236A4AF021A350043201
:102E7000A3500832A350C22209039200A150E3518B
:102E8000654F0594BE4279D1B54271D1634D07AC0F
:102E9000281C0CF0D9F8002806D0B1210123281CE9
:102EA000490023700CF0E0F85D4D281C0CF0CCF8C4
:102EB000002806D0B1210123281C490063700CF0C2
:102EC000D3F8584D281C0CF0BFF8002806D0B121CB
:102ED0000123281C4900A3700CF0C6F8002407AB9E
:102EE000E35C002B03D1012C3ED00124F7E74E4BCD
:102EF000A200D6580523A0220321F356D205C133E0
:102F0000FF339B009950651C07ABEB5C002B27D06F
:102F10000427454BAA00D358019305220123B2563A
:102F2000A0219340A122C905D2008B50019B0533FB
:102F3000181C029322F018F8012811D10523F3562A
:102F4000A0229840394BD205D050029822F00CF8BC
:102F5000002805D1013F002FDFD1301C01991BE073
:102F60000135032DD0D1BEE72C480CF093F90BE0CE
:102F70002F49304823F0CFF812F04FFC301C0CF0F2
:102F800089F9041CBD4202D1FFF732FE06E0281C7D
:102F90000CF080F9011C201CFFF7F2FD039803F0F0
:102FA0002DF9002601253F22164C8021231DD867CC
:102FB000214BE06F1E70214B1D70214B1A6052197E
:102FC00029F0A3FB301CFFF797FE1E4B0B4F1D6033
:102FD000059B301C1D601C4950223D70FDF720FCF4
:102FE000049BB34207D03B78002B04D0236B002B0B
:102FF00001D120BFF7E709B0F0BDC046FE2D00208B
:10300000FF2D0020A02E002004E100E000900040F1
:10301000FC0F000004050000542803003C140300CA
:103020001C1603004413030020D102000C0500000D
:103030007451030010F90200FD2D0020E300002070
:10304000440100200C9C00401129000010B5084BE1
:1030500086B002AC0093019404230FF0D9FB0298D0
:103060002379A168E268FFF7DBFE024806B010BDD5
:10307000A8D1020054280300014B1878C0B2704751
:10308000FE2D002010B5242022F0A8FC041C044BC7
:10309000802108C0202229F038FB201C10BDC0462A
:1030A00048D10200F8B5061C081C0C1C151C0FF0BA
:1030B00043FD314FB8425DD1701F0F285AD816F02A
:1030C0002FFD080834595959595959595959591303
:1030D000133FFFF7D7FF0023E2181179C21801331D
:1030E0001171202BF8D1041C281C0FF025FDB842CB
:1030F00040D10121052E05D0123E711E8E410121C5
:10310000764231430022AB181B79A018803B4B4319
:103110000679F318FF2B03D9FF26DB179E43331CD8
:1031200001320371202AEED122E0FFF7ABFF00232A
:10313000E2181179C21801331171202BF8D1041C47
:10314000281C0FF047FE0F2121F036FF211C221D05
:1031500024311378803B4343DB138033FF2B03D9A7
:10316000FF25DB179D432B1C137001328A42F0D1DF
:10317000201C00E00020F8BD48D1020038B5151C25
:10318000041C21F08FFF2A1C201C024921F03BFF68
:1031900038BDC0468750020038B543790D1C002465
:1031A000032B06D9836A074C9200E41AC369D358EB
:1031B000E418032121F067FF447024120570847025
:1031C00038BDC046FD7F0000F8B50023041C6171C6
:1031D00083608371E260036101330F1C151C43613E
:1031E000032906D80121836949429A00C06929F060
:1031F0008CFA0023A36223622A8C6B8CD3180122E1
:10320000002B00D01A1C364E201C311C21F0FBFE76
:10321000AA8C201C311C21F0F6FEE368201C197ECC
:1032200021F02AFFE368201C997E21F025FFE36846
:10323000201C197F21F020FFE368201C997F21F0DA
:103240001BFF042F07D1636A226A201C9A1A311CC3
:1032500021F0D9FE03E0201C022121F001FF311CE6
:10326000201C2A6921F0CFFE311C201CEA6821F0C5
:10327000CAFE00262B8D9E420BDAEA6AF300D318B1
:103280001A78032A03D19978201C21F00BFF01360C
:10329000F0E7201CFF2121F005FF042F1FD10022A1
:1032A000698BAB8BC9188A4219D000202E8DB04291
:1032B0000CDAEF6AC300FB185F78FF0704D55F885C
:1032C000974201D15B6802E00130F0E70223062655
:1032D000DB003343666B900083510132E3E7F8BDB6
:1032E0006150020013B54379012B2FD08268041C72
:1032F000002A03D01648174925F0C2FD201C0021E2
:1033000021F0BAFE6379032B13D1226AD01C9843B3
:10331000A36A20626062E362C01822F071FBE36876
:103320002063588B9B8BC018800022F069FB606380
:103330000CE0042B0AD1E368616AE26A5218197E34
:1033400000915869216B636B0EF01EFF13BDC046E0
:10335000D019030096510300224BF7B5A4331B6824
:10336000022B3ED84469A1423BD9051C836A0269FD
:1033700001919E1A0C1B331C23432ED00096062C61
:1033800010D81F2E01D91F230093271E032F00D909
:103390000327281C012121F063FE009A7B011343BF
:1033A000037016E00F2E01D90F2300930E4B271E3A
:1033B0009F4200D91F1C0221281C21F051FE8023AE
:1033C000702200995B4219433B0913400B43037081
:1033D0004770009BE41BF61ACDE7AB6A2B61019B9B
:1033E0006B61F7BDA02E0020FF07000038B5041C5C
:1033F0000D1C012121F026FE201C0F2D05D0102DC3
:1034000005D010210E2D06D102E0112100E012217D
:1034100021F048FE0DE0172121F044FE0322A36AAB
:10342000201C03339343A362042121F02CFE014BA3
:10343000036038BD18FE0200F8B5061C0D1C141EF2
:10344000124F11D1111C21F0FDFD80231B021D42E2
:1034500003D0301C322121F025FE2A1C301C3A40BA
:103460003521FFF799FE0FE03A1C0A404621FFF78D
:1034700093FE80231B021D406A1E9541ED012C43E3
:10348000E1B2301C21F00EFEF8BDC046FF7FFFFF09
:1034900008B5064B1A680823D16C0B43D36425F09A
:1034A000B7FA01F03BFD01F071F8FCE7042D0020B4
:1034B00008B50B4815F0E2FC26F0AAFBFEF762FF08
:1034C0000BF096FD07F094FB064826F042FE0648F6
:1034D000FDF704F9FDF7E0F807F098FB08BDC046DA
:1034E000E4290020EC280020ED34000010B50D4C3C
:1034F000201C27F064FA002803D00B4B1B78002B0C
:103500000BD00023094A1370094A13700BF04CFCCE
:1035100010F0C0FE09F0FAFC10BD201C27F0CBF91A
:10352000EFE7C046F82A0020672E0020662E002014
:103530000A2E002008B504300BF024FF004808BD17
:103540005428030008B5043025F09CFA004808BD53
:10355000542803000B1CF0B5061CC18887B0151C4D
:1035600000681A1C00230FF0A9FC041C002D40D099
:10357000042D14D103204443B1680C190121627851
:1035800052000A43039222788A400A430492A378A5
:103590008B400B4303A9059304F0EAF92AE0281CA9
:1035A000032103AA0FF076FC039B18680FF0AEFB13
:1035B000039B071C58680FF0A9FB039B051C986828
:1035C0000FF0A4FBFF2F03D8FF2D01D8FF2805D94A
:1035D00009490A4822F09FFD12F01FF9C0B20436D3
:1035E0000090A1B2FAB2EBB2301C25F060FA0448A8
:1035F00000E0281C07B0F0BDC251030020F4020017
:103600005428030073B51C1C081C0023111C022243
:103610000093131C0FF0CAF8206825F00EFA051C61
:1036200060680FF073FB041E05DC0949094822F0AD
:1036300072FD12F0F2F80C2022F0D0F9061C064BB5
:10364000E9B208C0A2B20BF073FE301C76BDC046D2
:10365000D151030020F40200BCD20200F0B50027D3
:103660000D1C85B003901E1C081C104B111C0097EC
:1036700002220FF09BF8A81C800022F0AFF9039BF8
:10368000041C03606B1E3D1C03934360336883601E
:10369000039B9D4207D20135AF00F05902F0AEFD09
:1036A000E719B860F4E7201C05B0F0BDFFFF00008B
:1036B00008B50B1C02495A6825F0E2FB08BDC0465C
:1036C000EA51030070B5151C12680C1C8368002AAF
:1036D00009D1CC000621181D214310F0F9F800286B
:1036E0001ED043681BE01A79181C92070BD50D4AAF
:1036F000934215D10C4E736C002B03D1012022F0A4
:1037000097FD7064706C06216A68E4002143002A0A
:1037100002D122F0D0FD01E022F0C3FD00232B6096
:1037200070BDC046342D0300A02E0020F8B506253C
:10373000C3001D43071C291C0C48012210F0C8F8C7
:10374000061C4068002810D10C3022F047F9084BC5
:10375000041C03604760012022F06AFD6E21A06016
:103760002A1C22F09EFD201C7460F8BDC42E00208F
:1037700098D3020008B50248032104F01BF808BDE5
:10378000C02E002010B50C1C0621C00001430122F0
:10379000024810F09DF8446010BDC046C42E0020C1
:1037A00073B50625C3001D43061C291C0F480022C3
:1037B00010F08EF8041E17D1221C0D48291C10F0A1
:1037C00087F8041E11D0606808216A4602F09AFC4E
:1037D000009B002B08D000206A46011C22F04EFC02
:1037E000301C6168FFF7CEFF606876BDC42E0020F4
:1037F000D4D3020008B50FF0EDFA19F001F9002258
:10380000074B18F077FA074B074A17F035FE19F007
:103810004BF903239843013B1843044BC01808BDE0
:1038200000806640FB210940182D44540000808030
:1038300008B50FF0CFFA19F0E3F8084A084B18F072
:1038400059FA084B002217F017FE19F02DF903233F
:103850009843013B1843044BC01808BD182D44542D
:10386000FB210940008066400000808008B50FF011
:10387000B1FA034B184002231843024BC01808BD8D
:10388000FCFFFF7F0000808008B50FF0A3FA19F05D
:10389000A3FF034B002800D0024B181C08BDC046F4
:1038A00044F3020088F3020008B50FF093FA19F010
:1038B00093FF034B012800D0024B181C08BDC046E3
:1038C00044F3020088F3020008B50FF083FA19F000
:1038D00083FF034B012800D8024B181C08BDC046CB
:1038E00044F3020088F302001FB5002301930FF098
:1038F00071FA01A919F0E0FF0322031C022093438F
:10390000064903435B180293019B934303435B18EF
:1039100002A9039304F02CF805B000BD00008080DC
:1039200038B50D1C0FF056FA041C281C0FF052FA83
:1039300017F0CAF9011C201C19F09AFF03239843C1
:10394000013B1843014BC01838BDC04600008080C1
:103950001FB5002301930FF03DFA01A919F05CFF98
:10396000032302249843074B2043C0180290019878
:1039700025F041F902A90390201C03F0F9FF04B0DF
:1039800010BDC0460000808038B50D1C0FF022FA33
:10399000041C281C0FF01EFA011C201C1AF018FA37
:1039A00003239843013B1843014BC01838BDC04660
:1039B0000000808038B50D1C0FF00CFA041C281C88
:1039C0000FF008FAC00FC307600040081843032334
:1039D0009843013B1843014BC01838BD000080805C
:1039E00038B50D1C0FF0F6F9041C281C0FF0F2F985
:1039F000011C201C1AF074F903239843013B18435F
:103A0000014BC01838BDC0460000808008B50FF0DB
:103A1000E1F919F0E7FC03239843013B1843014BFC
:103A2000C01808BD0000808008B50FF0D3F91AF067
:103A300005F903239843013B1843014BC01808BD07
:103A40000000808008B50FF0C5F91AF0A5F803232F
:103A50009843013B1843014BC01808BD000080800B
:103A600008B50FF0B7F91AF013F803239843013B98
:103A70001843014BC01808BD0000808008B50FF046
:103A8000A9F919F0C3FF03239843013B1843014BE5
:103A9000C01808BD0000808008B50FF09BF919F030
:103AA00009FE03239843013B1843014BC01808BD8E
:103AB0000000808008B50349034803F0E3F911F0E2
:103AC000ACFEC046F851030020F4020070B5061C9D
:103AD00008680D1C0FF07EF90021041C16F01AFA7C
:103AE000002801D0FFF7E6FF201C1AF0D3F9041CD0
:103AF000012E06D1032302209C430D4B0443E01802
:103B000015E068680FF066F90021051C16F002FA4E
:103B10000028E7D1281C1AF0BDF9011C201C16F062
:103B200031FC032302249843014B2043C01870BD8D
:103B30000000808008B50FF04DF91AF0D5F8032386
:103B40009843013B1843014BC01808BD000080801A
:103B500038B50D1C0FF03EF9041C281C0FF03AF983
:103B6000011C201C1AF014FA03239843013B18434C
:103B7000014BC01838BDC0460000808010B50FF062
:103B800029F90021041C16F0BBF9002801D0FFF729
:103B900091FF201C1AF0A4FB03239843013B184318
:103BA000014BC01810BDC0460000808030B58DB0FC
:103BB000051C684611F016FE011E0ED12A1D0120BB
:103BC00022F05CFA0122EB68041C5B1001335B00FD
:103BD0001343EB6011F01CFE0AE00198064A0368EB
:103BE0000024934204D0054A934201D011F015FEFF
:103BF000201C0DB030BDC046CCF602007CF50200A2
:103C000010B5041C102021F0E9FE044B036023686A
:103C10004360636883600123C36010BDF4D6020073
:103C2000F7B52E4B2E48191CFC310A6C824254D930
:103C3000043A0A64191C1268A8310F68501C8408E1
:103C40003E5D051C032425406D002E41811A344041
:103C50000130022CF3D0B0331B6812019B1809010C
:103C6000019389080029DCD0019B1B681A072FD11A
:103C70001A48041CB0342468A34229D3051CB43567
:103C80002D68AB4224D2051C1B1BDC17240FE31844
:103C9000A8351B112E689C0836191D1C03242540CD
:103CA0006D00AC46377862463D1C15412540012D1C
:103CB0000ED194403C433470061CFC36346C094FE2
:103CC000BC4203D2201D3064236001E0B83005609F
:103CD000019B013904330193C4E7F7BDA02E0020F6
:103CE0005C2F0020DC2F00200F23994370B5061CA9
:103CF0000D1C081A412115F031FF104C021C231C29
:103D0000AC331860231C211CA8331E608301EB1AFE
:103D1000B0310B60231C301CB43300211D6028F02F
:103D2000F4FC221C0023FC329364A0225200A35214
:103D3000403A4333FF3AFF33E25270BDA02E0020D9
:103D4000A022034952008B5A01338B527047C04660
:103D5000A02E0020A022034952008B5A013B8B5217
:103D60007047C046A02E0020A023034A5B00D05A13
:103D7000431E9841C0B27047A02E0020F7B5002422
:103D800000900191019B9C4238D0009AA300D35827
:103D90001A072FD11A4A111CB03109688B4229D356
:103DA000101CB4300068834224D2101C5B1AD9174F
:103DB000090FCB18A8301B11066899087618181C33
:103DC000032108404000844637786546381C284166
:103DD000084001280ED1A94039433170161CFC3629
:103DE000316C084FB94203D20A1D32640B6001E006
:103DF000B8321060FFF714FF0134C3E7F7BDC046C7
:103E0000A02E0020DC2F002008B5FFF799FF064800
:103E10000022031CB8331A60031C044AFC33272118
:103E20001A64FFF7ABFF08BDA02E00205C2F002016
:103E3000F8B52C4C0025221CB8321368AB4221D0B7
:103E4000231C1560284AFC331A64231CAC331B68FE
:103E50009B009D42EDD2221CA8321268AB08D15CB7
:103E600003232A1C1A40520011410B40032B07D197
:103E7000221CFC32136C191D11641D60FFF7D0FE6B
:103E80000135E2E71E1C221CAC32126892009342FC
:103E900021D2211CA83109689A088A1803201178B8
:103EA0001F1C0D1C07407F003D410540022D05D021
:103EB000854209D0012D0CD12E1C01E0002E08D026
:103EC000B8408143117004E00220B84000268143CD
:103ED00011700133D7E70023FC34A364FFF73AFFE6
:103EE000F8BDC046A02E00205C2F0020274AF0B568
:103EF000131C111CB433B03109681B685B1A111C08
:103F000003600023AC310C68191CA83215684360AB
:103F10008360C36003614361A400A1422FD08A087B
:103F2000AE5C032294460A405700321C66463A4172
:103F30003240012A12D8012B03D1C6680136C6606F
:103F400004E0022B02D10669013606614669B342DC
:103F500000D94361012A0CD0002A06D0022A0CD1D4
:103F6000426801330132426007E0836801338360B5
:103F700002E0436801334360131C0131CDE743681D
:103F80001B01436083681B018360F0BDA02E0020ED
:103F9000A023F7B53F4D5B00EC5A0F300609002C0B
:103FA00001D0002075E0002EFBD0A1235B00E95A70
:103FB0004B4259412B1CFC339A6C2B1CAC331B68B5
:103FC00001932B1CA8331868019B9A4228D2835C6A
:103FD0009F0704D10134B44202D3920026E00024AA
:103FE0000C273B4205D10134B44203D39200013285
:103FF0001CE0002430273B4205D10134B44203D3F6
:104000009200023212E000243F27BB4305D1013465
:10401000B44203D39200033208E000240132D3E714
:104020000029BED100F01AFB0121C3E7131B591C64
:10403000012C04D12E1C541CFC36A408B4648C083A
:104040000019032401260C406400A640341C0678A5
:1040500002333443047093420FD82C1CA8342468D4
:104060009808241803200226184040008640301C7F
:104070002678013330432070EDE7B0352C680B0112
:104080000132E418521A1201201C002128F03DFBD5
:10409000201CFEBDA02E0020A02270B5214B520096
:1040A0009A5A002A3DD102073BD11A1CB03212683D
:1040B000904236D3191CB4310968884231D2801A33
:1040C000C217120F10181A1CA832001112688108AA
:1040D000555C041C03221440640025412A40012A37
:1040E0001FD11A1CFC32946CA14200D291641D1C99
:1040F000A8352A68840814190322011C161C1140D3
:1041000049008E40311C267801308E4326702C6881
:104110008108645C011C114049000C412240022AC4
:10412000E5D070BDA02E0020031C0F2070B51840F4
:104130002AD1164A111CB03109688B4225D3141CB0
:10414000B4342468A34220D25B1AD917090FCB18C4
:10415000A8321B1115689A08AC5C191C0322114087
:1041600049000C412240012A0FD15A1C91086E5C73
:10417000141C03210C4064002641D01A3140013246
:104180000229F3D0000100E0002070BDA02E002025
:10419000A023F0B5051C0020594F5B00FB5A85B0E9
:1041A000834200D0A9E001920E1C854204D1081C74
:1041B000291CFFF7EDFEA0E0002900D199E00F22B5
:1041C000181C2A4000D098E03B1CB0331B68101C20
:1041D0009D4200D291E0391CB43109688D4200D370
:1041E0008BE0EB1AD917090FC9183B1CA8331B68C1
:1041F0000911009300988B08C35C0324081C20401D
:1042000040000341101C1C40012C76D1331C944605
:10421000AC3738680F3380001B0902904F1C029A9C
:1042200097421AD20098BA08825C381C0392032283
:104230001040039A40000241101C03221040022843
:1042400001D1013407E0002807D1012294446246DD
:1042500012199A4201D20137E1E7A3423AD01AD2A9
:10426000CB181E1C0C192649A6420DD0A8310F6888
:10427000B208BF180320321C0240520090403A7826
:10428000013682433A70EEE7FC318A6C9B08934218
:1042900020D28B641EE06246A21893421CD862189A
:1042A000C81882420FD216489608A8300068022724
:1042B00086190320104040008740381C37780132AF
:1042C00038433070ECE71A1B240112012819002131
:1042D00028F01BFA281C10E0019800280DD0301C93
:1042E0000021FFF755FE061E07D02201291C28F0E9
:1042F000EFF9281CFFF7D0FE301C05B0F0BDC0461A
:10430000A02E002010B58AB004A8FFF7EFFD069B91
:10431000094C03930093049A059B201C074924F041
:10432000AFFD099B201C039300930549079A089B46
:1043300024F0A6FD0AB010BDD01903000A520300F4
:104340002D520300F8B53F4D3F4E2B1CB033301CAF
:104350003E491A6824F094FD00242B1CAC331B68E2
:104360009B009C4224D2A20632D12A1CA832126899
:10437000271C94466146BA08895C03203A1C024017
:1043800052001141014202D101379F42F2D33A1B40
:104390007F2A12D99209301C2D4924F071FD3C1C52
:1043A0003F239C432B1CAC331B689B009C4204D3D3
:1043B000301C284924F098FCF8BD2A1CB032126841
:1043C0002301D2181203120B301C234924F058FD8C
:1043D0002A1CA8321268A308D15C0322231C1340B4
:1043E0005B0019410B1C13407132022B23D0073A9A
:1043F000032B20D02E22012B1DD12B1CB0331B6888
:104400002201D358154954228B4214D01449083A3A
:104410008B4210D01349083A8B420CD01249023219
:104420008B4208D01149043A8B4204D010490B3218
:104430008B4200D01B32301C0E4924F021FD013488
:104440008BE7C046A02E0020D01903006152030064
:104450007C520300B872030098520300F4FC02007F
:104460000C0B0300F4FA0200F8CF020008F302007C
:1044700098D30200AA82030010B588B0694601AA49
:10448000041C02F0A5FD009B022B2AD904A83221AE
:1044900002AA0EF021FA019B13495A6802A824F0DF
:1044A000EFFC201C0EF048FB104BC2689A4210D162
:1044B000236802A85A680E4924F0E2FCE368002B46
:1044C00007D05A68002A04D002A8996800220EF08A
:1044D0004DFB04A825F0D6F808F0CEF804A825F086
:1044E00081F808B010BDC046A05203006D6D0000F9
:1044F000A952030070B5051C90B0002803D11F48D5
:104500001EF070FD38E004A811F06CF9041E19D1FA
:104510002E6801A8291C012206F0CEFF221C231CB4
:10452000311C01A805F0C2FD041C032008F028F886
:10453000201C21F094FD0120404208F021F811F0E8
:1045400067F919E00120404208F01AF805990C4873
:104550000EF030FB05980EF0EFFA0A49041C0CF03F
:104560001BFF002808D1201C07490CF015FF00286C
:1045700002D10598FFF780FF10B070BDAD52030067
:10458000D019030040F50200D8F3020037B5294BDB
:1045900001AA1A6000F072F8E120C00000F082F871
:1045A000254B2648C118FFF79FFB01F017FC07F0C9
:1045B000C5FF06F0ADFCFEF77BFF0023204CA36790
:1045C000204B1A781D1C012A1FD1F8239B021A7850
:1045D0004D2A07D15A78502A04D159881A4821F017
:1045E00082FA12E0002219480721131CFDF7D6FFBA
:1045F000002802D021F082FA07E0A6201449012207
:10460000400002F0E1FA21F052FD2B78002B0ED190
:10461000FDF7C4FA0028F8D00E4823F05DFF002310
:104620000D4A53601360636721F015FD37BDFDF738
:1046300011FBEFE750270020F8250000580100206B
:10464000A02E0020E200002004E00300DA52030064
:1046500030FD0200E25203000C2F002007B5FFF7E7
:10466000D3FB054B01A81968091A8908FFF786FBD7
:10467000FFF7DEFB07BDC04650270020034B82B08A
:1046800001AA9C331A6002B07047C046A02E0020D9
:10469000034B82B09C331B6801A8181A02B0704704
:1046A000A02E0020014BA03318607047A02E0020E0
:1046B00008B50349034821F027FD11F0AEF8C046C4
:1046C000260900005CF40200064B07B51A1CA03353
:1046D0009C3212681B6801A9521A9A4201D3FFF753
:1046E000E7FF07BDA02E002010B5041CFFF7D0FF88
:1046F000074B021CA03307491B68074824F0C0FB86
:10470000FFF700FE012C01D1FFF71CFE034810BD8E
:10471000A02E0020F0520300D019030054280300FB
:1047200008B5FFF717FB014808BDC0465428030031
:1047300008B5FFF705FB014808BDC0465428030033
:1047400010B586B0041C03A902A804AA05AB00F0AA
:104750002DFA049B07480093059B07490193029A91
:10476000039B24F08DFB012C01D100F05BFA034880
:1047700006B010BDD01903000553030054280300F0
:1047800013B5041CA06801F087FD019000280ED02D
:104790006368074A934205D0181C0121002201AB2F
:1047A00001F032FC0EF0F2FB0028EBD0019816BDB0
:1047B0005428030000237F2803D8034B1B5C9B076E
:1047C000DB0F181C7047C0464D53030000237F28A1
:1047D00003D8034B1B5C1B07DB0F181C7047C0463C
:1047E0004D53030000237F2803D8034B1B5C5B075A
:1047F000DB0F181C7047C0464D53030000237F2871
:1048000003D8034B1B5C5B06DB0F181C7047C046CC
:104810004D53030000227F2808D8054B0132195C54
:104820000C23194202D15F3842424241101C7047AA
:104830004D53030000237F2803D8034B1B5CDB068A
:10484000DB0F181C7047C0464D53030000237F2820
:1048500003D8034B1B5C9B06DB0F181C7047C0463C
:104860004D530300C3790248002B00D10148704723
:1048700044F3020088F3020008B5FDF73BFD014850
:1048800008BDC0465428030008B50868FDF732FD8E
:10489000004808BD5428030073B50D1C022823D11D
:1048A0000126486801A909F045FB7642341C019BAA
:1048B000C31898421BD00178722901D0772905D1FD
:1048C000621C0ED172394C424C4108E0622901D081
:1048D000742906D1721C04D174394E424E41013004
:1048E000E7E70E480E4913E001267642341C01A981
:1048F000286809F01FFB7342734162426241DBB2D8
:10490000D2B20199FDF74AFE002805D105480649B3
:1049100021F001FC10F081FF76BDC04620F40200BA
:10492000CD530300D0F50200E7500300F0B5051C9D
:1049300000248BB01A4B1B48E15806F015F803AB66
:10494000185104341C2CF5D1142300266B4300931A
:104950000024154F03AB1959381C25F0D1F8043445
:10496000281C07F091FE01971C2CF2D109AC02AF74
:104970002168019825F0C4F8043C281C07F084FE47
:10498000BC42F5D10136082E05D0F307E0D40098DB
:1049900007F07AFEDCE70FF0BDFD0BB0F0BDC046BE
:1049A0002CD90200B80603002C00002008B51920FD
:1049B000FFF7BCFF004808BD54280300074BDB6825
:1049C000002B09D05A68904204D3801A043080002A
:1049D000C05802E01B68F3E7181C7047A02E0020A7
:1049E00038B5114D041CEB689868DB6883420FD31F
:1049F0000230C00020F0F2FFEB68DA68596803600B
:104A00009B6852185B00836000234260C360E860CB
:104A1000E968CB6848685A1C04339B000138CA60B7
:104A200080185C5038BDC046A02E0020074B4118AE
:104A3000884205D25A01D318027801305340F7E773
:104A4000D8B2002800D101307047C04605150000DB
:104A5000034B044ADA60002290331A607047C04664
:104A6000A02E002088D90200F0B585B0071C0E1CCE
:104A7000FFF7DCFF164B0290DC68002C24D0231CCF
:104A800010330193E368019D04339B00E318039303
:104A9000039B9D4216D22868029A037893420FD155
:104AA0004378B3420CD10230391C321C27F001FE8E
:104AB000002805D1019BE81A63688510E81804E016
:104AC0000435E5E72468D8E7201C05B0F0BDC046F2
:104AD000A02E0020F0B585B002900191FFF7C4FF31
:104AE000021E5BD12F4C019B271C90373868DD1CC0
:104AF000002819D0261C2C4B94361B683168039370
:104B0000EB188B4210D9691820F08BFF0390002816
:104B100007D1254B3868196820F076FF039B3B606E
:104B200002E03368EB183360231C90331B68002BC2
:104B300017D12E1E7F2E00D88026301C271C20F077
:104B40005AFF90373860002804D1281C20F046FF17
:104B50002E1C3860231C94331E60231C00229833C3
:104B60001A60221C9832136890342468ED18019959
:104B70000298E4181560FFF759FF6B461B79207007
:104B800063700299019AA01C27F0A2FD0022019BEC
:104B9000201CE3189A70FFF723FF021C101C05B0BD
:104BA000F0BDC046A02E0020382F0020F7B51D1CF8
:104BB000161C0023071C03600B6033602B60174B2F
:104BC0000091DC68002C24D0154B9C4221D03B681E
:104BD00001333B60E268009B94461B68009A019396
:104BE00063441360221CE368103204339B00E31813
:104BF0009A4206D23168C81C02CA4978411831600D
:104C0000F6E7201CFFF790FA2B6824681818286034
:104C1000D8E733682A68D3182B60F7BDA02E002090
:104C200088D902000C4B70B5DC68002C13D00B4BFC
:104C30009C4210D0261CE36810361D1DAD0065197E
:104C4000AE4206D204CE06490232064824F018F9D4
:104C5000F6E72468E9E770BDA02E002088D902009D
:104C6000E0530300D019030010B5041C081C21F008
:104C700035F8031C002C04D0012C07D14000204340
:104C800005E00348002B02DC024800E0002010BDD4
:104C900044F3020088F3020070B54568C668846872
:104CA000102020F09BFE034B4560C66003608460CB
:104CB00070BDC0465CE5020038B50D1C041C6A6876
:104CC0000749AB6824F0DCF8EA68201C012A03D10C
:104CD000044924F009F802E0034924F0D1F838BD72
:104CE000626F0300EBBE03006F6F030030B5041C5E
:104CF00087B00020042A30D1201C0D1C20F0EEFFCC
:104D0000011CAB071DD1164B2A689A4219D1291CE8
:104D100003AA07F0EDFC102020F060FE114B039A6F
:104D20000360E36861685A4352184260049A111C98
:104D30005943019262688A188260059A5343C3609E
:104D40000BE0002320682A1C0EF0B8F8E3685843F3
:104D50006368C01801234000184307B030BDC04647
:104D60000022030020E5020000487047D8E5020059
:104D700073B50090000C431E01910A2B1BD8012330
:104D80001C1C84400C490A88224392B20A800B4AB8
:104D900011780F290FD816781178094CD940334073
:104DA0009B009840031C655C2B43DBB26354137873
:104DB0000133DBB2137073BDE82D0020002E0020FC
:104DC000012E0020094A38B51378002B0CD1084D6C
:104DD0002C78E4B2002C07D10068013313702B70DB
:104DE00003685B6898472C7038BDC0460A2E0020C7
:104DF000092E002010B5041C0430FFF7E3FF6068A3
:104E000026F0EAFD034B8000C0580623C00018437B
:104E100010BDC04684E7020038B50430FFF7D2FF6A
:104E2000124C13482378002B1FD020780021C0B2E9
:104E300002F09EFD00232278934214D20D495A08B5
:104E40008D5C01221A40920015412A1C0F252A4030
:104E5000094D9200525906259900D20041182A4363
:104E60008A600133E7E70023237038BD002E00205D
:104E700030FD0200012E002084E7020008B508F092
:104E8000C3FB0023074A99008A58904208D0013397
:104E90000C2BF7D10449054821F03DF910F0BDFC79
:104EA000D8B208BD84E70200AF6F030020F402000F
:104EB00038B5041C081CFFF7E1FF051C201DFFF797
:104EC00081FF606826F088FD024BA84200D0024BAB
:104ED000181C38BD44F3020088F3020038B5041CE6
:104EE000081CFFF7CBFF051C201DFFF76BFF0122FD
:104EF000AA40064B06481988114200D10548198876
:104F0000914300221980044B1A7038BDE82D00200F
:104F100044F3020088F30200002E0020C02307B5EE
:104F2000034800931B210022024B12F07BFC07BDBB
:104F3000CC290020714D000008B5034809680DF028
:104F400039FE024808BDC046D019030054280300AA
:104F5000F0B5114B87B003AD40C9013800930195FE
:104F600003230DF055FC68680C4C1E27A04202D0AC
:104F700023F063FD071CA8680022A04202D023F0A2
:104F80005CFD021C706803990771427110F07AFC95
:104F9000201C07B0F0BDC0466CF20200542803008C
:104FA00030B5124B8BB003AC20C90138009301948B
:104FB00003230DF02DFC06A8616824F000FB039B81
:104FC000089A5900237A00936868079B11F002FE43
:104FD000021E05D00649074801F054FF10F01DFCE1
:104FE00006A9054808F0B8FA0BB030BDA0F10200E0
:104FF000C56F0300D0F502005C12030030B5114B01
:1050000089B002AC20C901380093019403230DF04C
:10501000FFFB606805A901220EF038F8029B059A93
:105020005900237A00936868069B11F01DFE021E4A
:1050300005D00549054801F025FF10F0EEFB0448B6
:1050400009B030BDD8F10200E86F0300D0F50200CE
:10505000542803000022114B1A60031C104A12331B
:10506000FF33811800225A701A7004338B42F9D131
:10507000011C031C09310833FF3100221A709A7099
:105080005A70DA7004338B42F7D1C3237F329B000E
:10509000C254044A044B1A607047C046542700208B
:1050A00011030000744F0300100000200023F7B527
:1050B000071C1C1CA200BA18FF32517C7F2951D05A
:1050C000927C651C9B18DBB2EF2B2AD9EBB20193C3
:1050D000C1239B00FE187D23351C0093009B019A81
:1050E000934209DB281D291C042227F0F1FA009BBA
:1050F000043D013B0093F1E7002395007D19FF3546
:105100006B74AB74EB742B757D250234E4B2A5424D
:105110001CDB301D311C042227F0DAFA013D043E6D
:10512000F5E77D291BD8104A525CD20717D5C12359
:105130007D269B00ECB2FD18A64207DB281D291C2A
:10514000042227F0C5FA013E043DF5E77E23A200C4
:10515000BA18FF32537400239374D3741375013457
:10516000E4B2A7E7F7BDC0464F710300012110B5B7
:105170004B1EDBB29B00C318FF335A7C7F2A15D02D
:105180000B4CA25C520602D40131C9B2F0E75A7D41
:105190007F2AF9D0A25C7F2AF6D9DA7D002AF3D0E3
:1051A00054B2002CF0DB0132DA74EDE710BDC046DA
:1051B000AE700300031CF7B54B4A1333FF3382185C
:1051C0000021197004339342FAD10B1C5AB2002A01
:1051D00001DA464A7DE0021CFC321769B94205D368
:1051E0007F2244339B001A5401207CE0D668755C12
:1051F000602D01D9203DEDB24C1CE4B2BC4223D05D
:10520000325D0092602A02D9203AD2B20092232D58
:105210001ED1009A303A092A01D9354A59E00231A3
:10522000CCB2BC4204D3FF2AF7D84270211CCDE790
:10523000315D0D1C303D092DF5D80A256A43013436
:10524000303A5218E4B2ECE7232DE6D00022009267
:105250000026F7B20197274FF25DAA4214D1264AE1
:10526000B25C94462A2A0FD0009A94450CD16C4621
:105270009A0024798218FF32547444780133023141
:105280001475DBB2CCB2D1E70136512EE1D1002248
:10529000194ED1B2965D2A2E0BD1BE5CAE4208D11A
:1052A0009A008218FF325174417801331175DBB2D4
:1052B000BCE70132512AEBD1493A1049895CA94235
:1052C00004D0002A04D0013AD2B2F6E7002A04D171
:1052D0000B4A0C4B00201A6005E0191C4331890071
:1052E00041188A70A2E7FEBD120300009D71030001
:1052F000AF7103000C7003005D7003007C7203004B
:10530000BD710300100000201130FF3003787F2BA7
:105310000AD002228256002A01DC044A00E0044A34
:10532000D35C43700430F1E77047C0462C72030031
:10533000FF7003000023F0B589B001900093009B3B
:10534000019A9B00D3180393FF335E7C7F2E00D11C
:10535000C6E064498A5D900702D4009B0133BDE03A
:10536000D2074BD4009A7D25571C721CD2B20492EE
:105370005D4AFFB2921952780592DA7C1B7D069243
:10538000C122920094460793019B63441C1C029324
:10539000BD4207DB201D211C042227F099F9013DA5
:1053A000043CF5E7019BBF00DF196B461B7CFF3710
:1053B0007B746B461B7DB51CBB746B461B7EEDB2CC
:1053C000FB746B461B7F3B75009B9C1C464BE4B2F9
:1053D0009E19B7787D26039BFF33DA7C1B7D0392F1
:1053E0000493A6426CDB029B0422181D191C27F0B3
:1053F0006FF9029B013E043B0293F2E7009A0132EF
:10540000D2B2131C019844339B001B5C002BF6D0D6
:10541000009A571C7F2B07D0CA5C120702D4243B8A
:10542000012B01D8FBB289E7731CDBB204932E4B2E
:105430007D259B195B78FFB20593039BFF33DA7CD4
:105440001B7D0692C122920094460793019B634400
:105450001C1C0293BD4207DB201D211C042227F0E7
:1054600037F9013D043CF5E7019BBF00DF196B46AE
:105470001B7CFF377B746B461B7DB51CBB746B4676
:105480001B7EEDB2FB746B461B7F3B75009B9C1C27
:10549000154BE4B29E19B7787D26039BFF33DA7C67
:1054A0001B7D03920493A6420ADB029B0422181D73
:1054B000191C27F00DF9029B013E043B0293F2E711
:1054C000019BA4001C196B46FF346574A7741B7BF9
:1054D000E3746B461B7C2375009B0333DBB22DE723
:1054E00009B0F0BDAE7003002C720300F0B50025CA
:1054F00087B00190019AAB00D3180293FF335A7C16
:10550000002A00D12EE17F2A00D155E1AB496C1C65
:10551000895CC8062AD5DA7C7D26049220221140B7
:105520004A424A4115218A1A0392C1221B7D9200E8
:105530000593019BE7B29C18BE4207DB201D211C8E
:10554000042227F0C5F8013E043CF5E7019BBF00AB
:10555000DF196B461B7BFF377B740023BB746B46E4
:105560001B7CFB746B461B7D3B75ADE018264E2AF9
:1055700002D04F2A23D11B26DA7C7D2702920D22EE
:105580005A74C1221B7D92000393019BE4B29D18C3
:10559000A74207DB281D291C042227F099F8013FA8
:1055A000043DF5E7019AA300D3180022FF339A7453
:1055B0006A46127A5E74DA746A46127BB1E0502A47
:1055C00001D11C26D8E7C90933D0D97C002930D0B5
:1055D000E4B2211C019844318900095C002928D1DA
:1055E000A91CC9B20391890041180F1CFF37787CB0
:1055F0007F281ED0714E305CC0091AD0F97C00297A
:1056000017D0C1227D26019B92009D18039B9E42CC
:1056100007DB281D291C042227F05AF8013E043D0F
:10562000F4E71F237B740023BB74FB743B75251CBC
:1056300060E76C1C172A12D1597B6A1ED2B2452929
:1056400001D11B3902E0392902D10D3959738DE09E
:105650005A4A525CD20900D1ACE01222A9E0182AC1
:1056600007D15A7B55498A5C7F2A00D8A2E01322D1
:105670009FE0202A05D15A7B3C2A00D09AE02622BE
:1056800097E0482A09D15A7D7F2A03D04B498A5C8A
:1056900092060FD44B225A740CE03C2A0AD15A7D50
:1056A0007F2A00D186E045498A5C920600D581E0D8
:1056B0003F227EE05A7C4149895CC90704D5597B69
:1056C00020294BD10C3A74E0029B6C1CFF335A7CAE
:1056D000352A06D15A7B3A498A5C52076AD510228C
:1056E00067E02A2A1FD1C1227D26DF7C1B7D920024
:1056F0000293019BE4B29D18A64207DB281D291CDA
:10570000042226F0E5FF013E043DF5E7019AA300DF
:10571000D3182B22FF335A7400229A746A46DF741E
:10572000127A1A7583E72C2A18D1C1227D26DF7CD4
:105730001B7D92000293019BE4B29D18A64207DBF9
:10574000281D291C042226F0C3FF013E043DF5E775
:10575000019AA300D318FF332D22DCE7452A04D099
:10576000392A02D00135ECB261E72A1C111C0198DC
:1057700043318900114B095C6C1C595C7F2919D994
:1057800001320199D2B292008A18FF32517C00296D
:1057900006D05B5C7F2B0DD9D37C002B06D009E0B3
:1057A000527D7F2A06D09B5CDB0903D01E22029B20
:1057B000FF335A74E4B23AE707B0F0BDAE700300AD
:1057C0004F710300F7B501214C1EE4B2231C443392
:1057D0009B001B5C7F2B2CD0554DEB5CDB0702D470
:1057E0000131C9B2F0E7231C013BDBB2002B21D011
:1057F0001A1C44329200125C7F2A03D04D4EB25CD8
:105800007F2AF1D99A008218FF32567C7F2E0BD066
:10581000AF5DBF0603D5474FBE5D760704D5967CC6
:1058200077080136F61996740133DBB2A342E9D149
:10583000D6E700239A008218FF32517C7F2976D068
:105840003C4D6E5CF40933D04127591CC9B28C0021
:105850000419FF34667C0194BC467F2E01D0AF5DF5
:10586000BC464024AF5D27420FD1123E012E01D924
:105870000B1CDFE70233DBB244339B001B5CEB5CA9
:105880002342F5D0937C013B08E063465B0707D4D5
:105890006346DB07ECD5937CDC081B1B9374E7E7BE
:1058A000019B9B7B5A1C9B08D318019A9373DFE7DB
:1058B0001F4C645C21070FD50133D9B28B00C3188C
:1058C000FF335A7C7F2AD3D0AA5C9207D0D5062218
:1058D0009A74013A9A73CBE702210E421BD01C1C2A
:1058E0000134E4B2211C44318900095C0029F7D05D
:1058F00001337F2919D00F4D695C890715D5A400A4
:105900000419FF34A17C49080131A174947C640816
:105910000134947409E0E40606D5547B2C5D0C42F6
:1059200002D0917C023991740133D9B2A0E7F7BD5E
:105930004F710300AE70030070B5041CFFF78AFBC3
:10594000201CFFF737FC231C0022FC33011EDA6009
:105950001A61914244D0261C224D11362B68FF3625
:10596000934203D02048311C00F0AAF9201CFFF715
:10597000BDFD201CFFF7FAFB201CFFF7C5FC201C17
:10598000FFF720FF201CFFF7D5FCC422331C920038
:10599000A1181A78502A06D97F2A07D0134A144B27
:1059A00000211A601CE004338B42F2D12B68002BDB
:1059B00002D010481DF016FB201CFFF777FB2B6868
:1059C000002B03D00C48311C00F07AF9201C20F089
:1059D0005CFA074B0949186826F092FF41424141A1
:1059E000081C70BDB8270020D4710300E3710300C8
:1059F000100000200972030019720300744F0300A5
:105A0000F0B5051C89B002AF0E1CBA603B60FEF712
:105A10005BFEAB687B611423F81822F04FFE142361
:105A20007860F81822F04AFE032358437B68C018B8
:105A30008300FB602C2B0AD86B46F8682A30C0081C
:105A4000C0001B1A9D46002302ACFB6005E0F8680D
:105A50001C301FF0D0FF041EEED0AA687B69201C0A
:105A60009B1A63607B68321CA3613B68291C00930E
:105A7000BB6807F049FB184E201C73680021636166
:105A80006B6873600BF012FD6369B8607360002887
:105A900002D0022803D00BE0E3681D6809E07B68B0
:105AA00005339B00E3185D68FB68002B0CD005E014
:105AB0000A4DFB68002B0AD00023BB60201C1FF09E
:105AC000B4FFBB68002B02D0281C0FF0A6FE281CD8
:105AD000BD4607B0F0BDC046A02E002054280300EC
