:020000040000FA
:1000000000400020CD640100096501000B6501007E
:1000100000000000000000000000000000000000E0
:100020000000000000000000000000000D6501005D
:1000300000000000000000000F65010011650100D4
:100040001365010089B80000F96B01001365010018
:1000500013650100000000008D9F01001365010081
:10006000613800001365010091A1010013650100D2
:10007000136501001365010013650100136501009C
:10008000136501003D6D010013650100136501005A
:1000900013650100F59C01009D9E0100A939000037
:1000A000B9390000136501000000000000000000E5
:1000B0000000000000000000000000000000000040
:1000C00010B5064C2378002B07D1054B002B02D02E
:1000D000044800E000BF0123237010BD700200201F
:1000E0000000000070D40300084B10B5002B03D0B3
:1000F0000749084800E000BF07480368002B00D10B
:1001000010BD064B002BFBD09847F9E7000000001C
:100110007402002070D40300700200200000000070
:10012000164B002B00D1144B9D46402292029A1A86
:10013000924600218B460F461348144A121A2CF09F
:1001400061FC0F4B002B00D098470E4B002B00D0CA
:1001500098470020002104000D000D48002802D01F
:100160000C4800E000BF22F02DFB200029002AF0FF
:1001700064F922F003F8C0460000080000400020A7
:100180000000000000000000700200206C0B002046
:100190000000000000000000F0B50F00496887B0C3
:1001A00005001600002901D0002A04D139002800DA
:1001B00024F0E7F859E00F321309C918019324F02D
:1001C00050F80F22A968B8687B68324000D110321D
:1001D000019CE618264C341964000919039124493E
:1001E000102459184900411803988C4602901900B0
:1001F0000020A41A0594002912D0644624880139ED
:100200002043040004900598C44002980480029C96
:100210000498023C0294022464420004A444EAE7E5
:10022000039C5B00E31A1024A21AD040019A1880A4
:100230000F4854001C1B84461300023463445A00C8
:1002400020002CF0DFFB002E06D07300023BE35AA7
:10025000002B01D1013EF6E701216E603B780B4097
:100260001A002B788B4313432B7007B0F0BDC046A8
:10027000FFFFFF7FF0B54B681500526887B006009E
:100280000C00934201D22C000D00012122786368FA
:100290000A4201D12A781140C918300023F0E1FF49
:1002A000B36822780093A3681700019363682978E4
:1002B0009C46AB684F400293012318001F408B43BC
:1002C00004936346904302006046591E009B0393CB
:1002D0006B681B1A05934B1C26D0019B1F481B887B
:1002E0001B189B181800059B5B188B4207D8029BB4
:1002F0001A4A1B889B18029A0232029200E0174B9E
:10030000049A01399B1802005A401B0C0493039B6A
:1003100092B20233D719039A0393019B17800233D9
:10032000020C3F0C0193D6E763465900009B591815
:10033000002F02D001230B800231009823F07DFFB3
:10034000012170602A78237853400B401A003378DB
:100350008B431343337007B0F0BDC046FFFF00006E
:10036000F0B591B006935B6804000E000592002B77
:1003700002D143604B6051E1059B5B68591C23F03F
:1003800070FF059B00215B68A0685A1C52002CF08E
:1003900039FB00236360059B30005B68591C23F028
:1003A00060FF0599300023F0ECFFB3687568019396
:1003B000069B9B680293069B5B680493A368079364
:1003C000049BAB420ED810D3029A2900019823F067
:1003D0008EFF002804D10123079A7060138002E089
:1003E000002802DA002363600DE10021049B8C4A9F
:1003F0009A18029B52009B1803931B88009119B214
:10040000002905DB00995B0001319BB289B2F5E759
:10041000931C0B930B9A102194460020029B009A88
:1004200063449C468A1A029B089263450AD21A8842
:10043000009917008F40089938430A41188090B2FC
:100440000233F2E70020019A6B00D0526A1C019D32
:10045000089272609A1CAA1809922A001025009F1F
:10046000ED1B0A9509998A420AD2158800992F0036
:100470008F400A9938430D411080A8B20232F1E74B
:10048000039A12880D92019AD518049B089AD11AE2
:10049000634B6160C918079B49005B180993736837
:1004A0000A930A9A049B934266D2AB1E28880E9345
:1004B0001B88000418430D9919F0BAFE00210B9B0C
:1004C0008446EB1A0C93029B0C98089385421DD925
:1004D000089B1A8863465A4303889A4203D29F1A9C
:1004E0000F978F4209D8D21A51184B4203800B0C38
:1004F00089B24A1E9141591803E00F9B591A018095
:100500000021089B023002330893DFE72B889942D1
:1005100008D3C91A4B42080C89B22B804B1E994153
:1005200043180AE0591A29801CE02A881018012271
:1005300028805242000C1B1A9444002B12D0002039
:10054000029A0C9908928D42EFD90A881700089AEE
:100550001288BA1812180A80100C089A0231023256
:100560000892F0E76246099B0E9D1A80023B0993B0
:100570000A9B013B736092E710210023009A891ABD
:10058000029A039882420DD8039A009D12881000A7
:1005900028418A4003430398038093B20200023A41
:1005A0000392EDE71E4A1021944600250A9B019A0A
:1005B00063445B00D318009A891A019A9A4212D8B0
:1005C0001A88009F100038418A402843188095B24D
:1005D000023BF2E7124A07999A185200525A002A2F
:1005E0000ED1013B63606368002BF3D108E00C4A35
:1005F00001999A185200525A002A04D1013B7360A3
:100600007368002BF3D10121059B1A78069B1B7898
:100610005A400A4202D023780B43237011B0F0BD38
:10062000FFFFFF7F436870B55A00002384680A4DBE
:10063000A218944206D2023AAB420AD816881B048A
:100640003343F6E70278D20700D55B420B60012006
:1006500000E0002070BDC046FF7F0000F8B51F001D
:100660008B1E160000241E2B14D80B4B4068595CBF
:10067000000119F0DDFD0500A74204D0013003217F
:1006800019F0D6FD0400301E01D02CF026FB0335F6
:100690002C1924182000F8BD604503008023044A6B
:1006A0005B051B69107858438023DB02181A7047DA
:1006B000640900208023044A5B051B6910785843B5
:1006C0008023DB02181A70476309002070B5084DBB
:1006D000C4012B680021181929F055FC2868054B26
:1006E00000197F3000781B788342F0D270BDC0467D
:1006F0008C0200206509002010B5C3790400002B8E
:1007000008D0064B817900791B68C00118180130A8
:1007100029F039FC0023237210BDC0468C02002052
:1007200010B50349034827F0D3FE15F0F0FCC0468E
:1007300081450300580503000200124B10B51868EC
:100740005379DB01C3181C007F342178FF2908D1BD
:100750001179C90141184978FF2910D09079884250
:100760000DD091795B1801315878CBB27E2B01D036
:10077000937106E0002393712378537101E0012007
:10078000404210BD8C020020F82370B59B021A78FD
:100790004D2A01D08023DB02802680207605346933
:1007A000C00264422340346931691C1B001B19F0EC
:1007B0003FFD2B4B2B4A187033692B49E518AD18B8
:1007C0005B422A4A1D402A4B521AD21833009542E6
:1007D00002D219696D18FAE7802380205B05C002F8
:1007E0001969401B19F024FD0122A121641B002579
:1007F000204BE4111870204BE4B21C701F4B2048B2
:100800001A60C9001E4E456073681C4A002BFBD05D
:100810005358DBB2A342F5D21A4901330B700123BE
:100820005360FFF73BFF03780500174CFD2B09D100
:1008300080235B051869154BC009C018C001281832
:1008400020600BE0FFF736FF0378803DFD2B04D0DE
:10085000FFF730FFFD2129F096FB256070BDC046F3
:1008600063090020FF87FFFF0000002070020020C6
:100870007CD40300640900206509002000D00040FA
:10088000FCD00040620900208C020020FFFFFF0125
:10089000F0B585B0264E274A3478274D20001378CE
:1008A0002968013302960392C201525CFF2A3DD0AF
:1008B0000130C0B2984200D10120A042F4D180237F
:1008C00000275B051B69DB090093E30101932B689B
:1008D000E2019E183278300053425341FF1829F04C
:1008E00068FB002300280FD0009A934205D0DA015C
:1008F000B25C002A08D10133F6E72868019BC018D2
:1009000029F04DFB200011E0039B01341B78E4B279
:1009100001339C4200D10124029B1B78A342D4D115
:10092000072F02D924F08CFAB4E7FF2005B0F0BD00
:1009300062090020650900208C020020F7B507003D
:100940000D0001240E4B1B7801930E4B1E68019B7A
:100950009C4211D8E10171180B78FE2B09D18B78DC
:10096000AB4206D103312A0038002CF01EF80028D3
:1009700004D00134E4B2EAE7FF2000E02000FEBD2D
:10098000650900208C02002010B5054B00791B681A
:10099000C001181881780022033003F075FE10BDE5
:1009A0008C020020F0B585B002900D001600039374
:1009B000782949D8FFF7C2FF0400002E26D0FF286F
:1009C00001D0FFF783FEFFF763FF0400FF2805D186
:1009D0001F49204827F07CFD15F099FB1E4FC001F0
:1009E0003B680190FE21181829F0CDFA3B68019A66
:1009F000E9B29818023029F0C6FA3868019B2A003B
:100A0000C0180330029914F085F902E03300FF2882
:100A10001BD00C2024F050FF039B002B01D00F4B68
:100A200000E00F4B03600C4B04711B684471E40140
:100A30001C19A378C67102338371012303726B46BC
:100A40001B7B4372030000E00023180005B0F0BDDB
:100A50009E450300080703008C02002040FC0200B2
:100A600094FC020007B501A904F0BEFA0199FFF752
:100A700065FFFF2805D10549054827F029FD15F038
:100A800046FBFFF723FE03480EBDC046B4450300F6
:100A9000080703009C330300F7B50192027A0500B2
:100AA0000091002A01D1FFF73BFEC479002C06D14A
:100AB000214A17680279D201D25D002A23D1092286
:100AC00001201A60404236E02879C0013818407889
:100AD000FF2824D0C01A824200D902000198061BC8
:100AE000964200D91600002E24D0009AC918101979
:100AF000013132002BF068FFAB799B19DBB27E2B02
:100B00000FD0AB71A41969797E22C9017918080048
:100B10007F30AB790078D21AFF28DFD1D4E70022EA
:100B2000DCE70023AB716B79DB01FB187F331B78AB
:100B30006B71E7E72000FEBD8C020020F0B585B0A8
:100B40000393037A040000910292002B01D1FFF776
:100B5000E7FDC379002B07D0294A03791268DB012E
:100B60009B5C029F002B1BD109233EE06079336818
:100B7000C00118187F30019929F005FA019B6179AD
:100B8000D8013368181829F0FEF963793268DB015F
:100B9000D3187F331B786371009B7F1B5B19009315
:100BA000002F27D07E22A379D51ABD4200D93D005F
:100BB000134E60793268C0011018C01801302A0045
:100BC000009914F0A7F8A3795B19DBB27E2B13D13F
:100BD0000023A371FFF75CFE0190FF28C6D12079A6
:100BE000FFF774FD002323721C230120039A404267
:100BF000136003E0029801E0A371CDE705B0F0BDFA
:100C00008C020020002170B5080024F0E2FA0124D3
:100C100005000C4B1B78A34212D30B4AE30110686A
:100C2000C0180378FE2B08D181780022033003F02E
:100C30002BFD0100280000F033FC0134E4B2E8E7AA
:100C4000280070BD650900208C02002073B501A941
:100C500004F0CAF90199FFF771FEFF2805D10F4989
:100C60000F4827F035FC15F052FA00257E260D4B73
:100C70001C68C301E31859789B780233DBB2C201C8
:100C8000A2187F321078FF2803D0F21AAD18002383
:100C9000F5E7C81A401927F034F876BDB4450300CB
:100CA000080703008C02002010B5024B024A24F012
:100CB000AEFB10BDF90600003907000010B50400B6
:100CC00011F08CFE0C4988420AD0200011F0C8FEB9
:100CD000A02204216379D205C133FF339B009950D0
:100CE000A223A022DB00D205D0586379D84001238B
:100CF000184027F006F810BDAC26030010B504001C
:100D000011F06CFE084B984202D0200011F074FEE6
:100D1000A0226379D205C133FF339B0098580007A6
:100D2000800F26F0EEFF10BDAC26030013B50A4974
:100D3000040011F095FE05216846615615F0EAFBA6
:100D4000684615F00FFCA0230021044ADB00D150B7
:100D500026F0D7FF16BDC046A42603000070004051
:100D600010B5040011F03AFE0C4988420DD00C4B2E
:100D700098420AD0200011F073FEA0220C21637962
:100D8000D205C133FF339B00995020000AF00EFBBF
:100D9000044B002800D0044B180010BDDC260300D3
:100DA000C4260300E8F302002CF4020070B505002D
:100DB000080006F07FFC0400431005D012491348D8
:100DC00027F086FB15F0A3F9280011F007FE104963
:100DD00088420AD0280011F043FEA02203216B793B
:100DE000D205C133FF339B009950A02201236979BA
:100DF000D2058B40002C02D0A121C90000E005499A
:100E00000548535070BDC046C34503005805030054
:100E1000B42603000C0500009C33030070B50500E8
:100E2000080006F047FC0B2303410400DB0705D450
:100E30000D490E4827F04CFB15F069F9280011F018
:100E4000CDFD0B4B984202D0280011F0D5FDFF22BA
:100E5000A40092001440A0226B79D205C133FF3365
:100E60009B0004489C5070BDD84503005805030002
:100E7000AC2603009C330300032370B50B40040031
:100E80000800022B03D11C4B0B40062B02D106F0AD
:100E900011FC09E006F072FC1CF012F90022174B5D
:100EA0001AF078FB1CF094F8154B05009D4205D90B
:100EB0001449154827F00CFB15F029F9200011F012
:100EC0008DFD124988420AD0200011F0C9FDA022F0
:100ED00003216379D205C133FF339B0099506079B8
:100EE000290010F0BDFD002D03D10949200011F0AB
:100EF000B7FD084870BDC046070080FF0000E03F16
:100F0000FF030000E545030058050300F426030035
:100F1000A42603009C33030010B50349034827F0BF
:100F2000D7FA15F0F4F8C04606460300580503004A
:100F300010B5080006F0BEFBFA239B00584310F0E2
:100F400059FD002801D0FFF7E7FF014810BDC0465A
:100F50009C33030010B5080006F0ACFB10F04AFD0E
:100F6000002801D0FFF7D8FF004810BD9C330300D4
:100F7000A0230C220249DB055A5024315A507047F5
:100F80004407000010B5040006F0AAFA084B984286
:100F90000BD0084B984208D0074B984205D0074920
:100FA000074827F095FA15F0B2F8200010BDC046AA
:100FB00084D60200D8D5020028D6020015460300C8
:100FC000480A03003E2803D0402809D03C280ED10F
:100FD0004239C9B22F290AD8084B585C012308E0CE
:100FE000712904D8064B585C064B5B5601E001237F
:100FF0000020002A00D013607047C0460947030054
:10100000254603009746030010B5512836D00FD867
:10101000492827D006D842281CD048281FD00028AD
:101020004BD117E04F2840D042D84C281AD044E08A
:10103000682811D007D864282AD0662825D06228CD
:101040003BD188563AE06C2832D071280FD06928FD
:1010500033D12DE0885C31E05200505E2EE052002A
:10106000505A2BE09200505826F066FE29E0D2003C
:101070008A181068516826F035FE22E0D2008A18DE
:101080001068516826F049FE1BE09200505805E0B8
:10109000D2008A18106851681CF066F80323984340
:1010A000013B1843074BC0180BE09200505808E072
:1010B0009200505826F025FE03E000200123400056
:1010C000184310BD00008080F7B51700156801AA0D
:1010D00004000E00FFF776FF402C05D1019B043C75
:1010E0005A1EAD185B421D405A213E3C624262418D
:1010F000B14289412B183B60D2B22B00494223F008
:101100001BFF04000D004F2E3AD0532E07D12BF0B9
:10111000E4FD00220100200003F0B6FA30E0662E64
:1011200006D1032302209C43164B0443E01827E01A
:10113000642E08D11CF018F8032302249843114BA5
:101140002043C0181CE05A2E0FD980220023D2055C
:1011500012196B41002B04D1002A02DB26F0D1FDCD
:101160000EE0290026F0BEFD0AE0002905D1064B5D
:10117000984202D826F0E0FD02E0290026F0CDFDDD
:10118000FEBDC04600008080FFFFFF3FF0B587B086
:10119000140003AA07000E0001931D68FFF712FF59
:1011A0000090402F05D1039B043F5A1EAD185B42AF
:1011B0001D40009B019AEB1813603E3F642E09D03E
:1011C000662E02D04F2E22D140E0200006F0D6FA43
:1011D00004003BE0200006F0D1FA1BF071FF049000
:1011E000059179427941C9B28B0006AAD318083B10
:1011F0002A001B68042023F0C8FE3B005A1E9341BE
:1012000006AA9B00D318083B04351C681EE0A30700
:101210000CD1154B22689A4208D1794279412B00B2
:10122000C9B2009A200026F044FD1AE0200006F022
:1012300041FA009B0400042B08D95A2E06D9002835
:1012400004DA1A1F281DFF212BF0DCFB79427941BB
:101250000098C9B2042800D9042023002A0023F0F2
:1012600094FE07B0F0BDC04608DE020070B5050070
:101270000E0014001800642D0CD0662D04D04F2DE4
:1012800011D19400A35127E094000E1906F076FACC
:10129000306021E0D4000E1906F070FA1BF010FF48
:1012A0003060716018E020232B43712B0CD1032197
:1012B000014009D1094B02689A4205D1E300F318B5
:1012C000082226F0F6FC07E006F0F4F922000300FD
:1012D0003100280023F06DFE70BDC04608DE02001C
:1012E000F7B5002805D13A4A3A493B4825F0A9FB11
:1012F0006BE00D68280006F0F3F843680600EF2B5A
:1013000004D16D68280006F0EBF80600002333498D
:10131000DA005058A84203D18A1851682E480AE0D2
:101320000133612BF4D12E4B2B4C9D4201D09E42B8
:1013300004D120002B4925F0B3FA46E02A492000C9
:1013400025F07FFB0021280006F0FEF8726827498F
:10135000200025F076FB264B9E4203D1280024F086
:10136000DAFD0CE0234B9E4200D03500A86B00282C
:101370002BD0830729D1204B02689A4225D126F031
:101380006DFC0025061E20D073689D421DD2B268F8
:10139000EB00D3181F68002F15D05B681749200099
:1013A000019325F04EFB0021380006F0CDF81449DA
:1013B000200025F046FB0021019806F0C5F81149F0
:1013C000200025F03EFB0135DEE70F48FEBDC0469C
:1013D000394703001D970300E4F20200B8D702006A
:1013E000B8FF0200B04B0300CC4B0300D44B03000A
:1013F000C0EA0200F4E302005CF80200F77903009F
:10140000E44B0300CF8203009C330300F8B50600D1
:1014100010200D0014001F0024F05BFA011E09D0FB
:101420002C19076045608560C460034B034A300097
:1014300023F0EDFFF8BDC046555002003F500200BA
:10144000002805D0012809D18B685B00184306E00D
:101450008B680348002B02D1024800E0002070474F
:10146000E8F302002CF4020000228168F0B5CB0FF3
:10147000094C5B185B100E199A420BDAC568B11A59
:10148000940089002C196D5827682560C4680132C2
:101490006750F1E70148F0BDFFFFFF3F9C330300B9
:1014A00070B583680D00416804008B4212D3C900F7
:1014B000C06824F017FA63680A495A00A36862609A
:1014C000D21A013352189B00E0609200C01800212C
:1014D0002BF098FAA368E268591C9B00A1600248AF
:1014E0009D5070BDFFFFFF3F9C330300F8B5070020
:1014F00016004C10836803D5E418E243D217144059
:10150000A34200D21C000C4D38002900FFF7C8FF91
:10151000AC46BB6809495A1E5B189B001D1FF96841
:10152000944204DA4859013AC8502B00F6E7A40067
:101530000E516046F8BDC0469C330300FFFFFF3FDD
:1015400070B50025040085601021C06824F0CAF938
:1015500004232900E060636010222BF053FA014855
:1015600070BDC0469C33030030B50C0085B0104BF5
:1015700002AD043100930138022301950AF08CFA80
:1015800023680C4C996801290FD9D8680A4B029A34
:10159000C91889004118A24200D100222D79074BB9
:1015A000002D00D1064B23F070FD200005B030BDAA
:1015B00084DB02009C330300FFFFFF3F2CF402009A
:1015C000E8F30200F8B50C680B00A16802000029DE
:1015D00005D11A491A4826F07BFF14F098FD2068BF
:1015E000012A01D05A6801E001225242002306F08C
:1015F00039F9E36886009F19A3683D68013B1A1A10
:10160000A360E368311D5918920038002BF0E5F90A
:101610000021A368E0689A001150616804290BD981
:101620005B00994208D949088900E06824F05AF91A
:101630006368E0605B0863602800F8BD8C6D0300A0
:10164000B406030007B5009001910220694623F01B
:101650007CFD694601900220FFF7B4FF00480EBDF3
:101660009C33030070B50E000D490500002425F0E1
:1016700017F9B3689C420ED2002C03D00949280008
:1016800025F00EF9F168A30001225958280005F051
:1016900041FF0134EDE72800034925F001F970BD51
:1016A0002D6F0300A06D03005DD3030070B503260A
:1016B00004000D000E4028D1174B0A689A4224D12D
:1016C00083688A6899184368994210D9043189005F
:1016D000C06824F007F9AA68A368E0609B181A1D87
:1016E0009B006260C018102231002BF08BF9A368B8
:1016F000E9689800E3681818AB689A002BF064F961
:10170000AB68A268D318A36003E02900200023F08F
:1017100025FD024870BDC046CCDA02009C330300B0
:1017200010B50400102024F0C7F8044B8460036057
:10173000034B43600023C36010BDC046B0270300C5
:101740006D5002000B4B70B5050003600C000800E3
:10175000042900D204206860AC60800024F0ACF85A
:101760006A68E860121BA4009200001900212BF0A7
:1017700049F970BDCCDA02007FB50D0016001228C1
:101780002AD004D8052807D007282BD057E003001B
:10179000193B042B41D952E00322002332409A42E4
:1017A0004ED11300284932688A4249D1AB68B268E9
:1017B000981823F0EBFC0400AB68E9689A00C06855
:1017C0002BF002F9A868E36880001818B368F16884
:1017D0009A002BF0F9F81EE011002800FFF766FFD1
:1017E0002B002DE003A9100005F0A2FF0023984272
:1017F00026D0039A9A4200DA0393AB6803985843C1
:1018000023F0C4FCC36804000093AA68039B04216E
:10181000E86828F015FD230012E093070DD10A4B6C
:1018200012689A4209D1B36800938A68F368C9685C
:1018300014F092FB054B002802D1054B00E0002379
:10184000180004B070BDC046CCDA0200E8F3020014
:101850002CF40200F0B5040087B017000326002A1C
:101860001BD10E4012D1544B0A689A420ED103AAE2
:10187000806814F037FB0499039BA268E0685D1A46
:10188000521A8900920041189B007CE004910220CA
:1018900003A90394FFF796FE8AE0042A2CD1314273
:1018A00020D1454B0A689A421CD103AA806814F0E3
:1018B00019FB002805D103AAE168A06828F0D3FC31
:1018C00077E0039B0498C01A23F060FC050083684E
:1018D000E1689A00039BC0689B00C9182BF074F85C
:1018E000280066E000230A002068A16805F0BAFF1E
:1018F000E3688000C0585CE00E4055D12E4B0A686A
:101900009A4251D103AA806814F0ECFABA6803989D
:10191000049B15180193ED1A002D22DDA368E91828
:101920006368994207D98900E06823F0DBFFA36868
:10193000E0605B196360039BA268E668E818D21A4E
:10194000990080007118920030182BF046F8039B24
:10195000F9689800E3681818BB689A002BF034F80F
:101960001EE0E3688000F968181892002BF02CF84C
:101970000499B868A268039FE368521A381889006E
:1019800092005918800018182BF027F8A368AA00B5
:10199000E818E36880005242181831002BF032F842
:1019A000A3685D19A56003E03A00200023F02FFC36
:1019B000024807B0F0BDC046E40003009C330300BA
:1019C000034B04481B78002B00D103487047C046E6
:1019D00000D00200E8F302002CF4020010B5DA2077
:1019E00023F06AFF00230370024B8C331860024817
:1019F00010BDC046140A00209C330300F0B5070058
:101A00000E001500094C87B02000019328F0C7FA9A
:101A100002AB1F70019B102202A9200003960495BF
:101A2000059313F077F907B0F0BDC04600D002006F
:101A3000F0B57A4B99B08C331A680192002A01D123
:101A40000020E8E000241C60019B1B78A342F7D033
:101A50000126019B724F02331093019B109DD233DC
:101A6000119302933B002341334213D01A2302996E
:101A70001B1B2800039323F009FCBB235B00984247
:101A800008DC3300A340320003999F433B008A40A7
:101A900093431F00029B0134083B083502930D2C31
:101AA000E0D10A230B930023029302981BF008FB5A
:101AB0000B9B12901391013B0B9314AA39000198D0
:101AC000002B00D188E0002623F0AEFB109B0D9385
:101AD000119B0793534B09931A239B1B0E930D9B4A
:101AE00008960F93079B16AD0A934E4B04930F9BDA
:101AF0004C4C06930E9B0C930A9B0593089B0393F7
:101B00003B00039A13410122134225D014AB099ADA
:101B10001B882900D3182B8014AB5B88049A069885
:101B2000D3186B8014AB9B8814AAE318AB8023F006
:101B3000DCFB011C029818F055FD002862D114AAA4
:101B40002900059823F0D1FB8022029B12069918E8
:101B500018F048FD002855D1039B01330393059BE2
:101B6000083B05930C9B013B0C93FA23DB00E41824
:101B7000069BA4B208330693FA231B019C42BFD1F3
:101B8000FA22D2009446089B033308930A9B183B21
:101B90000A930E9B033B0E930F9B18330F93049BEA
:101BA00063449BB20493A342A1D1079B0936483BEF
:101BB00007930D9B48330D93099B63449BB2099394
:101BC0001B2E89D112981399174A184B19F0E2FC71
:101BD0001BF0CAFA029068E723F026FB040014AB5E
:101BE00004229B5E14AA0221525E14A90020095E01
:101BF0001B01120109010120FFF700FF200026F060
:101C000080F808E001230C9A0399934001228A404E
:101C100013439F43A0E719B0F0BDC046140A00204B
:101C2000FFDFFF0730F800009A9999999999B93F19
:101C3000F0B5584C8BB00390A37F002B05D15649CB
:101C4000564826F045FC14F062FA0398FFF7C6FEEA
:101C500000225349200028F079FA13F0DBFE002817
:101C60000BD0504809F03EFB002804D14E4809F043
:101C700039FB0028F1D014F065F8202024F0FEFD97
:101C800000230700190007AA995401330C2BFAD13D
:101C90000224002325000293019306AB05AA04A9A0
:101CA000424826F0FBF900232A002100380024F0E6
:101CB00012FB049B3E4A002493420CDB19000134C2
:101CC000C83108DBC821033489008B4203DC013CA6
:101CD000C82B00DC013C059B002593420CDB1A005D
:101CE0000135C83208DBC82203359200934203DC79
:101CF000013DC82B00DC013D0422029B134205D1AB
:101D000009232A002100380024F0E5FA0023294E97
:101D10000093009A07ABD25C002A03D07278317826
:101D200009230EE03278A2420ED17278AA420BD17A
:101D30000121009AD154019B2A0001330193210013
:101D40000923380024F0C7FA009B023601330093C0
:101D50000C2BDED10F4E3900300028F09AF96420A8
:101D60000EF0FEFD029B01330293019B0B2B94DDD1
:101D70001149300028F08DF9FA2080000EF0F0FDB6
:101D80000398FFF755FE040013F0DCFF20000BB0B2
:101D9000F0BDC0462C000020BB6D0300940503007D
:101DA000E76D030040FA020088FA02004C000300CD
:101DB000E0FCFFFFA36D030020EE0200002310B53E
:101DC00018001A001900FFF719FE014810BDC0469F
:101DD0009C33030070B5002103200CF039FD084D41
:101DE0000400686825F08DFFA060A86825F089FFD1
:101DF000E060E86825F085FF2061200070BDC046E6
:101E000000D0020070B548680C0005F053FC0500D6
:101E1000A06805F04FFC0600E06805F04BFC3200BE
:101E2000030029000120FFF7E9FD014870BDC0460D
:101E30009C330300F8B50B4E3378002B10D10A4DBC
:101E40002C78E4B2002C0BD1012700682F700368B6
:101E50005B689847054A2C7013683770DB1913606C
:101E6000F8BDC046660900206709002090020020E6
:101E7000F0B5514B8BB01B780600002B01D1FFF75A
:101E8000D7FE301DFFF7D6FF4C4D280016F010FF8F
:101E90000021706828F050FF474F08907B680021B0
:101EA0007068099328F055FFBB6800210400706832
:101EB000079328F05BFFFB68C01A19F0E5FA06905B
:101EC000280029F092FF061C280029F085FF051C38
:101ED000301C1BF0F5F806000F001BF0E3FB009030
:101EE0000191300039001BF093FB02900391281CF4
:101EF0001BF0E6F806000F001BF0D4FB04900591E0
:101F0000300039001BF084FB079B0600E01A0F002D
:101F100019F0BAFA3900041C30001BF025F9011C35
:101F2000201C18F0DDFF041C049805991BF01CF917
:101F3000069918F0D5FF011C201C18F091FC802395
:101F40001B06C0181BF0BCF8099A089B0400981ADD
:101F50000D0019F099FA061C029803991BF004F978
:101F6000011C301C18F0BCFF061C009801991BF0E6
:101F7000FBF8069918F0B4FF011C301C18F070FC37
:101F800080231B06C0181BF09BF822002B001BF0BF
:101F900023FF00220A4B1AF04DFA0A4A0A4B19F0A5
:101FA00025FE1BF015F8002801DA6930FF3025F016
:101FB000A8FE0BB0F0BDC04600D002002C060020E9
:101FC00000807640EA2E4454FB21194010B50400ED
:101FD0000430FFF72FFF0021606828F0C7FE034B95
:101FE000DB68C01A25F08DFE10BDC04600D002008F
:101FF00010B504000430FFF71DFF0021606828F0D1
:102000009BFE034B5B68C01A25F07BFE10BDC046EB
:1020100000D0020010B504000430FFF70BFF0021D0
:10202000606828F096FE034B9B68C01A25F069FE95
:1020300010BDC04600D0020070B50021050003208D
:102040000CF006FC0400281DFFF7F4FE0021686870
:1020500028F072FE0C4E7368C01A25F052FEA06084
:102060000021686828F075FEB368C01A25F049FEA3
:10207000E0600021686828F079FEF368C01A25F056
:1020800040FE2061200070BD00D00200F0B54D4B35
:1020900089B08C331B680293002B00D190E04A4832
:1020A0000430FFF7C7FE494C0021200028F044FE11
:1020B000002103112000039328F04BFE002103119F
:1020C0002000019328F052FE03110493029B039A0F
:1020D0001B785242002B31D1019B0320D31A9C461E
:1020E00040420100654609390124032664420B1968
:1020F000029FDB00FB186A461F0092896A373A800C
:102100006A46928870337A806A46128A013EBA80A3
:10211000049F67437F191F800134002EE7D1019B84
:102120000331ED188142DFD1039B093108009C4443
:102130001829D6D10123029A137041E0019BD71AC6
:10214000032252421100059709390120032640421B
:10215000049C059B4443E3180693029C4318DB0050
:10216000E3181C00703407940025645FA446069CA5
:10217000644515DD6A24A4466D469C446446AD89D9
:1021800025806C24A4466D469C446446AD886E331D
:1021900025806C46248A1C806C46079B248B1C80FF
:1021A000013E0130002ED3D10598019B0331C318A5
:1021B00005939142C9D1039B0932FF18182AC1D156
:1021C00009B0F0BD140A00206CDC02006806002093
:1021D0000300F0B5443387B0040018000F000193EA
:1021E000002623F01BFF2069431C18D00A2804D1C5
:1021F000200023F0C5F80126F5E708F001FB0028D0
:1022000022D12369232B08D1200023F0B9F82369B8
:102210005A1CE8D00A2BF7D1E5E75C2B06D0E3691E
:10222000256AA363E563002F12D117E0200023F095
:10223000A7F823690A2B07D0E369A363236AE36342
:10224000042340342370FEE2200023F099F8CAE70B
:10225000012B03D10622012D00D081E1676A002FF6
:1022600005DA2300072240331A70013706E0002FF9
:1022700006D02300062240331A70013F6762BFE197
:10228000002E3AD0A36A002B37D12100052240311D
:102290000A706362226BB44B606BD3185B001B5AED
:1022A000013D9D4200D1CEE214D9E16A8A4207D3B2
:1022B0000831490023F016FBE36A60630833E362E8
:1022C000236B5A1C2263626B5B009D52636A01336D
:1022D000636295E1236BA44A9A185200125A954200
:1022E00005D2013B2363636A013B6362F2E79542D7
:1022F00000D1A8E202230B7082E12069431C1BD1AC
:10230000994A236B616B9B185B005A5A2300403338
:10231000002A00D126E105221A7000236362924A46
:10232000236B9A185200525A002A00D18BE2013BCB
:102330002363636A013BF1E7272800D183E1222868
:1023400000D180E1752804D0102302009A43622A4C
:1023500004D16369272B11D0222B0FD0722803D10F
:102360006369622B2CD104E0622829D16369722B46
:1023700026D1A369272B01D0222B21D1752803D187
:10238000200022F0FDFF5EE162280ED1200022F045
:10239000F7FF002302932369722B00D04DE1200048
:1023A00022F0EEFF0123029347E1722800D04AE1B8
:1023B000200022F0E5FF2369622BF0D0012343E1E6
:1023C00008F02AFA2169002803D15F2901D07F296A
:1023D0001ED92300082240331A70C9B2019823F095
:1023E00075FE200022F0CCFF2069431C00D107E1DC
:1023F00008F012FA002801D0217CEFE720695F285D
:10240000FAD07F28F8D808F013FA0028F4D1F7E0C2
:10241000080008F00DFA002808D02600216940368F
:102420002E290CD10A230025337019E023692E2BA5
:1024300055D1606908F0FCF90028EED14FE009237E
:102440000025337030290BD1626917331343623B87
:10245000162B03D8454FDF4001231F4001253D4087
:10246000019804F0DFFF200022F08AFF2027206976
:10247000431C00D1C4E0002D13D10300BB43452B06
:102480000FD13B3B33706521019804F0CBFF200056
:1024900022F076FF216902220B002B3B9343E6D109
:1024A00016E008F0B9F9002803D021692E2909D1D6
:1024B0000CE0206908F0BCF90028F6D123692E2B26
:1024C000F3D09DE00B00BB434A2B01D10A233370AC
:1024D000019804F0A7FF200022F052FFC7E721690E
:1024E0002E2903D00026224D02222BE0260001983F
:1024F00004F098FF200022F043FF236940362E2B82
:1025000000D08CE165692E2D00D088E1290001986A
:1025100004F088FF2900019804F084FF200022F0D5
:102520002FFF200022F02CFF0D2379E1B94211D0BA
:102530003B00633B9343DBB2681C002B06D10500D4
:10254000013601352F78002FF0D103E0452FF7D168
:10255000013EF4E7200022F013FF002F0AD10122F0
:10256000230040331A704BE0FFFFFF7F0120400043
:10257000206E0300370001352B78652B0CD16B786A
:10258000226901379A4205D12000013522F0F8FE78
:102590003E0001E00235EFE72B78452B0AD16B783E
:1025A00022699A4204D1200022F0EAFE3E000EE0A9
:1025B00001220EE0632B0AD16B78226901379A421F
:1025C00005D1200022F0DCFE02353E00D4E79F4B0F
:1025D0009A5D230040331A70230040331B78042295
:1025E00019009143422901D0442B02D1A36A01333F
:1025F00005E0432901D0452B02D1A36A013BA36228
:10260000200040300378082B00D01CE10023E56C4B
:102610008F4EA46C9A00915900228F18944204D1D5
:102620003A78002A00D0FDE001E18F5CBC46AF5C47
:10263000BC4500D0F6E00132EFE723000C22403326
:102640001A70012306E00023029323000B2240337B
:102650001A700023049323690393222B01D02723AC
:102660000393200022F08CFE0123039A0593236933
:1026700093420BD113006269934207D1200022F0EC
:102680007FFE200022F07CFE0323059300262769AD
:102690007B1C00D1A9E0059B012B02D10A2F00D1A0
:1026A000A3E0059BB34200D8A6E0039B9F4205D15F
:1026B00019000198013604F0B5FE92E0F9B25C2FE2
:1026C00000D08AE0200022F05BFE029B25693900E1
:1026D000002B69D1622D28D012D84E2D4BD007D8AF
:1026E000222D66D0272D64D000260A2D79D045E012
:1026F0005C2D5ED0612D00D18DE0552D3ED11CE0CA
:10270000742D00D189E007D86E2D10D0722D12D013
:10271000662D33D10C254FE0762D0AD00DD302273C
:10272000782D16D06B1C5BD028E0082544E00A25E4
:1027300042E00B2540E00D253EE0049B002B04D039
:102740005C21019804F06EFE36E00827752D00D15B
:10275000043F0025013F2AD3200022F011FE266904
:10276000300008F071F800284BD0300025F0AFF9A8
:102770002D012D18EEE737480FF0D8F82B00303B2D
:10278000072B10D803261D006369303B072B0ED89A
:10279000013E002E0BD0200022F0F2FD2369ED0057
:1027A000303B5D19F0E75C21019804F03BFE6B1CA7
:1027B00016D0294B9D420BD8049B002B04D1290035
:1027C000019804F02FFE0BE0FF2D01D8E9B204E0E0
:1027D0002300012240331A7002E0019823F076FCB6
:1027E0000026200022F0CCFD51E7059BB34203D91F
:1027F0002300032240331A703100019823F0AFFC0C
:10280000FEE62300012240331A70049B0500002BD2
:10281000DCD11D00D3E70725CEE70925CCE74A2305
:102820003370EDE60133222B00D0F3E60BE0212BD1
:1028300007D10A4BA8331A680E23002A02D10233AB
:1028400000E00E33037007B0F0BDC046F56D030025
:1028500064DD0200626E0300FFFF1000140A002016
:1028600070B506000D00002811DD002906DD1548B1
:1028700017F068FD0124864213DC11E00100C0203E
:10288000000617F05FFD012485420ADB08E00029FD
:1028900009DDC020000617F055FD0124864200DB4B
:1028A0000024E4B20BE00024A04208D00100054857
:1028B00017F048FD0123854200DB231CDCB2200019
:1028C00070BDC046FFFFFF3F7FB54B680E005C1038
:1028D0002100684623F084FB029D0021220028008D
:1028E0002AF090F801213068014004D12B00220029
:1028F00025F0DFF908E043102000042C00D9042063
:102900002A00002122F041FB6946024801F086FEC0
:1029100004B070BD84E80200F0B50C00002585B05D
:10292000110020001E00009502232A0009F082F801
:102930000120AC423FD0844228D1306820423AD1B5
:1029400003230340AB4203D11C4A0168914232D0B9
:102950001B4A0240062A06D0002B0BD10268194BF5
:1029600092699A4206D103A902F03EFB0023039923
:102970001A0018E0032302001A40022A16D1FF228F
:10298000D2058018984308F071FA14E003A9306862
:1029900002F02AFB04007068039F04F08BFE2B00FA
:1029A0000200390020000CF053FF04E004F082FE26
:1029B00001234000184305B0F0BDC04608DE020008
:1029C000070080FFCD550000F0B58DB0099214AA24
:1029D000127804000B9215AA12780F000892DA07F9
:1029E00000D496E0180004F065FE002305900793DC
:1029F000002803DA434205932D230793129B0026F8
:102A0000023B1E2B16D8534B129A2020995C17F0CC
:102A10000FFC089BC5B2B34204D0681C032117F019
:102A200007FC06001398002801D02AF056F9033558
:102A3000AE1936183B68B34204D2300022F03CFF96
:102A400020603E6023689F19069300237D1E2B7033
:102A5000059B002B04D00B9B0A950A3B0B931DE0B2
:102A60003023023F3B7030E06F1E3B70089B002B11
:102A700025D0059B002B28D0069BBB4225D20A9B64
:102A8000DB1B032B09D16B4620229B181B78AF1E42
:102A90003B70069BBB4218D20A973D0005981299DD
:102AA00017F036FD0F000598129917F04BFC3B000C
:102AB00005903033092FD7DD0B9BDB19D4E7069B3C
:102AC000BB4202D2059B002BE7D1139B002B0ED0FB
:102AD00018002AF002F9069B381A834207D2002315
:102AE000139AD25C002A2ED0C2540133F8E7079B18
:102AF000002B06D0069BBB4203D26B461B7F013FD7
:102B00003B70236838009E19F61B099B013E1E602E
:102B10001EE09A0710D1104A196891420CD1089A08
:102B2000390003920B9A0292139A0192129A009220
:102B3000099A25F095F80BE0002322681370099A92
:102B40002068136004E0079B0700002BD5D1D8E76D
:102B50000DB0F0BDE16E030008DE02001300144A60
:102B600010B50400934201D1012203E0114A9342BF
:102B700002D10322200018E00020072C17D10E4AB2
:102B80001A40062A0ED09A0711D11A680B4CA2429D
:102B900008D00B4CA24205D00A4CA24202D00A4CEB
:102BA000A24204D10A00072019000EF0A1F910BDBD
:102BB0002CF40200E8F30200070080FFE0F50200B9
:102BC00084E8020074040300CCDA0200BFF34F8FE4
:102BD000024A034BDA60BFF34F8FFEE70400FA05A9
:102BE00000ED00E0024B18680123400018437047D5
:102BF0008408002001220F4B0F4910B51A604A6863
:102C00000C4B002AFBD000210B4A5160A122D200BC
:102C1000985801225A601AF011FA084B002219F054
:102C200009FC1AF0A1FA03239843013B1843044B13
:102C3000C01810BD00C00040FCC000400000D03FE4
:102C40000000808010B5C30708D4830709D103684A
:102C5000094A934202D0094A934202D104F02AFD64
:102C600003E004F08BFD18F0EDFB002801DD0DF012
:102C700077FE034810BDC04608DE0200F0F30200F4
:102C80009C330300F0B506000F0085B01C4C1D49B5
:102C9000200027F0FEF9FA2080000DF061FE01947B
:102CA0000024A64203D0386804F004FD040020008C
:102CB0000A2117F02DFC03AD3031A97020000A2144
:102CC00017F040FB0A2117F023FC30316970200017
:102CD000642117F037FB0A2117F01AFC0024303169
:102CE0002970285D23F0CAFD0100019827F0D1F971
:102CF000FA20013480000DF033FE032CF1D1C5E73A
:102D00002C000020B4DE020073B516000D4A0B0043
:102D100054681568012804D94C682500022800D0A1
:102D20008D6801A9186802F05FF901002C20019A52
:102D30000023FF30FEF76AFB2B00310022000EF06B
:102D4000ABFD76BD140A002010B504F017FD1AF093
:102D5000B7F90022074B19F06DFB074B074A18F033
:102D600045FF1AF001FA03239843013B1843044B33
:102D7000C01810BD00806640FB210940182D445446
:102D80000000808010B504F0F9FC1AF099F9084AA7
:102D9000084B19F04FFB084B002218F027FF1AF0E0
:102DA000E3F903239843013B1843044BC01810BDBB
:102DB000182D4454FB2109400080664000008080AB
:102DC00010B504F0DBFC011C18F024FB024B0028BA
:102DD00000D1024B180010BDE8F302002CF40200F1
:102DE00010B504F0CBFC440064080849201C18F01E
:102DF00011FB002805D10549201C17F0F3FB002822
:102E000001D0034800E0034810BDC046FFFF7F7FAC
:102E10002CF40200E8F3020010B504F0AFFC034B01
:102E2000184002231843024BC01810BDFCFFFF7F5F
:102E30000000808010B504F0A1FC4400640808493B
:102E4000201C18F0E7FA002807D10549201C17F0CC
:102E5000BFFB002801D1034800E0034810BDC04675
:102E6000FFFF7F7FE8F302002CF402001FB5002370
:102E7000019304F083FC01A91AF0A4FE03220300CD
:102E800002209343064903435B180293019B93433B
:102E900003435B1802A903930BF0DAFC05B000BDF5
:102EA0000000808070B50D0004F068FC041C280050
:102EB00004F064FC18F0C6FA0100201C1AF05EFE53
:102EC00003239843013B1843014BC01870BDC04613
:102ED000000080801FB50023019304F04FFC01A97E
:102EE0001AF020FE032302249843074B2043C01806
:102EF0000290019824F005FF02A9039020000BF036
:102F0000A7FC04B010BDC0460000808070B50D0065
:102F100004F034FC041C280004F030FC011C201CCC
:102F20001BF0DEF803239843013B1843014BC01804
:102F300070BDC0460000808070B50D0004F01EFC1E
:102F4000041C280004F01AFCC00FC30760004008EE
:102F5000184303239843013B1843014BC01870BD2D
:102F60000000808070B50D0004F008FC041C2800EF
:102F700004F004FC011C201C1BF03AF803239843C6
:102F8000013B1843014BC01870BDC0460000808053
:102F900010B504F0F3FB1AF0CDFB03239843013B7B
:102FA0001843014BC01810BD0000808010B504F01C
:102FB000E5FB1AF0C9FF03239843013B1843014B7B
:102FC000C01810BD0000808010B504F0D7FB1AF0C7
:102FD00067FF03239843013B1843014BC01810BD02
:102FE0000000808010B504F0C9FB1AF0CFFE032367
:102FF0009843013B1843014BC01810BD000080806E
:1030000010B504F0BBFB1AF083FE03239843013B89
:103010001843014BC01810BD0000808010B504F0AB
:10302000ADFB1AF0EFFC03239843013B1843014B1F
:10303000C01810BD0000808010B5034903480CF093
:103040004DFE13F064F8C046026F030058050300FC
:1030500070B5060008680D0004F090FB0021041C08
:1030600017F0B6FA002801D0FFF7E6FF201C1BF08E
:103070009FF8041C012E03D1032302209C4312E07D
:10308000686804F07BFB0021051C17F0A1FA0028FA
:10309000EAD1281C1BF08CF8011C201C17F056FDEF
:1030A000032302249843024B2043C01870BDC0463E
:1030B0000000808010B504F061FB1AF09DFF03232F
:1030C0009843013B1843014BC01810BD000080809D
:1030D00070B50D0004F052FB041C280004F04EFBF8
:1030E000011C201C1BF0E2F803239843013B18430A
:1030F000014BC01870BDC0460000808010B504F0C0
:103100003DFB0021041C17F059FA002801D0FFF7FD
:1031100093FF201C1BF060FA03239843013B1843E4
:10312000014BC01810BDC04600008080002805D0AB
:10313000012809D18B685B00184306E08B680348BF
:10314000002B02D1024800E000207047E8F30200A3
:103150002CF402007FB504000122080001A904F04C
:1031600065FC002221794020FDF72CFF01000600BC
:10317000029817F05DF862680500130A984208D9B2
:10318000A368C1187143E06822F0ACFB2379E060CA
:1031900003E01B1A1B02D2B213433200A068636023
:1031A0007043E3686A431818019929F00DFCA3687D
:1031B00002485D19A56004B070BDC0469C33030091
:1031C000F7B5FF26476804000191B7431DD1017987
:1031D0003A004020FDF7F6FE636805001E4080239C
:1031E000A1681B011E43083141436660E06822F07C
:1031F00079FB6368E0601A0AA368013A01336A4305
:103200005D433900401929F0FDFB2079019BA2683C
:10321000E168FEF72BF8A36803480133A3606368F5
:10322000013BFF3B6360FEBD9C33030010B504000F
:10323000102022F053FB024B4460036010BDC046D7
:1032400040E2020070B50A7904000D00002A09D19D
:10325000194923F025FB0123AA68E968200001F041
:1032600079F923E0154923F0ECFBAB68002B1DD066
:103270001349200023F014FB0026AB689E4211D2B4
:10328000002E03D00F49200023F00AFB3200E9682A
:103290002879FDF7B9FE01220100200004F03AF977
:1032A0000136EAE70849200023F0FAFA074920002E
:1032B00023F0F6FA70BDC046146F0300206F0300C0
:1032C0002B6F0300A06D03005DD30300987803000B
:1032D000F8B5002207000D0001004020FDF772FE46
:1032E000061E05D10C490D4825F0F2F812F00FFF2B
:1032F000102022F0E1FA0A4B0400002F00D0094B05
:1033000028002360FBB2A5607043636022F0D4FA0A
:10331000E0602000F8BDC0462F6F03005805030091
:10332000B8E202007CE2020070B506008AB00C0030
:103330001500122839D033D8052800D082E004A91E
:103340000122200022F04EF907A92800012204F0F2
:103350006DFB069B002203936B464020197BFDF713
:1033600031FE06000100089816F062FF069BA16876
:1033700003936B4605004118187BFFF7A9FF059BD7
:1033800004001A000499C068039329F01DFB2A0069
:103390000598E36872431818079929F015FB52E065
:1033A0001B2836D01F2805D04CE011002000FFF765
:1033B000D1FE48E0012207A9280022F00FFF0323D5
:1033C000002813D01C423BD1204B22689A4237D1AF
:1033D00004A90122200022F005F90123079A009395
:1033E0000599089B049822F045FB26E0EA070DD4D6
:1033F0001D4203D1164B2A689A4207D003232B4063
:10340000022B1DD1134B1D40062D19D012480EF072
:103410008DFA012204A9200022F0E4F8012207A974
:10342000280022F0DBFE00280AD0089B059A0093B2
:103430000499079B300026F037FF084C002802D182
:10344000074C00E0002420000AB070BDB8E2020082
:1034500008DE0200070080FF9EC60300E8F30200BA
:103460002CF40200F0B5050087B00E00002808D04B
:103470008B0724D10B68264A934202D0254A9342F7
:103480001DD1012203A9300022F0A8FE002816D089
:10349000002229004020FDF795FD07000100049857
:1034A00016F0C6FE060001002800FFF711FF3200EB
:1034B00004007A430399C06829F086FA24E03000BA
:1034C00004F014FA071E00D0471039002800FFF757
:1034D000FFFE040030000DF079FC002600900098FB
:1034E0000DF0C4FC031E0FD0002F04D119002000E2
:1034F000FFF766FEF3E7721C0192E16832002800D4
:10350000FDF7B4FE019EEAE7200007B0F0BDC0461B
:1035100084E80200B8E2020070B5050086B0161E0D
:1035200044D003200840041E2CD1224B0A689A4242
:1035300028D103AAA86812F0D5FC002802D11E48A1
:103540000EF0F4F92000042E31D122002979402018
:10355000FDF738FD049B06000093039B2879019337
:10356000019A009B991AFFF7B3FE04000399049A8D
:10357000EB68521A714372435918C06829F024FA53
:10358000200014E00A000023A968286804F06AF902
:1035900002002879042E03D1E968FDF735FD06E025
:1035A0003300E968FDF762FE044800E0100006B051
:1035B00070BDC046E40003003C6F03009C33030071
:1035C00037B50C00110000221D00009201232000DD
:1035D00008F030FA002C04D121002000FFF778FE1B
:1035E0001BE02968CB0705D48B0713D10B4B0A6866
:1035F0009A420FD1080004F05DF801000500002098
:10360000FFF766FE04002A000021C06829F0FAF9DD
:10361000200002E00020FFF725FF3EBD08DE02008B
:10362000F0B5204B8BB004AC20C901380093019455
:10363000062308F031FAE0681B4EB04203D105279B
:103640001A4BDF5702E021F071FC07002069B042FD
:1036500004D1174B5B795BB2039302E021F066FC67
:1036600003906069B04203D10522124B9A5602E0E2
:1036700021F05CFC0200012304355B4200930399B6
:103680003B00280013F008F80023A26861682800B6
:1036900012F088FF2800049912F0BCFF30000BB034
:1036A000F0BDC04604E302009C33030098D402003E
:1036B000A4D70200C8D5020070B586B0060001226A
:1036C000080003A904F0B2F9039D2C00049A631BBF
:1036D00001929A4205D92178301D13F0C7F80134C0
:1036E000F4E7014806B070BD9C330300F0B5140048
:1036F00089B001220600080002A904F097F9200011
:103700000024022205A9029F04F090F9059D039B65
:1037100001939C4206D2395D301D13F0A7F828555D
:103720000134F4E7014809B0F0BDC0469C33030002
:10373000F0B5050087B048680C000F6803F0BAFFC9
:10374000010002A822F04CFC0026032D03D1A06842
:1037500003F0B0FF06000024039B01939C4209D2B2
:10376000049B381D31001D19019313F07FF80134BB
:103770002870F1E702A9024800F050FF07B0F0BD41
:1037800084E802008022044B52001A600123034A9D
:103790001360034A1360704700E100E00C8C0040A6
:1037A000008000408022054B5200DA67044BFF3A4C
:1037B0005A600022034B1A607047C04604E100E0E3
:1037C000008000400C8C004070B501251D4B1E4C44
:1037D00018601E4BE550C046FFF7E4FF1C4A1D4B26
:1037E000E560E250002302211B4AC220A3500432AC
:1037F000A15049180832A1508021C122090392002A
:10380000A150053AFF21FF3AA3504024134B8000FA
:103810001A588A43224380241A500C301A5824061E
:103820001202120A22431A5004301A588A433F39AE
:103830000A431A50802212041A60802252041A602D
:1038400070BDC0469402002000800040FC0F0000C4
:10385000701700004C0500000405000000E100E0C6
:1038600070B5224C224D636C002B0AD00023636498
:10387000204B1B689847A822D200AB580001C01803
:10388000A850A36C1A4D002B0AD00022174B9A6443
:10389000184B5B689847184A0001AB58C018A850ED
:1038A000E36C134D002B0BD00022104BDA64114B4C
:1038B0009B689847A922D200AB580001C018A850B5
:1038C000236D0B49002B0FD00022084B0B481A65C3
:1038D0000B4A8B581B188B500A4A13680633136027
:1038E0008022094B12045A6070BDC046FC80004023
:1038F0000080004014000020440500007017000004
:103900004C05000084080020FCE100E0F7B50191BF
:10391000032824D8134B8000C758C223124D9B00A4
:10392000EF50012344192364A823DB00E6589C468A
:103930000E4BEB58D21A9219D61731000F260E40B3
:10394000B218019912110A4E013281511201C1219E
:10395000D318624689006F500020A35001E0012077
:103960004042FEBDE8E30200008000404C0500003C
:103970001400002003280BD8074B8000C158C22335
:10398000064A9B00D150064A064BC250002001E077
:10399000012040427047C046E8E30200008000403A
:1039A0005F5602001400002010B5024B1B689847B8
:1039B00010BDC0469402002010B50024054AA3584B
:1039C000002B02D00021A15098470434102CF5D1CF
:1039D00010BDC04698020020074A89008B58002B72
:1039E00006D188508021054A49045160180001E041
:1039F000012040427047C04698020020FCE100E0F0
:103A0000F8B504000D00A368002B0AD0344AE96819
:103A1000914206D0EB58002B03D00422E3681A60D1
:103A20005DE0A86B002822D063680022D90006233D
:103A3000043019430EF03AFD021E18D0237C002BEF
:103A400004D04268E368216800200DE02068002867
:103A500007D0234BE968994203D0224B9D4200D006
:103A600000692900E36852680DF0F2F837E0236836
:103A7000002B03D16E6B002E14D130E0227C002A83
:103A8000F8D1174AE9689142F4D0164A9542F1D02C
:103A90001869E26861680DF01DF9E3681B68002B86
:103AA000E8D01CE075680836002D18D000276B1E82
:103AB0000C4A9F420DD2BB00F158914201D101370F
:103AC000F5E72000FFF79CFFE3681B68002BF6D0AA
:103AD00005E0054BED18AD00AD59954293D1F8BD09
:103AE000A13D000074270300FFFFFF3FF0B51468FD
:103AF00089B01700002C1ED143685E6B002E1AD0CF
:103B0000736803AD01938368083603936960AC6002
:103B1000EA602C74019B9C4209D0A300F158280054
:103B2000FFF76EFF3B68002B05D10134F2E7034934
:103B30002800FFF765FF09B0F0BDC04674270300F9
:103B400010B54A68014922F07CFF10BD6D6F03007B
:103B500070B58AB004000E001500002108226846E6
:103B600028F050FF1422002105A828F04BFF202345
:103B700007936B46059408931C23002D02D0042D57
:103B800007D11A23216805A80693FFF739FF022100
:103B900006E01B23216805A80693FFF731FF0321E8
:103BA0000098042805D12A003100206903F00CFF99
:103BB0000DE000280BD002AB00220294039604957E
:103BC0000DF00AF803000348042D00D118000AB0D4
:103BD00070BDC0469C330300F0B5204B89B0820015
:103BE000D4580D0008220021070001A828F00AFF80
:103BF000142303AEB36001ABF360002329683000E7
:103C0000746003953374FFF7FBFE019C042C05D10F
:103C1000296938000CF076FF04001CE0002C0CD061
:103C20002000290024F09BFE0400022F13D103F092
:103C30006DFD0124400004430DE0022F0BD126232B
:103C4000296830007360FFF7DBFE019B002B02D177
:103C500001246D002C43200009B0F0BD78E502007E
:103C6000F0B51600724272418BB01F320C00019207
:103C700000210822070003A828F0C4FE019B05AD1F
:103C800006930823079303AB0893002321682800B9
:103C90002B740594FFF7B4FE039B002B08D1002E74
:103CA00006D11F33216828006B60AE60FFF7A8FEC5
:103CB0000398042816D1206903F012FC144BC26843
:103CC0009A420CD1002E07D02368586824F053FC88
:103CD0000100380022F0E4FD8022324300E032008F
:103CE000216906E0002808D0210024F038FE0022D7
:103CF0000100380003F00EFC08E0200022F058FA22
:103D0000230002000349380022F09BFE0BB0F0BDF7
:103D1000C5FB00007A6F030070B504000D000B496D
:103D200022F0BEFD69680022200003F0F3FB084981
:103D3000200022F0B5FDA9680022200003F0EAFB74
:103D40000449200022F0ACFD70BDC0468C6F03001A
:103D5000A06D0300B6760300F7B500254368083070
:103D60000F0006002C000193019BAB4212D0AB0068
:103D7000F358094A93420BD0084AD968914202D0BD
:103D80003B60013404E03900586BFFF7E5FF24186D
:103D90000135E9E72000FEBD74270300A13D0000C6
:103DA000F0B58FB005000F00406B05A9019202939A
:103DB000FFF7D2FF061DB600300021F07DFD0400A4
:103DC000002120C024F06CFE32002000103A103098
:103DD000002128F017FE012F05D1029B1B680393D9
:103DE000042B00D186E007AE08220021300028F025
:103DF00009FE0922002309A84260290003328260DB
:103E0000C66003740993FFF7FBFD0798042807D1E8
:103E10000598029BC668019A3900B047206123E0EB
:103E2000002821D0019A3A4306D106AB012106951C
:103E30000CF0D2FE040017E0019B5C00E419013491
:103E4000A400200021F038FD221F0390029920C019
:103E500028F0BAFD791C039B019A30680CF0BCFE77
:103E60000400039821F04FFD200003F039FB854248
:103E700040D100230822290009A8089307930B9337
:103E800009940A92FFF7BCFD079B002B32D00198E2
:103E9000384305D107AA010024F069FD05001CE0A4
:103EA000019B5D00ED190235AD00280021F004FDF5
:103EB0002A000600079B083A03600393089B0299B7
:103EC0004360083028F080FD32000199380024F06A
:103ED0004EFD0500300021F016FD084B9D4209D033
:103EE000280022F065F90649020006480BF0F6FEAC
:103EF00012F00DF920000FB0F0BDC0469C33030056
:103F0000956F0300480A030010B5C468002C06D161
:103F10004268044904480BF0E1FE12F0F8F8A047AB
:103F200010BDC046BD6F0300480A0300F8B5040089
:103F30000D0016001F0021F095FB002809D120007C
:103F400022F036F90B4902000B480BF0C7FE12F0C5
:103F5000DEF8042804D13B0032002900206905E086
:103F600021000FF063F93B00320029000CF034FE11
:103F7000F8BDC046DA6F0300480A0300F0B5154BE0
:103F800089B016008200D5580C000C2200210700D1
:103F9000684628F037FD182303A845608360002594
:103FA0006B462168C36005740394FFF729FD0098F0
:103FB000042805D13200216938000CF099FF07E090
:103FC000002805D06A4629000120029624F0CFFC83
:103FD00009B0F0BD30E40200F0B50D0085B001A9D4
:103FE00007001600280002AA24F0E6F90023019930
:103FF00002988B420CD09A008258D468002C05D1CC
:104000005268234923480BF069FE26E00133F0E7AC
:104010003C2021F063FC204B040003601F4B4760F1
:1040200083601F4B4563C3601E4B866303611E4B59
:1040300003A943611D4B83611D4BC3611D4B03628B
:104040001D4B43621D4BC3622800FFF785FE01280C
:1040500005D91B490F4824F03BFA12F058F8A36B1E
:104060000022181D4E210EF021FA051E0DD003224C
:1040700043681A4009D11B685B68F22B05D1031D08
:104080000121104821F049FB6860200005B0F0BD17
:10409000F66F0300480A0300F4E30200613C0000ED
:1040A000A13D00002D3F0000D93B00007D3F0000F6
:1040B0008F560200513B0000E55702009B5702005B
:1040C0001F70030030E5020037B50D001C0000230F
:1040D0001100009301220333280007F0ABFC012DEF
:1040E00009D0032D0BD1206800F0F0FAA2686168B6
:1040F000FFF772FF09E0206803F0F2F905E00349D9
:10410000034824F0E5F912F002F83EBD4D700300BB
:10411000480A030070B505000C200C0021F0CCFB10
:10412000024B45600360846070BDC046B8E4020085
:10413000F8B50F00B8421ED0032505401DD1134B22
:1041400002689A421BD1466B002E1AD0746808365A
:10415000002C18D0631E9D4208D2AB003900F058E5
:10416000FFF7E6FF00280FD10135F3E7084BE4180D
:10417000A400A059DEE7012006E0002004E02800AA
:1041800002E0300000E02000F8BDC046F4E3020089
:10419000FFFFFF3FF0B585B00500019108008B07D8
:1041A00013D10B68154A934204D10123029301AB4A
:1041B000039306E0124A934207D103AA02A924F00E
:1041C000FBF8029E039F002410E00E490E4824F0E5
:1041D0007FF911F09CFFA300F9580C4B994209D0CC
:1041E0002800FFF7A5FF002804D10134B442F2D122
:1041F000074800E0074805B0F0BDC046F4E3020000
:104200007404030069700300480A03007427030064
:104210002CF40200E8F3020010B5830703D1064B2B
:1042200002689A4205D00549054824F051F911F079
:104230006EFFFFF7AFFF10BDF4E30200A2700300B2
:10424000480A030037B50400A0680CF00FFE019087
:1042500000280ED06568074B9D4205D001AB0022B7
:10426000012128000CF0B8FC03F064FB0028EBD01F
:1042700001983EBD9C330300F0B5050089B002AF44
:10428000B96016003B6005F099FCAB687B611423B4
:10429000F81821F02FFE14237860F81821F02AFE78
:1042A000032358437B68C0188300FB602C2B0AD87B
:1042B0006B46F8682A30C008C0001B1A9D460023D0
:1042C00002ACFB6005E0F8681C3021F002FB041E24
:1042D000EED0AA687B6929009B1A63607B68200086
:1042E000A3613B680093BA68330001F063FF184E86
:1042F00000217368200063616B68736008F044FB01
:104300006369B8607360002802D0022803D00BE014
:10431000E3681D6809E07B6805339B00E3185D686E
:10432000FB68002B06D10BE00A4DFB68002B0AD07E
:104330000023BB60200021F0E6FABB68002B02D00E
:10434000280011F0E4FE2800BD4607B0F0BDC046CD
:10435000140A00209C3303000122030030B51340EF
:1043600085B004004510002B4DD128491D0088421E
:1043700049D02749884246D0264B1500984242D062
:104380000323034006D1244A0168914202D123F05D
:10439000F5FC0EE0214A25002240062A05D0002B1C
:1043A00009D11F4B22689A4205D101A9200000F0D3
:1043B0001BFE050027E0200003F092F8194B9842FD
:1043C00007D1FF23DB05E0180323984317F03AF8E1
:1043D000EFE7154B984205D101AA6946200023F06A
:1043E000EBFF0FE0114B984205D101AA694620006E
:1043F00020F006FF06E0022201A9200021F0EEFED7
:10440000002800D0019D280005B030BD9C3303007A
:104410002CF40200E8F3020008DE0200070080FF2F
:10442000E0F50200D8FB020074040300CCDA0200BD
:10443000F7B506000F0000920193041E00D04468F7
:104440003800431E984120180430800021F034FACF
:104450000C4B050003600C4B5B684360009B836062
:10446000019BC360002E05D03100A200083110303E
:1044700028F0AAFA002F02D00434A40067512800C3
:10448000FEBDC04654E60200140A002070B50600C6
:1044900010200D00140021F00FFA034B46608560D8
:1044A0000360C46070BDC046DCE50200032230B585
:1044B00002400121002A04D1094C03680D00A342E7
:1044C0000CD00B0003401D1E07D1002A06D1036843
:1044D00004481B1A5D425D4100E00125280030BD03
:1044E000F0F3020008DE020010B50400FFF7DEFF63
:1044F0000123002809D1032203002240022A04D10B
:10450000034B2340063B581E83410120184010BD39
:10451000070080FF10B521F04BFE0349020003485D
:104520000BF0DCFB11F0F3FDCC700300480A030034
:1045300010B50400102021F0BFF9044B8460036023
:10454000034B43600023C36010BDC046B027030087
:104550001F5D0200F7B50E00019304008B180A00DE
:1045600000210093009B93420ED91378272B04D08F
:10457000223B58424341DBB201E0002301210132DA
:10458000002BEFD0272503E02725002900D0053D8B
:104590001B4F2A003900200022F053FA009B9E4254
:1045A00027D23278954202D12A0016491CE01649DA
:1045B0005C2A14D01F2A09D97F2A14D0019B002B12
:1045C00002D053B2002B07DB39000DE00F490A2A55
:1045D00005D00F490D2A02D0092A04D10D49200027
:1045E00022F05EF903E00C49200022F02AFA01369D
:1045F000D4E72A003900200022F023FAF7BDC04694
:10460000F9700300F8700300FC700300FF700300F2
:10461000027103000571030008710300194B70B5A6
:1046200006000D0098420ED14968A8680BF068FC9E
:10463000041E08D0280021F0E6FC00230620E40038
:104640002B6020431DE0102021F036F9696804003A
:1046500081600660A8680BF035FC6B686060591CCF
:104660002B68994202D1AB68E36003E0A86821F0AF
:1046700039F9E06000232000E268A1685354AB6080
:104680002B6070BDE0F5020070B504000D00002A3B
:1046900002D00BF067FC03E00BF032FC002803D0E3
:1046A0000623C000184304E02A002100014821F03D
:1046B00001FA70BDE0F5020010B50A0001000248E1
:1046C00021F0F8F910BDC04684E802000A4B10B58D
:1046D0000340062B01D1C0080CE0830708D1074B2B
:1046E00002689A4204D18168C0680BF03BFC01E08B
:1046F000FFF710FF10BDC046070080FFE0F5020085
:10470000064B10B50340062B03D1C00823F038FF39
:1047100002E08368C0680B6010BDC046070080FFE0
:10472000F0B50F00002689B0110005001C0038000C
:1047300000960323320007F07DF90E20B74238D0EF
:10474000012F0ED102AA04A8102102F05FFE2168F9
:1047500002A8320002F0DEFE04A92800FFF75EFF87
:1047600027E0206883071BD1134B02689A4217D1B8
:1047700004A9FFF7C5FF114B060020680340062B74
:1047800004D1C00823F0EDFE040000E044681020CE
:10479000049F21F091F805608760C660446008E0DE
:1047A000012204A903F042F9002205990498FFF7B9
:1047B0006BFF09B0F0BDC04684E80200070080FF2F
:1047C000F0B58BB0049008680D000692079302F0D4
:1047D00087FE0600686802F083FE864202D06868A1
:1047E000FFF798FE08A92868FFF78AFF040009A9C7
:1047F0006868FFF785FF089A0590A3180393049B48
:104800002700022B19D9AB681D498B4206D0012124
:1048100030000091210005F0DBFA0700049B032B18
:104820000BD0EB68164A934207D001222100009278
:104830003000089A05F0CCFA0390039B059AD91B27
:10484000069B38000093099B21F014F9002809D138
:10485000079B0138002B11D00A490B4823F038FE82
:1048600011F055FC094B9E4204D10100200023F0B9
:10487000FBF800E0001B0124400020430BB0F0BD1A
:104880009C3303000F71030058050300E0F502009C
:10489000F0B58DB00400039102F022FE04A90600D9
:1048A0002000FFF72DFF0190039883070BD10368C9
:1048B000314A934204D106AA05A923F07DFD10E0F8
:1048C0002E4A934208D02D480022C368012102934A
:1048D000029C03ABA047039006AA05A9039820F009
:1048E0008FFC00242500059B9C421ED2069BA7003E
:1048F000D85902F0F5FD864205D02149214823F020
:10490000E7FD11F004FC002C01D0049BED18069B80
:10491000D8591D4B0340062B03D1C00823F026FEB7
:1049200000E080682D180134DDE72900002508A883
:1049300021F056FB0A9C059B9D4217D2002D06D004
:104940002000049A019928F03FF8049BE418069A85
:10495000AB00985807A9FFF7D3FE079A0100200083
:1049600028F032F8079B0135E418E4E708A9300085
:10497000FFF754FE0DB0F0BD74040300CCDA020062
:1049800023710300480A0300070080FFF0B5070009
:1049900087B008680D0002F0A3FD04A9060028688E
:1049A000FFF7AEFE05A904006868FFF7A9FE0390B3
:1049B0002000022F07D901230093AB68049A21003D
:1049C000300005F005FA059A041B049BA418064D57
:1049D0009C4205D8039927F0E8FF002800D1034D39
:1049E000280007B0F0BDC0462CF40200E8F3020036
:1049F00073B50C00060069462068FFF781FE01A927
:104A000005006068FFF77CFE0100022E02D908480D
:104A10000CF08CFF019A009B064C9A4206D89B1A18
:104A2000E81827F0C2FF002800D1034C200076BD13
:104A3000687103002CF40200E8F30200F0B58FB0B7
:104A4000079010680C00170002F04AFD0690012C38
:104A500010D0786802F044FD069B834202D078684B
:104A6000FFF758FD0DA97868FFF74AFE0D9B0890E7
:104A7000099303E0072309932C4B08930DA9386889
:104A8000FFF73EFE0D9B0B900493079B012B05D176
:104A9000049B5D1E01235B420A9302E00123002573
:104AA0000A9300242600049B03940593059B002B86
:104AB00022D00B9B09995A1901230898009320F0E2
:104AC000D9FF002812D1039B002B0ED1079B002B8E
:104AD00003D1049B2E005D1E19E0079B012B15D00E
:104AE00001232C002E00039300E02C000A9BED18FC
:104AF000059B013B0593D9E7039B002B08D10C4B89
:104B0000069A0E209A420FD00A480DE0039E2C0010
:104B1000049B0134A21B934201D1386804E00B9B33
:104B20000698991920F0C6FF0FB0F0BDC5700300BC
:104B3000E0F5020090E60200F0B589B00490086844
:104B40000D0002F0CDFC0700686802F0C9FC874246
:104B500002D06868FFF7DEFC06A92868FFF7D0FDE1
:104B6000060007A96868FFF7CBFD069A0590B31801
:104B70000393049B3400022B19D9AB681E498B4266
:104B800006D0012138000091310005F021F9040020
:104B9000049B032B0BD0EB68174A934207D00122EA
:104BA000310000923800069A05F012F90390079B35
:104BB0000025002B10D1039B2000191B22F063FF5E
:104BC00001304000012514E00599200027F0EDFE9A
:104BD000002807D101353400079A039BA618B34279
:104BE000F2D204E0200022F036FF0600F3E70120B5
:104BF0006D00284309B0F0BD9C330300F0B58BB0C5
:104C00000E000700039202F06BFC0400300002F07B
:104C100067FC844202D03000FFF77CFC05A9380015
:104C2000FFF76EFD06A905003000FFF769FD069B42
:104C30000200002B05D11A491A4823F049FC11F053
:104C400066FA19498C4201D10E2100E017490791FB
:104C5000089109910399002901DD079700E0099760
:104C6000039928000091059920F004FF002811D035
:104C7000471B3A002900200020F01CFF059B0699E5
:104C8000DA1B521A7918079069182000089620F04C
:104C900011FF099007A9032009F0DAFD0BB0F0BD60
:104CA0007A71030058050300E0F5020090E6020067
:104CB00010B50100014821F011F810BDA77A0200DB
:104CC00010B50100014821F009F810BDBB7A0200BF
:104CD000F7B50600080001A9FFF712FD019B0500CA
:104CE000002B01D1144826E0144B04009E4201D150
:104CF000002712E0124B9E42FAD0019A631B9A429F
:104D000018D92078B04701340028F6D1EAE7207896
:104D100005F082FD002805D10134019A631B9A42F7
:104D2000F5D805E02078B0470028DBD00127F3E76D
:104D3000002FD7D00348FEBD2CF4020081A800004C
:104D400099A80000E8F3020010B501000148FFF740
:104D5000BFFF10BD01A8000010B501000148FFF71A
:104D6000B7FF10BD19A8000010B501000148FFF7FA
:104D7000AFFF10BD31A8000010B501000148FFF7DA
:104D8000A7FF10BD81A8000010B501000148FFF782
:104D90009FFF10BD99A80000F0B585B006000C007B
:104DA000170002F09DFB694605003000FFF7A8FCE4
:104DB0000600042F22D1A30715D1124B22689A4274
:104DC00011D101AA2100009811F08CF8002802D11D
:104DD0000D480CF0ABFD0199029A2800521A711887
:104DE00020F068FE0BE0002322000099280002F06A
:104DF00039FD0123305C4000184300E0002005B07D
:104E0000F0BDC046E40003003C6F030070B51D0018
:104E10008AB0002968D01868354C03002340062B5F
:104E200005D083071ED1334B02689A421AD102394A
:104E3000012953D806A9FFF763FC0600286804403F
:104E4000062C04D1C00823F08CFB040000E0446869
:104E50001020069D20F030FD274B85600360C66062
:104E6000446042E0012939D8012210420CD044109C
:104E7000210006A821F0B4F8089B220000211800A8
:104E8000019327F0BFFD24E003A921F0A7F9002832
:104E900005D0049A0399184820F00CFE25E02868F4
:104EA00002F024FD1021002800D0411006A821F0B6
:104EB00080F828680BF08AFF040020000BF0D6FF72
:104EC000002806D002F0F6FBC1B206A821F0FEF8D9
:104ED000F3E706A90848FFF7A1FB06E007490848E1
:104EE00023F0F6FA11F013F906480AB070BDC04677
:104EF000070080FFE0F5020084E802008A710300E9
:104F0000480A030090E6020073B50400080001A9F6
:104F10001600FFF7F5FB0500042E06D10300019AE9
:104F20000749200021F08DFD09E00649200021F00D
:104F3000B7FC0123019A29002000FFF70BFB73BD8A
:104F4000A47103009D9C0300F7B502001A4B0500F5
:104F50000C001A401E00062A08D10B40401A062BEE
:104F600026D0E80823F0FDFA070000E04768264055
:104F7000062E03D1E00823F0F4FA00E06068002F69
:104F800005D0002803D0874201D0002013E06946F5
:104F90002800FFF7B5FB01A905002000FFF7B0FBD3
:104FA000009A019B01009A42EFD1280027F0FDFCF6
:104FB00044426041C0B2FEBD070080FF084B07B508
:104FC0000340062B08D0830704D10268054B926981
:104FD0009A4201D0FFF79EFA01A9FFF791FB0EBD9F
:104FE000070080FFCD5500000A4B13B503400C00AD
:104FF000062B08D0830704D10268074B92699A42B6
:1050000001D0FFF787FA01A9FFF77AFB019B236024
:1050100016BDC046070080FFCD550000F0B59BB01F
:105020000B900491079210210EAA12A8099302F086
:10503000EDF9049B079A934200D3A9E2049B1978E7
:105040005D1C7D2908D1079BAB4203D9049B59788D
:105050007D290FD0B44930E07B2903D012A821F07C
:1050600035F872E0079B2C00AB4233D9049B59788A
:105070007B2904D112A821F029F8049565E07D2947
:1050800010D021290ED02E003A290BD033787D2B59
:105090005FD0212B5DD03A2B5BD0079B0136B3420A
:1050A000F4D117E00026230034001A78212A52D1C7
:1050B00007995A1C914205D89C499D4823F008FA4B
:1050C00011F025F85A780592723A012AF4D8023381
:1050D000994242D89749F0E716A820F094FF059B23
:1050E000002B00D17DE1002E00D12036089B002B43
:1050F00000D081E1059B3D2B00D186E15E2B00D1E4
:1051000085E13C2B01D13B3B1D433800FFF7CEF935
:10511000002800D1C3E1632C00D18DE100D97FE1EB
:10512000472C00D875E1582C00D1A7E1622C00D0A3
:10513000AEE1002303930D9B0222029361230196AB
:10514000009539000EA803F08BF8049B01330493FB
:105150006FE73300A9E70022059200211A78049135
:105160003A2A00D006E25A1C5B7804927D2B11D0BB
:105170001300012207998B42ACD219787B2901D107
:10518000013205E07D2903D1013A002A00D1F1E185
:105190000133EFE7079B049A93429BD900230693C0
:1051A000049B1B787D2B01D0634986E7002C42D0FD
:1051B00000232078169305F03BFB2500002820D023
:1051C000099B1B680893002B01DD5C4975E716AA53
:1051D0003100200020F035FC209A169B013A050092
:1051E0009A4232D9219A01339B009F580122099B90
:1051F00052421A601AE02B782E2B04D05B2B02D07F
:105200000135B542F7D3291B01222000FFF73CFAF4
:1052100000220400010022980DF048F9002804D172
:105220002100474823F04DF94AE74768B54215D2B7
:1052300044480CF07BFB099B1B68002B01DA4249B8
:105240003BE7209A013A934202D34049404835E770
:10525000013321999A005758099A1360069B002B35
:1052600004D1059B002B00D181E102E0059B002BBE
:1052700012D010AA102116A802F0C8F8059A390019
:10528000733A531E9A4110A8D2B202F043F916A9FC
:105290003048FFF7C3F9070001235B420D931093D9
:1052A000069B002B00D198E004F088FC229B049A16
:1052B0000293219B06990193209B16A80093099BBA
:1052C000FFF7ACFE16A820F0EEFE179B0678C31879
:1052D0000A930023040005939E4216D01E4D310010
:1052E000280027F0E2FC002800D047E1637805930E
:1052F000002B09D01900280027F0D7FC002800D087
:1053000040E10590060000E0059E237808932B2BD2
:1053100005D02D2B05D00425202B1FD102E002251E
:1053200000E0002501341BE0A9710300D1710300E6
:1053300058050300EA71030002720300267203009D
:10534000380B030089720300A67203007072030019
:10535000B4060300E0F50200F07203000025089592
:105360002378232B02D1133B1D4301342378302BA8
:1053700007D1059B002B01D13D330593002E00D1B1
:1053800030360DAA0A99200020F05BFB03780690C6
:105390002C2B04D10C3B1D43030001330693069BC9
:1053A0001B782E2B06D1069810AA01300A9920F0FE
:1053B00048FB0690069B1C78002C07D021007948FA
:1053C00027F073FC002800D0DEE00400069B1B7869
:1053D000002B00D180E674496FE6069D2C002E005C
:1053E00008953800FFF780F83C230593002800D18A
:1053F00079E60233059376E6732C01D16B495CE6BE
:10540000632C00D076E66A4957E640237CE6802389
:105410007AE6452C43D2002C19D0252C3FD037E01A
:10542000672C02D8652C12D339E06F2C18D0782C59
:1054300024D06E2C2CD10AE0380002F03BF90D9BF1
:1054400016A908700122019300962B0081E0002329
:1054500003930D9B01960293009561230A2270E647
:10546000EB0602D580239B001D43002303930D9B75
:105470000196029300956123082262E60022230030
:1054800003920D9A173B029201960095102258E65E
:10549000380020F08DFE22000300464963E038000A
:1054A000FFF722F8002838D0002C1FD06E2C1DD01A
:1054B000472C15D8452C1AD2252C27D1380080240A
:1054C00002F05CF93C4915F00BFD109B640002935F
:1054D0000D9B2C430193011C00962300662211E0D2
:1054E0002300653BDBB2022B10D800E067243800B4
:1054F00002F044F9109B220002930D9B011C0193C2
:105500002B0000960EA821F04FFA1EE6380020F07E
:105510004FFE22000300294925E0059B3D2B01D1C8
:105520002749CAE5002C01D0732C16D116A93800E2
:10553000FFF75AFD109B0100169A002B00DA10921B
:10554000109B9A4200D916930D9B169A01932B003B
:1055500000960EA802F026FEF7E5380020F028FE9F
:1055600022000300174918480AF0B8FBA8E5732386
:1055700005937EE6049A0493069211E6059601349B
:105580000026C2E60234C0E6069B013306931DE7FF
:105590000B9A12AB13CB13C21B6813600B981BB092
:1055A000F0BDC046F5720300057303001E730300CF
:1055B0004A7303007D7303000000C842AE7303000A
:1055C000E27303001774030058050300F0B5A1B09F
:1055D00004000D000D920A2800D0DFE1073C06927E
:1055E000144010D11368B64A934206D10FAA10A9ED
:1055F000069822F0E1FE06940BE0B24A934202D1F3
:105600000F94109405E00DAB0F930123109300232A
:105610000693109B11A908930F9B28000993FFF78D
:105620006FF800230A900B93AB0705D1A64A2B68AD
:105630009B1A5A425A410B9214AA102118A801F041
:10564000E5FE119A002794460A9B0A9C6344059341
:10565000059BA34200D894E12178252903D018A8FE
:1056600020F034FD8BE1059B661CB34201D89749BD
:1056700015E06178252904D118A820F027FD340011
:105680007DE10025282919D1A01C060000E0013683
:105690003378292B08D0059BB342F8D88C498D4824
:1056A00022F016FF10F033FD311A0122FEF7ECFF55
:1056B0000100069805F0F2FA0500013600233400D7
:1056C0004022002604210C9320330793059BA3421C
:1056D00011D923782D2B01D12C3B02E02B2B02D1A9
:1056E000293B1E4312E0202B01D10E430EE0232B59
:1056F0000AD0302B05D000231293059BA34207D874
:105700001EE01643079301E010230C930134DDE7FC
:1057100023782A2B0ED1089A3B00BA4201D86E4951
:1057200033E1099A9B00985801F0C4FF01371290A9
:10573000013405E0200012AA059920F082F9040046
:1057400001235B421393059BA34290D923782E2B10
:105750001ED1059B601C834289D963782A2B0CD10A
:10576000089A3B00BA42DAD9099A9B00985801F08E
:10577000A1FF01371390023406E0002313AA059914
:10578000139320F05EF90400059BA34200D86EE756
:10579000002D07D1089A3B00BA42C0D9099A9B0054
:1057A0009D5801372278672A0FD8652A68D2582A6F
:1057B00000D1CAE004D81300453B022B60D9D5E0E4
:1057C000632A12D0642A40D0D0E0732A07D8722A04
:1057D00000D38BE0692A38D06F2A61D0C6E0752AE1
:1057E00033D0782A00D1B0E0C0E03C4B2B40062BF0
:1057F00005D0AB0713D13A4B2A689A420FD11CA9A6
:105800002800FFF7F1FB1C9A0100012A01D035495D
:10581000BBE0129B01932023009333000FE028008C
:10582000FEF744FE00280ED0280001F043FF129B33
:105830001CA908700193202301220093330014A8AF
:1058400002F0B0FC9BE028499FE003222B002800D7
:105850001340022B09D1214B2B40062B05D0FF23EF
:10586000DB05E818904305F001FB139B00960393BA
:10587000129B0A220293079B01000193612371E0AE
:10588000280001F07BFF139B22780293129B011CDE
:105890000193079B14A80093330021F085F86EE074
:1058A0000C9B002B02D084239B001E43139B00966D
:1058B0000393129B08220293079B0193612350E0FC
:1058C000740403005CF8020084E8020049740300D9
:1058D0005B7403005805030071740300070080FF28
:1058E000E0F5020098740300B174030016AA1021B9
:1058F0001CA801F08BFD23780122722B0BD0002213
:105900000B9B934207D0AB0705D12B68654A9A1AC7
:10591000514251418A00290016A801F0FBFD139B5A
:105920001D9A002B00DA1392139B9A4200D91A0099
:10593000129B1E990193202314A80093330002F0B8
:1059400031FC1CA820F05FFB19E01300139A173BF1
:105950000392129A0292079A01920C9A164310220D
:105960000096290014A802F07BFC08E00A9B4E492F
:10597000E41A009413004D480AF0B0F992E601349D
:1059800066E6089BBB4202D049494A4888E60B9B21
:105990004448002B00D1484818A96FE0080001F0E6
:1059A0009FFD16A906002800FEF7AAFE0700072C97
:1059B0001ED118A90D9801F0BBFE0025A8426ED09B
:1059C0001899A94205DC3C4B0E359E4267D03B4DF1
:1059D00065E0169B1CA8594320F002FB1E9B169AFB
:1059E000059300930121189B380024F029FC43E023
:1059F0000D9801F075FD864206D11CA90D98FEF7A1
:105A00007FFE1C9D05900DE0264B00259E4246D151
:105A100001221CA90D9820F0E1FBA8423FD01C9B5D
:105A20001D9D05931D2C06D8192C2BD2052C0DD0AD
:105A3000122C0BD032E01F2C30D10123059A009399
:105A400016992B00380020F015F822E0169B1CA8B0
:105A5000E91820F0C5FA1E9B169A39001800069323
:105A600026F0B2FF169A1E9B9446069363441800D4
:105A70002A00059926F0A8FF30001CA9FEF7CEFDEC
:105A800005000CE00095059B169A3900200024F0D3
:105A90000BFC0B4D002802D10A4D00E00025280028
:105AA00021B0F0BD84E80200C27403005805030071
:105AB000F7740300480A0300E0F5020090E60200D4
:105AC000E8F302002CF4020070B50C008AB0050067
:105AD00004A920681600FEF713FE00230593049B1B
